{"abi":[{"inputs":[],"stateMutability":"nonpayable","type":"constructor","name":"constructor"},{"anonymous":false,"inputs":[{"indexed":true,"internalType":"address","name":"previousOwner","type":"address"},{"indexed":true,"internalType":"address","name":"newOwner","type":"address"}],"name":"OwnershipTransferred","type":"event"},{"anonymous":false,"inputs":[{"indexed":false,"internalType":"bytes32","name":"requestId","type":"bytes32"}],"name":"RequestedRandomness","type":"event"},{"anonymous":false,"inputs":[{"indexed":true,"internalType":"address","name":"to","type":"address"},{"indexed":false,"internalType":"uint256","name":"value","type":"uint256"}],"name":"cantSendEthOwner","type":"event"},{"anonymous":false,"inputs":[{"indexed":true,"internalType":"address","name":"to","type":"address"},{"indexed":false,"internalType":"uint256","name":"value","type":"uint256"}],"name":"cantSendEthParticipants","type":"event"},{"anonymous":false,"inputs":[{"indexed":true,"internalType":"address","name":"to","type":"address"},{"indexed":false,"internalType":"uint256","name":"value","type":"uint256"}],"name":"cantSendEthWinner","type":"event"},{"inputs":[],"name":"EntryFee","outputs":[{"internalType":"uint256","name":"","type":"uint256"}],"stateMutability":"view","type":"function"},{"inputs":[],"name":"contractPercent","outputs":[{"internalType":"uint256","name":"","type":"uint256"}],"stateMutability":"view","type":"function"},{"inputs":[],"name":"emergency","outputs":[{"internalType":"enum MyLottery.EMERGENCY","name":"","type":"uint8"}],"stateMutability":"view","type":"function"},{"inputs":[],"name":"end_lottery","outputs":[],"stateMutability":"nonpayable","type":"function"},{"inputs":[],"name":"enter_lottery","outputs":[],"stateMutability":"payable","type":"function"},{"inputs":[],"name":"errorFlag","outputs":[{"internalType":"uint256","name":"","type":"uint256"}],"stateMutability":"view","type":"function"},{"inputs":[],"name":"fee","outputs":[{"internalType":"uint256","name":"","type":"uint256"}],"stateMutability":"view","type":"function"},{"inputs":[{"internalType":"address","name":"_tokenContractAddress","type":"address"}],"name":"getBalance","outputs":[{"internalType":"uint256","name":"","type":"uint256"}],"stateMutability":"view","type":"function"},{"inputs":[{"internalType":"address","name":"","type":"address"}],"name":"isUserEntered","outputs":[{"internalType":"bool","name":"","type":"bool"}],"stateMutability":"view","type":"function"},{"inputs":[],"name":"keyhash","outputs":[{"internalType":"bytes32","name":"","type":"bytes32"}],"stateMutability":"view","type":"function"},{"inputs":[],"name":"link","outputs":[{"internalType":"address","name":"","type":"address"}],"stateMutability":"view","type":"function"},{"inputs":[],"name":"lottery_state","outputs":[{"internalType":"enum MyLottery.LOTTERY_STATE","name":"","type":"uint8"}],"stateMutability":"view","type":"function"},{"inputs":[],"name":"maxTryCounter","outputs":[{"internalType":"uint256","name":"","type":"uint256"}],"stateMutability":"view","type":"function"},{"inputs":[],"name":"maximumParticipants","outputs":[{"internalType":"uint256","name":"","type":"uint256"}],"stateMutability":"view","type":"function"},{"inputs":[],"name":"minumumParticipants","outputs":[{"internalType":"uint256","name":"","type":"uint256"}],"stateMutability":"view","type":"function"},{"inputs":[],"name":"owner","outputs":[{"internalType":"address","name":"","type":"address"}],"stateMutability":"view","type":"function"},{"inputs":[],"name":"ownerPercent","outputs":[{"internalType":"uint256","name":"","type":"uint256"}],"stateMutability":"view","type":"function"},{"inputs":[],"name":"ownerSent","outputs":[{"internalType":"bool","name":"","type":"bool"}],"stateMutability":"view","type":"function"},{"inputs":[{"internalType":"uint256","name":"","type":"uint256"}],"name":"players","outputs":[{"internalType":"address payable","name":"","type":"address"}],"stateMutability":"view","type":"function"},{"inputs":[],"name":"pricePercent","outputs":[{"internalType":"uint256","name":"","type":"uint256"}],"stateMutability":"view","type":"function"},{"inputs":[],"name":"randomness","outputs":[{"internalType":"uint256","name":"","type":"uint256"}],"stateMutability":"view","type":"function"},{"inputs":[],"name":"recentWinner","outputs":[{"internalType":"address payable","name":"","type":"address"}],"stateMutability":"view","type":"function"},{"inputs":[],"name":"recoverEth","outputs":[],"stateMutability":"nonpayable","type":"function"},{"inputs":[{"internalType":"address","name":"tokenAddress","type":"address"}],"name":"recoverTokens","outputs":[],"stateMutability":"nonpayable","type":"function"},{"inputs":[],"name":"renounceOwnership","outputs":[],"stateMutability":"nonpayable","type":"function"},{"inputs":[],"name":"retrySendPrizes","outputs":[],"stateMutability":"nonpayable","type":"function"},{"inputs":[{"internalType":"uint256","name":"_entryFee","type":"uint256"}],"name":"setEntranceFee","outputs":[],"stateMutability":"nonpayable","type":"function"},{"inputs":[{"internalType":"uint256","name":"_maximumParticipants","type":"uint256"}],"name":"setMaximumParticipants","outputs":[],"stateMutability":"nonpayable","type":"function"},{"inputs":[{"internalType":"uint256","name":"_minumumParticipants","type":"uint256"}],"name":"setMinumumParticipants","outputs":[],"stateMutability":"nonpayable","type":"function"},{"inputs":[{"internalType":"uint256","name":"_pricePercent","type":"uint256"},{"internalType":"uint256","name":"_ownerPercent","type":"uint256"},{"internalType":"uint256","name":"_contractPercent","type":"uint256"}],"name":"setPrizePercents","outputs":[],"stateMutability":"nonpayable","type":"function"},{"inputs":[],"name":"start_lottery","outputs":[],"stateMutability":"nonpayable","type":"function"},{"inputs":[{"internalType":"address","name":"newOwner","type":"address"}],"name":"transferOwner","outputs":[],"stateMutability":"nonpayable","type":"function"},{"inputs":[{"internalType":"address","name":"newOwner","type":"address"}],"name":"transferOwnership","outputs":[],"stateMutability":"nonpayable","type":"function"}],"bytecode":"608060405234801561001057600080fd5b5061001a3361005e565b6001805566b1a2bc2ec50000600855600f805462ffff001916620101001781556003600681905560646007556041600a556014600b55600c91909155600d556100ae565b600080546001600160a01b038381166001600160a01b0319831681178455604051919092169283917f8be0079c531659141344cd1fd0a4f28419497f9722a3daafe3b4186f6b6457e09190a35050565b611967806100bd6000396000f3fe6080604052600436106101ee5760003560e01c80638da5cb5b1161010d578063d718aea9116100a0578063f2fde38b1161006f578063f2fde38b1461051e578063f71d96cb1461053e578063f8b2cb4f1461055e578063faea18c61461057e578063fe56f5a01461059457600080fd5b8063d718aea9146104be578063ddca3f43146104d3578063ee44abb2146104e9578063f2640e10146104fe57600080fd5b8063b4989917116100dc578063b49899171461042c578063bcdb446b1461044c578063be55c9c914610461578063caa6fea41461049157600080fd5b80638da5cb5b146103cc57806395d12000146103ea5780639bb5771814610400578063a6d811ea1461041657600080fd5b80634fb2e45d1161018557806369ebe78e1161015457806369ebe78e1461035f578063715018a614610375578063814479991461038a57806381fb84fb146103b657600080fd5b80634fb2e45d146102f3578063501d078014610313578063569237101461032957806359fe8c841461034957600080fd5b806336013189116101c157806336013189146102a0578063382e5e7a146102b65780634a8466e9146102be5780634f8c70cf146102d357600080fd5b806304283412146101f35780630b3ff2801461021c57806316114acd146102465780631c4695f414610268575b600080fd5b3480156101ff57600080fd5b5061020960075481565b6040519081526020015b60405180910390f35b34801561022857600080fd5b50600f546102369060ff1681565b6040519015158152602001610213565b34801561025257600080fd5b50610266610261366004611628565b6105b4565b005b34801561027457600080fd5b50600454610288906001600160a01b031681565b6040516001600160a01b039091168152602001610213565b3480156102ac57600080fd5b5061020960055481565b6102666106a4565b3480156102ca57600080fd5b5061026661090f565b3480156102df57600080fd5b50600354610288906001600160a01b031681565b3480156102ff57600080fd5b5061026661030e366004611628565b610922565b34801561031f57600080fd5b50610209600d5481565b34801561033557600080fd5b50610266610344366004611651565b610933565b34801561035557600080fd5b5061020960085481565b34801561036b57600080fd5b5061020960115481565b34801561038157600080fd5b50610266610940565b34801561039657600080fd5b50600f546103a990610100900460ff1681565b6040516102139190611680565b3480156103c257600080fd5b50610209600a5481565b3480156103d857600080fd5b506000546001600160a01b0316610288565b3480156103f657600080fd5b50610209600b5481565b34801561040c57600080fd5b50610209600c5481565b34801561042257600080fd5b5061020960065481565b34801561043857600080fd5b50610266610447366004611651565b610954565b34801561045857600080fd5b50610266610961565b34801561046d57600080fd5b5061023661047c366004611628565b60096020526000908152604090205460ff1681565b34801561049d57600080fd5b50600f546104b19062010000900460ff1681565b604051610213919061169a565b3480156104ca57600080fd5b506102666109d0565b3480156104df57600080fd5b5061020960105481565b3480156104f557600080fd5b50610266610aa0565b34801561050a57600080fd5b506102666105193660046116ae565b610b61565b34801561052a57600080fd5b50610266610539366004611628565b610c87565b34801561054a57600080fd5b50610288610559366004611651565b610cfd565b34801561056a57600080fd5b50610209610579366004611628565b610d27565b34801561058a57600080fd5b50610209600e5481565b3480156105a057600080fd5b506102666105af366004611651565b610d9b565b6105bc610de3565b6040516370a0823160e01b815230600482015281906001600160a01b0382169063a9059cbb90339083906370a0823190602401602060405180830381865afa15801561060c573d6000803e3d6000fd5b505050506040513d601f19601f8201168201806040525081019061063091906116da565b6040516001600160e01b031960e085901b1681526001600160a01b03909216600483015260248201526044016020604051808303816000875af115801561067b573d6000803e3d6000fd5b505050506040513d601f19601f8201168201806040525081019061069f91906116f3565b505050565b6002600154036106fb5760405162461bcd60e51b815260206004820152601f60248201527f5265656e7472616e637947756172643a207265656e7472616e742063616c6c0060448201526064015b60405180910390fd5b60026001553360009081526009602052604090205460ff16156107525760405162461bcd60e51b815260206004820152600f60248201526e105b1c9958591e48195b9d195c9959608a1b60448201526064016106f2565b336000908152600960205260408120805460ff19166001179055600f54610100900460ff1660028111156107885761078861166a565b146107cb5760405162461bcd60e51b8152602060048201526013602482015272131bdd1d195c9e48139bdd081cdd185c9d1959606a1b60448201526064016106f2565b6001600f5462010000900460ff1660018111156107ea576107ea61166a565b146108075760405162461bcd60e51b81526004016106f290611715565b600854341461082a670de0b6b3a7640000600854610825919061176a565b610e3d565b60405160200161083a91906117ae565b604051602081830303815290604052906108675760405162461bcd60e51b81526004016106f29190611801565b5060075460025411156108c85760405162461bcd60e51b815260206004820152602360248201527f4d6178696d756d204e756d626572207265616368656420666f7220206c6f747460448201526265727960e81b60648201526084016106f2565b60028054600181810183556000929092527f405787fa12a823e0f2b7631cc41b3ba8828b3321ca811111fa75cd3aa3bb5ace0180546001600160a01b031916331790558055565b610917610de3565b61091f610f46565b50565b61092a610de3565b61091f81610c87565b61093b610de3565b600755565b610948610de3565b6109526000611188565b565b61095c610de3565b600655565b610969610de3565b6001600f54610100900460ff1660028111156109875761098761166a565b146109a45760405162461bcd60e51b81526004016106f290611834565b60405133904780156108fc02916000818181858888f1935050505015801561091f573d6000803e3d6000fd5b6109d8610de3565b6000600f54610100900460ff1660028111156109f6576109f661166a565b14610a395760405162461bcd60e51b8152602060048201526013602482015272131bdd1d195c9e48139bdd081cdd185c9d1959606a1b60448201526064016106f2565b6001600f5462010000900460ff166001811115610a5857610a5861166a565b14610a755760405162461bcd60e51b81526004016106f290611715565b6006546002541015610a89576109526111d8565b600f805461ff001916610200179055610952611339565b610aa8610de3565b6001600f54610100900460ff166002811115610ac657610ac661166a565b14610b135760405162461bcd60e51b815260206004820152601760248201527f4c6f747465727920416c7265616479207374617274656400000000000000000060448201526064016106f2565b6001600f5462010000900460ff166001811115610b3257610b3261166a565b14610b4f5760405162461bcd60e51b81526004016106f290611715565b600f805461ff00191690556000600555565b610b69610de3565b6001600f54610100900460ff166002811115610b8757610b8761166a565b14610ba45760405162461bcd60e51b81526004016106f290611834565b6001600f54610100900460ff166002811115610bc257610bc261166a565b14610bdf5760405162461bcd60e51b81526004016106f290611834565b606481610bec848661186b565b610bf6919061186b565b1115610c375760405162461bcd60e51b815260206004820152601060248201526f063616e206e6f74206f766572203130360841b60448201526064016106f2565b60328310610c795760405162461bcd60e51b815260206004820152600f60248201526e063616e206e6f74206c65737320353608c1b60448201526064016106f2565b600a92909255600b55600c55565b610c8f610de3565b6001600160a01b038116610cf45760405162461bcd60e51b815260206004820152602660248201527f4f776e61626c653a206e6577206f776e657220697320746865207a65726f206160448201526564647265737360d01b60648201526084016106f2565b61091f81611188565b60028181548110610d0d57600080fd5b6000918252602090912001546001600160a01b0316905081565b6040516370a0823160e01b815230600482015260009081906001600160a01b038416906370a0823190602401602060405180830381865afa158015610d70573d6000803e3d6000fd5b505050506040513d601f19601f82011682018060405250810190610d9491906116da565b9392505050565b610da3610de3565b6001600f54610100900460ff166002811115610dc157610dc161166a565b14610dde5760405162461bcd60e51b81526004016106f290611834565b600855565b6000546001600160a01b031633146109525760405162461bcd60e51b815260206004820181905260248201527f4f776e61626c653a2063616c6c6572206973206e6f7420746865206f776e657260448201526064016106f2565b606081600003610e645750506040805180820190915260018152600360fc1b602082015290565b8160005b8115610e8e5780610e7881611883565b9150610e879050600a8361176a565b9150610e68565b60008167ffffffffffffffff811115610ea957610ea961189c565b6040519080825280601f01601f191660200182016040528015610ed3576020820181803683370190505b5090505b8415610f3e57610ee86001836118b2565b9150610ef5600a866118c9565b610f0090603061186b565b60f81b818381518110610f1557610f156118dd565b60200101906001600160f81b031916908160001a905350610f37600a8661176a565b9450610ed7565b949350505050565b60006002600f54610100900460ff166002811115610f6657610f6661166a565b14610fb35760405162461bcd60e51b815260206004820152601760248201527f2073656e64207072697a652077726f6e6720737461746500000000000000000060448201526064016106f2565b600f54479060ff166110c457600080610fd46000546001600160a01b031690565b6001600160a01b03166064600b5485610fed91906118f3565b610ff7919061176a565b604051600081818185875af1925050503d8060008114611033576040519150601f19603f3d011682016040523d82523d6000602084013e611038565b606091505b50600f805460ff1916831515908117909155919350915060ff166110c1576000546001600160a01b03166001600160a01b03167f7a4c4fdf5d3172470d96d64c965b30de694852175efc7a6b546fb3bdbf76d1786064600b548661109c91906118f3565b6110a6919061176a565b60405190815260200160405180910390a26001935050505090565b50505b600354600a5460009182916001600160a01b03909116906064906110e890866118f3565b6110f2919061176a565b604051600081818185875af1925050503d806000811461112e576040519150601f19603f3d011682016040523d82523d6000602084013e611133565b606091505b50915091508161117e57600354600a546001600160a01b03909116907f977e2c32be07c8aa27bfe58f2bf200e11eca859b94d36e76e645fcaf1d4cc9469060649061109c90876118f3565b6000935050505090565b600080546001600160a01b038381166001600160a01b0319831681178455604051919092169283917f8be0079c531659141344cd1fd0a4f28419497f9722a3daafe3b4186f6b6457e09190a35050565b60005b60025460ff821610156113305760008060028360ff1681548110611201576112016118dd565b60009182526020822001546008546040516001600160a01b039092169290919081818185875af1925050503d8060008114611258576040519150601f19603f3d011682016040523d82523d6000602084013e61125d565b606091505b509150915060006009600060028660ff168154811061127e5761127e6118dd565b6000918252602080832091909101546001600160a01b031683528201929092526040019020805460ff19169115159190911790558161131b5760028360ff16815481106112cd576112cd6118dd565b600091825260209182902001546008546040519081526001600160a01b03909116917f1198b3902400a4722f08a21eb834e8f872109a5dab83213639d3670a10d8d40a910160405180910390a25b5050808061132890611912565b9150506111db565b50610952611425565b600260008154811061134d5761134d6118dd565b600091825260209091200154600280546001600160a01b0390921691600190811061137a5761137a6118dd565b600091825260209091200154600280546001600160a01b03909216916113a2906001906118b2565b815481106113b2576113b26118dd565b600091825260209182902001546040516bffffffffffffffffffffffff19606095861b81169382019390935292841b8216603484015290921b909116604882015244605c82015242607c820152609c0160408051601f1981840301815291905280516020909101206005556109526114cc565b60005b60025460ff821610156114975760006009600060028460ff1681548110611451576114516118dd565b6000918252602080832091909101546001600160a01b031683528201929092526040019020805460ff19169115159190911790558061148f81611912565b915050611428565b5060408051600081526020810191829052516114b5916002916115ae565b50600f80546000600e5561ffff1916610100179055565b60006005546000036115175760405162461bcd60e51b815260206004820152601460248201527363616e742066696e642072616e646f6d6e65737360601b60448201526064016106f2565b600254600554600091611529916118c9565b90506002818154811061153e5761153e6118dd565b600091825260209091200154600380546001600160a01b0319166001600160a01b03909216919091179055611571610f46565b91508160000361158757611583611425565b5050565b600e5461159590600161186b565b600e819055600303611583576000600e55611583611339565b828054828255906000526020600020908101928215611603579160200282015b8281111561160357825182546001600160a01b0319166001600160a01b039091161782556020909201916001909101906115ce565b5061160f929150611613565b5090565b5b8082111561160f5760008155600101611614565b60006020828403121561163a57600080fd5b81356001600160a01b0381168114610d9457600080fd5b60006020828403121561166357600080fd5b5035919050565b634e487b7160e01b600052602160045260246000fd5b60208101600383106116945761169461166a565b91905290565b60208101600283106116945761169461166a565b6000806000606084860312156116c357600080fd5b505081359360208301359350604090920135919050565b6000602082840312156116ec57600080fd5b5051919050565b60006020828403121561170557600080fd5b81518015158114610d9457600080fd5b6020808252600f908201526e131bdd1d195c9e4814dd1bdc1c1959608a1b604082015260600190565b634e487b7160e01b600052601260045260246000fd5b634e487b7160e01b600052601160045260246000fd5b6000826117795761177961173e565b500490565b60005b83811015611799578181015183820152602001611781565b838111156117a8576000848401525b50505050565b7f456e74727920666565206d75737420626520657175616c20746f3a20000000008152600082516117e681601c85016020870161177e565b630408ae8d60e31b601c939091019283015250602001919050565b602081526000825180602084015261182081604085016020870161177e565b601f01601f19169190910160400192915050565b6020808252601d908201527f43616e204e6f74207768696c65206c6f7474657279206f6e676f696e67000000604082015260600190565b6000821982111561187e5761187e611754565b500190565b60006001820161189557611895611754565b5060010190565b634e487b7160e01b600052604160045260246000fd5b6000828210156118c4576118c4611754565b500390565b6000826118d8576118d861173e565b500690565b634e487b7160e01b600052603260045260246000fd5b600081600019048311821515161561190d5761190d611754565b500290565b600060ff821660ff810361192857611928611754565b6001019291505056fea26469706673582212205cd9f90e1493b4cedc5a248f0671dff8b454e83aba69f58ffca93d9b7cc189c264736f6c634300080e0033","bytecodeSha1":"90d9b1609479d009a3b9b9e9d22e0d5b874dae81","compiler":{"evm_version":"istanbul","optimizer":{"enabled":true,"runs":200},"version":"0.8.14+commit.80d49f37"},"contractName":"MyLottery","language":"Solidity","natspec":{"kind":"dev","methods":{"owner()":{"details":"Returns the address of the current owner."},"renounceOwnership()":{"details":"Leaves the contract without owner. It will not be possible to call `onlyOwner` functions anymore. Can only be called by the current owner. NOTE: Renouncing ownership will leave the contract without an owner, thereby removing any functionality that is only available to the owner."},"transferOwnership(address)":{"details":"Transfers ownership of the contract to a new account (`newOwner`). Can only be called by the current owner."}},"version":1},"opcodes":"PUSH1 0x80 PUSH1 0x40 MSTORE PUSH1 0x4 CALLDATASIZE LT PUSH2 0x1EE JUMPI PUSH1 0x0 CALLDATALOAD PUSH1 0xE0 SHR DUP1 PUSH4 0x8DA5CB5B GT PUSH2 0x10D JUMPI DUP1 PUSH4 0xD718AEA9 GT PUSH2 0xA0 JUMPI DUP1 PUSH4 0xF2FDE38B GT PUSH2 0x6F JUMPI DUP1 PUSH4 0xF2FDE38B EQ PUSH2 0x51E JUMPI DUP1 PUSH4 0xF71D96CB EQ PUSH2 0x53E JUMPI DUP1 PUSH4 0xF8B2CB4F EQ PUSH2 0x55E JUMPI DUP1 PUSH4 0xFAEA18C6 EQ PUSH2 0x57E JUMPI DUP1 PUSH4 0xFE56F5A0 EQ PUSH2 0x594 JUMPI PUSH1 0x0 DUP1 REVERT JUMPDEST DUP1 PUSH4 0xD718AEA9 EQ PUSH2 0x4BE JUMPI DUP1 PUSH4 0xDDCA3F43 EQ PUSH2 0x4D3 JUMPI DUP1 PUSH4 0xEE44ABB2 EQ PUSH2 0x4E9 JUMPI DUP1 PUSH4 0xF2640E10 EQ PUSH2 0x4FE JUMPI PUSH1 0x0 DUP1 REVERT JUMPDEST DUP1 PUSH4 0xB4989917 GT PUSH2 0xDC JUMPI DUP1 PUSH4 0xB4989917 EQ PUSH2 0x42C JUMPI DUP1 PUSH4 0xBCDB446B EQ PUSH2 0x44C JUMPI DUP1 PUSH4 0xBE55C9C9 EQ PUSH2 0x461 JUMPI DUP1 PUSH4 0xCAA6FEA4 EQ PUSH2 0x491 JUMPI PUSH1 0x0 DUP1 REVERT JUMPDEST DUP1 PUSH4 0x8DA5CB5B EQ PUSH2 0x3CC JUMPI DUP1 PUSH4 0x95D12000 EQ PUSH2 0x3EA JUMPI DUP1 PUSH4 0x9BB57718 EQ PUSH2 0x400 JUMPI DUP1 PUSH4 0xA6D811EA EQ PUSH2 0x416 JUMPI PUSH1 0x0 DUP1 REVERT JUMPDEST DUP1 PUSH4 0x4FB2E45D GT PUSH2 0x185 JUMPI DUP1 PUSH4 0x69EBE78E GT PUSH2 0x154 JUMPI DUP1 PUSH4 0x69EBE78E EQ PUSH2 0x35F JUMPI DUP1 PUSH4 0x715018A6 EQ PUSH2 0x375 JUMPI DUP1 PUSH4 0x81447999 EQ PUSH2 0x38A JUMPI DUP1 PUSH4 0x81FB84FB EQ PUSH2 0x3B6 JUMPI PUSH1 0x0 DUP1 REVERT JUMPDEST DUP1 PUSH4 0x4FB2E45D EQ PUSH2 0x2F3 JUMPI DUP1 PUSH4 0x501D0780 EQ PUSH2 0x313 JUMPI DUP1 PUSH4 0x56923710 EQ PUSH2 0x329 JUMPI DUP1 PUSH4 0x59FE8C84 EQ PUSH2 0x349 JUMPI PUSH1 0x0 DUP1 REVERT JUMPDEST DUP1 PUSH4 0x36013189 GT PUSH2 0x1C1 JUMPI DUP1 PUSH4 0x36013189 EQ PUSH2 0x2A0 JUMPI DUP1 PUSH4 0x382E5E7A EQ PUSH2 0x2B6 JUMPI DUP1 PUSH4 0x4A8466E9 EQ PUSH2 0x2BE JUMPI DUP1 PUSH4 0x4F8C70CF EQ PUSH2 0x2D3 JUMPI PUSH1 0x0 DUP1 REVERT JUMPDEST DUP1 PUSH4 0x4283412 EQ PUSH2 0x1F3 JUMPI DUP1 PUSH4 0xB3FF280 EQ PUSH2 0x21C JUMPI DUP1 PUSH4 0x16114ACD EQ PUSH2 0x246 JUMPI DUP1 PUSH4 0x1C4695F4 EQ PUSH2 0x268 JUMPI JUMPDEST PUSH1 0x0 DUP1 REVERT JUMPDEST CALLVALUE DUP1 ISZERO PUSH2 0x1FF JUMPI PUSH1 0x0 DUP1 REVERT JUMPDEST POP PUSH2 0x209 PUSH1 0x7 SLOAD DUP2 JUMP JUMPDEST PUSH1 0x40 MLOAD SWAP1 DUP2 MSTORE PUSH1 0x20 ADD JUMPDEST PUSH1 0x40 MLOAD DUP1 SWAP2 SUB SWAP1 RETURN JUMPDEST CALLVALUE DUP1 ISZERO PUSH2 0x228 JUMPI PUSH1 0x0 DUP1 REVERT JUMPDEST POP PUSH1 0xF SLOAD PUSH2 0x236 SWAP1 PUSH1 0xFF AND DUP2 JUMP JUMPDEST PUSH1 0x40 MLOAD SWAP1 ISZERO ISZERO DUP2 MSTORE PUSH1 0x20 ADD PUSH2 0x213 JUMP JUMPDEST CALLVALUE DUP1 ISZERO PUSH2 0x252 JUMPI PUSH1 0x0 DUP1 REVERT JUMPDEST POP PUSH2 0x266 PUSH2 0x261 CALLDATASIZE PUSH1 0x4 PUSH2 0x1628 JUMP JUMPDEST PUSH2 0x5B4 JUMP JUMPDEST STOP JUMPDEST CALLVALUE DUP1 ISZERO PUSH2 0x274 JUMPI PUSH1 0x0 DUP1 REVERT JUMPDEST POP PUSH1 0x4 SLOAD PUSH2 0x288 SWAP1 PUSH1 0x1 PUSH1 0x1 PUSH1 0xA0 SHL SUB AND DUP2 JUMP JUMPDEST PUSH1 0x40 MLOAD PUSH1 0x1 PUSH1 0x1 PUSH1 0xA0 SHL SUB SWAP1 SWAP2 AND DUP2 MSTORE PUSH1 0x20 ADD PUSH2 0x213 JUMP JUMPDEST CALLVALUE DUP1 ISZERO PUSH2 0x2AC JUMPI PUSH1 0x0 DUP1 REVERT JUMPDEST POP PUSH2 0x209 PUSH1 0x5 SLOAD DUP2 JUMP JUMPDEST PUSH2 0x266 PUSH2 0x6A4 JUMP JUMPDEST CALLVALUE DUP1 ISZERO PUSH2 0x2CA JUMPI PUSH1 0x0 DUP1 REVERT JUMPDEST POP PUSH2 0x266 PUSH2 0x90F JUMP JUMPDEST CALLVALUE DUP1 ISZERO PUSH2 0x2DF JUMPI PUSH1 0x0 DUP1 REVERT JUMPDEST POP PUSH1 0x3 SLOAD PUSH2 0x288 SWAP1 PUSH1 0x1 PUSH1 0x1 PUSH1 0xA0 SHL SUB AND DUP2 JUMP JUMPDEST CALLVALUE DUP1 ISZERO PUSH2 0x2FF JUMPI PUSH1 0x0 DUP1 REVERT JUMPDEST POP PUSH2 0x266 PUSH2 0x30E CALLDATASIZE PUSH1 0x4 PUSH2 0x1628 JUMP JUMPDEST PUSH2 0x922 JUMP JUMPDEST CALLVALUE DUP1 ISZERO PUSH2 0x31F JUMPI PUSH1 0x0 DUP1 REVERT JUMPDEST POP PUSH2 0x209 PUSH1 0xD SLOAD DUP2 JUMP JUMPDEST CALLVALUE DUP1 ISZERO PUSH2 0x335 JUMPI PUSH1 0x0 DUP1 REVERT JUMPDEST POP PUSH2 0x266 PUSH2 0x344 CALLDATASIZE PUSH1 0x4 PUSH2 0x1651 JUMP JUMPDEST PUSH2 0x933 JUMP JUMPDEST CALLVALUE DUP1 ISZERO PUSH2 0x355 JUMPI PUSH1 0x0 DUP1 REVERT JUMPDEST POP PUSH2 0x209 PUSH1 0x8 SLOAD DUP2 JUMP JUMPDEST CALLVALUE DUP1 ISZERO PUSH2 0x36B JUMPI PUSH1 0x0 DUP1 REVERT JUMPDEST POP PUSH2 0x209 PUSH1 0x11 SLOAD DUP2 JUMP JUMPDEST CALLVALUE DUP1 ISZERO PUSH2 0x381 JUMPI PUSH1 0x0 DUP1 REVERT JUMPDEST POP PUSH2 0x266 PUSH2 0x940 JUMP JUMPDEST CALLVALUE DUP1 ISZERO PUSH2 0x396 JUMPI PUSH1 0x0 DUP1 REVERT JUMPDEST POP PUSH1 0xF SLOAD PUSH2 0x3A9 SWAP1 PUSH2 0x100 SWAP1 DIV PUSH1 0xFF AND DUP2 JUMP JUMPDEST PUSH1 0x40 MLOAD PUSH2 0x213 SWAP2 SWAP1 PUSH2 0x1680 JUMP JUMPDEST CALLVALUE DUP1 ISZERO PUSH2 0x3C2 JUMPI PUSH1 0x0 DUP1 REVERT JUMPDEST POP PUSH2 0x209 PUSH1 0xA SLOAD DUP2 JUMP JUMPDEST CALLVALUE DUP1 ISZERO PUSH2 0x3D8 JUMPI PUSH1 0x0 DUP1 REVERT JUMPDEST POP PUSH1 0x0 SLOAD PUSH1 0x1 PUSH1 0x1 PUSH1 0xA0 SHL SUB AND PUSH2 0x288 JUMP JUMPDEST CALLVALUE DUP1 ISZERO PUSH2 0x3F6 JUMPI PUSH1 0x0 DUP1 REVERT JUMPDEST POP PUSH2 0x209 PUSH1 0xB SLOAD DUP2 JUMP JUMPDEST CALLVALUE DUP1 ISZERO PUSH2 0x40C JUMPI PUSH1 0x0 DUP1 REVERT JUMPDEST POP PUSH2 0x209 PUSH1 0xC SLOAD DUP2 JUMP JUMPDEST CALLVALUE DUP1 ISZERO PUSH2 0x422 JUMPI PUSH1 0x0 DUP1 REVERT JUMPDEST POP PUSH2 0x209 PUSH1 0x6 SLOAD DUP2 JUMP JUMPDEST CALLVALUE DUP1 ISZERO PUSH2 0x438 JUMPI PUSH1 0x0 DUP1 REVERT JUMPDEST POP PUSH2 0x266 PUSH2 0x447 CALLDATASIZE PUSH1 0x4 PUSH2 0x1651 JUMP JUMPDEST PUSH2 0x954 JUMP JUMPDEST CALLVALUE DUP1 ISZERO PUSH2 0x458 JUMPI PUSH1 0x0 DUP1 REVERT JUMPDEST POP PUSH2 0x266 PUSH2 0x961 JUMP JUMPDEST CALLVALUE DUP1 ISZERO PUSH2 0x46D JUMPI PUSH1 0x0 DUP1 REVERT JUMPDEST POP PUSH2 0x236 PUSH2 0x47C CALLDATASIZE PUSH1 0x4 PUSH2 0x1628 JUMP JUMPDEST PUSH1 0x9 PUSH1 0x20 MSTORE PUSH1 0x0 SWAP1 DUP2 MSTORE PUSH1 0x40 SWAP1 KECCAK256 SLOAD PUSH1 0xFF AND DUP2 JUMP JUMPDEST CALLVALUE DUP1 ISZERO PUSH2 0x49D JUMPI PUSH1 0x0 DUP1 REVERT JUMPDEST POP PUSH1 0xF SLOAD PUSH2 0x4B1 SWAP1 PUSH3 0x10000 SWAP1 DIV PUSH1 0xFF AND DUP2 JUMP JUMPDEST PUSH1 0x40 MLOAD PUSH2 0x213 SWAP2 SWAP1 PUSH2 0x169A JUMP JUMPDEST CALLVALUE DUP1 ISZERO PUSH2 0x4CA JUMPI PUSH1 0x0 DUP1 REVERT JUMPDEST POP PUSH2 0x266 PUSH2 0x9D0 JUMP JUMPDEST CALLVALUE DUP1 ISZERO PUSH2 0x4DF JUMPI PUSH1 0x0 DUP1 REVERT JUMPDEST POP PUSH2 0x209 PUSH1 0x10 SLOAD DUP2 JUMP JUMPDEST CALLVALUE DUP1 ISZERO PUSH2 0x4F5 JUMPI PUSH1 0x0 DUP1 REVERT JUMPDEST POP PUSH2 0x266 PUSH2 0xAA0 JUMP JUMPDEST CALLVALUE DUP1 ISZERO PUSH2 0x50A JUMPI PUSH1 0x0 DUP1 REVERT JUMPDEST POP PUSH2 0x266 PUSH2 0x519 CALLDATASIZE PUSH1 0x4 PUSH2 0x16AE JUMP JUMPDEST PUSH2 0xB61 JUMP JUMPDEST CALLVALUE DUP1 ISZERO PUSH2 0x52A JUMPI PUSH1 0x0 DUP1 REVERT JUMPDEST POP PUSH2 0x266 PUSH2 0x539 CALLDATASIZE PUSH1 0x4 PUSH2 0x1628 JUMP JUMPDEST PUSH2 0xC87 JUMP JUMPDEST CALLVALUE DUP1 ISZERO PUSH2 0x54A JUMPI PUSH1 0x0 DUP1 REVERT JUMPDEST POP PUSH2 0x288 PUSH2 0x559 CALLDATASIZE PUSH1 0x4 PUSH2 0x1651 JUMP JUMPDEST PUSH2 0xCFD JUMP JUMPDEST CALLVALUE DUP1 ISZERO PUSH2 0x56A JUMPI PUSH1 0x0 DUP1 REVERT JUMPDEST POP PUSH2 0x209 PUSH2 0x579 CALLDATASIZE PUSH1 0x4 PUSH2 0x1628 JUMP JUMPDEST PUSH2 0xD27 JUMP JUMPDEST CALLVALUE DUP1 ISZERO PUSH2 0x58A JUMPI PUSH1 0x0 DUP1 REVERT JUMPDEST POP PUSH2 0x209 PUSH1 0xE SLOAD DUP2 JUMP JUMPDEST CALLVALUE DUP1 ISZERO PUSH2 0x5A0 JUMPI PUSH1 0x0 DUP1 REVERT JUMPDEST POP PUSH2 0x266 PUSH2 0x5AF CALLDATASIZE PUSH1 0x4 PUSH2 0x1651 JUMP JUMPDEST PUSH2 0xD9B JUMP JUMPDEST PUSH2 0x5BC PUSH2 0xDE3 JUMP JUMPDEST PUSH1 0x40 MLOAD PUSH4 0x70A08231 PUSH1 0xE0 SHL DUP2 MSTORE ADDRESS PUSH1 0x4 DUP3 ADD MSTORE DUP2 SWAP1 PUSH1 0x1 PUSH1 0x1 PUSH1 0xA0 SHL SUB DUP3 AND SWAP1 PUSH4 0xA9059CBB SWAP1 CALLER SWAP1 DUP4 SWAP1 PUSH4 0x70A08231 SWAP1 PUSH1 0x24 ADD PUSH1 0x20 PUSH1 0x40 MLOAD DUP1 DUP4 SUB DUP2 DUP7 GAS STATICCALL ISZERO DUP1 ISZERO PUSH2 0x60C JUMPI RETURNDATASIZE PUSH1 0x0 DUP1 RETURNDATACOPY RETURNDATASIZE PUSH1 0x0 REVERT JUMPDEST POP POP POP POP PUSH1 0x40 MLOAD RETURNDATASIZE PUSH1 0x1F NOT PUSH1 0x1F DUP3 ADD AND DUP3 ADD DUP1 PUSH1 0x40 MSTORE POP DUP2 ADD SWAP1 PUSH2 0x630 SWAP2 SWAP1 PUSH2 0x16DA JUMP JUMPDEST PUSH1 0x40 MLOAD PUSH1 0x1 PUSH1 0x1 PUSH1 0xE0 SHL SUB NOT PUSH1 0xE0 DUP6 SWAP1 SHL AND DUP2 MSTORE PUSH1 0x1 PUSH1 0x1 PUSH1 0xA0 SHL SUB SWAP1 SWAP3 AND PUSH1 0x4 DUP4 ADD MSTORE PUSH1 0x24 DUP3 ADD MSTORE PUSH1 0x44 ADD PUSH1 0x20 PUSH1 0x40 MLOAD DUP1 DUP4 SUB DUP2 PUSH1 0x0 DUP8 GAS CALL ISZERO DUP1 ISZERO PUSH2 0x67B JUMPI RETURNDATASIZE PUSH1 0x0 DUP1 RETURNDATACOPY RETURNDATASIZE PUSH1 0x0 REVERT JUMPDEST POP POP POP POP PUSH1 0x40 MLOAD RETURNDATASIZE PUSH1 0x1F NOT PUSH1 0x1F DUP3 ADD AND DUP3 ADD DUP1 PUSH1 0x40 MSTORE POP DUP2 ADD SWAP1 PUSH2 0x69F SWAP2 SWAP1 PUSH2 0x16F3 JUMP JUMPDEST POP POP POP JUMP JUMPDEST PUSH1 0x2 PUSH1 0x1 SLOAD SUB PUSH2 0x6FB JUMPI PUSH1 0x40 MLOAD PUSH3 0x461BCD PUSH1 0xE5 SHL DUP2 MSTORE PUSH1 0x20 PUSH1 0x4 DUP3 ADD MSTORE PUSH1 0x1F PUSH1 0x24 DUP3 ADD MSTORE PUSH32 0x5265656E7472616E637947756172643A207265656E7472616E742063616C6C00 PUSH1 0x44 DUP3 ADD MSTORE PUSH1 0x64 ADD JUMPDEST PUSH1 0x40 MLOAD DUP1 SWAP2 SUB SWAP1 REVERT JUMPDEST PUSH1 0x2 PUSH1 0x1 SSTORE CALLER PUSH1 0x0 SWAP1 DUP2 MSTORE PUSH1 0x9 PUSH1 0x20 MSTORE PUSH1 0x40 SWAP1 KECCAK256 SLOAD PUSH1 0xFF AND ISZERO PUSH2 0x752 JUMPI PUSH1 0x40 MLOAD PUSH3 0x461BCD PUSH1 0xE5 SHL DUP2 MSTORE PUSH1 0x20 PUSH1 0x4 DUP3 ADD MSTORE PUSH1 0xF PUSH1 0x24 DUP3 ADD MSTORE PUSH15 0x105B1C9958591E48195B9D195C9959 PUSH1 0x8A SHL PUSH1 0x44 DUP3 ADD MSTORE PUSH1 0x64 ADD PUSH2 0x6F2 JUMP JUMPDEST CALLER PUSH1 0x0 SWAP1 DUP2 MSTORE PUSH1 0x9 PUSH1 0x20 MSTORE PUSH1 0x40 DUP2 KECCAK256 DUP1 SLOAD PUSH1 0xFF NOT AND PUSH1 0x1 OR SWAP1 SSTORE PUSH1 0xF SLOAD PUSH2 0x100 SWAP1 DIV PUSH1 0xFF AND PUSH1 0x2 DUP2 GT ISZERO PUSH2 0x788 JUMPI PUSH2 0x788 PUSH2 0x166A JUMP JUMPDEST EQ PUSH2 0x7CB JUMPI PUSH1 0x40 MLOAD PUSH3 0x461BCD PUSH1 0xE5 SHL DUP2 MSTORE PUSH1 0x20 PUSH1 0x4 DUP3 ADD MSTORE PUSH1 0x13 PUSH1 0x24 DUP3 ADD MSTORE PUSH19 0x131BDD1D195C9E48139BDD081CDD185C9D1959 PUSH1 0x6A SHL PUSH1 0x44 DUP3 ADD MSTORE PUSH1 0x64 ADD PUSH2 0x6F2 JUMP JUMPDEST PUSH1 0x1 PUSH1 0xF SLOAD PUSH3 0x10000 SWAP1 DIV PUSH1 0xFF AND PUSH1 0x1 DUP2 GT ISZERO PUSH2 0x7EA JUMPI PUSH2 0x7EA PUSH2 0x166A JUMP JUMPDEST EQ PUSH2 0x807 JUMPI PUSH1 0x40 MLOAD PUSH3 0x461BCD PUSH1 0xE5 SHL DUP2 MSTORE PUSH1 0x4 ADD PUSH2 0x6F2 SWAP1 PUSH2 0x1715 JUMP JUMPDEST PUSH1 0x8 SLOAD CALLVALUE EQ PUSH2 0x82A PUSH8 0xDE0B6B3A7640000 PUSH1 0x8 SLOAD PUSH2 0x825 SWAP2 SWAP1 PUSH2 0x176A JUMP JUMPDEST PUSH2 0xE3D JUMP JUMPDEST PUSH1 0x40 MLOAD PUSH1 0x20 ADD PUSH2 0x83A SWAP2 SWAP1 PUSH2 0x17AE JUMP JUMPDEST PUSH1 0x40 MLOAD PUSH1 0x20 DUP2 DUP4 SUB SUB DUP2 MSTORE SWAP1 PUSH1 0x40 MSTORE SWAP1 PUSH2 0x867 JUMPI PUSH1 0x40 MLOAD PUSH3 0x461BCD PUSH1 0xE5 SHL DUP2 MSTORE PUSH1 0x4 ADD PUSH2 0x6F2 SWAP2 SWAP1 PUSH2 0x1801 JUMP JUMPDEST POP PUSH1 0x7 SLOAD PUSH1 0x2 SLOAD GT ISZERO PUSH2 0x8C8 JUMPI PUSH1 0x40 MLOAD PUSH3 0x461BCD PUSH1 0xE5 SHL DUP2 MSTORE PUSH1 0x20 PUSH1 0x4 DUP3 ADD MSTORE PUSH1 0x23 PUSH1 0x24 DUP3 ADD MSTORE PUSH32 0x4D6178696D756D204E756D626572207265616368656420666F7220206C6F7474 PUSH1 0x44 DUP3 ADD MSTORE PUSH3 0x657279 PUSH1 0xE8 SHL PUSH1 0x64 DUP3 ADD MSTORE PUSH1 0x84 ADD PUSH2 0x6F2 JUMP JUMPDEST PUSH1 0x2 DUP1 SLOAD PUSH1 0x1 DUP2 DUP2 ADD DUP4 SSTORE PUSH1 0x0 SWAP3 SWAP1 SWAP3 MSTORE PUSH32 0x405787FA12A823E0F2B7631CC41B3BA8828B3321CA811111FA75CD3AA3BB5ACE ADD DUP1 SLOAD PUSH1 0x1 PUSH1 0x1 PUSH1 0xA0 SHL SUB NOT AND CALLER OR SWAP1 SSTORE DUP1 SSTORE JUMP JUMPDEST PUSH2 0x917 PUSH2 0xDE3 JUMP JUMPDEST PUSH2 0x91F PUSH2 0xF46 JUMP JUMPDEST POP JUMP JUMPDEST PUSH2 0x92A PUSH2 0xDE3 JUMP JUMPDEST PUSH2 0x91F DUP2 PUSH2 0xC87 JUMP JUMPDEST PUSH2 0x93B PUSH2 0xDE3 JUMP JUMPDEST PUSH1 0x7 SSTORE JUMP JUMPDEST PUSH2 0x948 PUSH2 0xDE3 JUMP JUMPDEST PUSH2 0x952 PUSH1 0x0 PUSH2 0x1188 JUMP JUMPDEST JUMP JUMPDEST PUSH2 0x95C PUSH2 0xDE3 JUMP JUMPDEST PUSH1 0x6 SSTORE JUMP JUMPDEST PUSH2 0x969 PUSH2 0xDE3 JUMP JUMPDEST PUSH1 0x1 PUSH1 0xF SLOAD PUSH2 0x100 SWAP1 DIV PUSH1 0xFF AND PUSH1 0x2 DUP2 GT ISZERO PUSH2 0x987 JUMPI PUSH2 0x987 PUSH2 0x166A JUMP JUMPDEST EQ PUSH2 0x9A4 JUMPI PUSH1 0x40 MLOAD PUSH3 0x461BCD PUSH1 0xE5 SHL DUP2 MSTORE PUSH1 0x4 ADD PUSH2 0x6F2 SWAP1 PUSH2 0x1834 JUMP JUMPDEST PUSH1 0x40 MLOAD CALLER SWAP1 SELFBALANCE DUP1 ISZERO PUSH2 0x8FC MUL SWAP2 PUSH1 0x0 DUP2 DUP2 DUP2 DUP6 DUP9 DUP9 CALL SWAP4 POP POP POP POP ISZERO DUP1 ISZERO PUSH2 0x91F JUMPI RETURNDATASIZE PUSH1 0x0 DUP1 RETURNDATACOPY RETURNDATASIZE PUSH1 0x0 REVERT JUMPDEST PUSH2 0x9D8 PUSH2 0xDE3 JUMP JUMPDEST PUSH1 0x0 PUSH1 0xF SLOAD PUSH2 0x100 SWAP1 DIV PUSH1 0xFF AND PUSH1 0x2 DUP2 GT ISZERO PUSH2 0x9F6 JUMPI PUSH2 0x9F6 PUSH2 0x166A JUMP JUMPDEST EQ PUSH2 0xA39 JUMPI PUSH1 0x40 MLOAD PUSH3 0x461BCD PUSH1 0xE5 SHL DUP2 MSTORE PUSH1 0x20 PUSH1 0x4 DUP3 ADD MSTORE PUSH1 0x13 PUSH1 0x24 DUP3 ADD MSTORE PUSH19 0x131BDD1D195C9E48139BDD081CDD185C9D1959 PUSH1 0x6A SHL PUSH1 0x44 DUP3 ADD MSTORE PUSH1 0x64 ADD PUSH2 0x6F2 JUMP JUMPDEST PUSH1 0x1 PUSH1 0xF SLOAD PUSH3 0x10000 SWAP1 DIV PUSH1 0xFF AND PUSH1 0x1 DUP2 GT ISZERO PUSH2 0xA58 JUMPI PUSH2 0xA58 PUSH2 0x166A JUMP JUMPDEST EQ PUSH2 0xA75 JUMPI PUSH1 0x40 MLOAD PUSH3 0x461BCD PUSH1 0xE5 SHL DUP2 MSTORE PUSH1 0x4 ADD PUSH2 0x6F2 SWAP1 PUSH2 0x1715 JUMP JUMPDEST PUSH1 0x6 SLOAD PUSH1 0x2 SLOAD LT ISZERO PUSH2 0xA89 JUMPI PUSH2 0x952 PUSH2 0x11D8 JUMP JUMPDEST PUSH1 0xF DUP1 SLOAD PUSH2 0xFF00 NOT AND PUSH2 0x200 OR SWAP1 SSTORE PUSH2 0x952 PUSH2 0x1339 JUMP JUMPDEST PUSH2 0xAA8 PUSH2 0xDE3 JUMP JUMPDEST PUSH1 0x1 PUSH1 0xF SLOAD PUSH2 0x100 SWAP1 DIV PUSH1 0xFF AND PUSH1 0x2 DUP2 GT ISZERO PUSH2 0xAC6 JUMPI PUSH2 0xAC6 PUSH2 0x166A JUMP JUMPDEST EQ PUSH2 0xB13 JUMPI PUSH1 0x40 MLOAD PUSH3 0x461BCD PUSH1 0xE5 SHL DUP2 MSTORE PUSH1 0x20 PUSH1 0x4 DUP3 ADD MSTORE PUSH1 0x17 PUSH1 0x24 DUP3 ADD MSTORE PUSH32 0x4C6F747465727920416C72656164792073746172746564000000000000000000 PUSH1 0x44 DUP3 ADD MSTORE PUSH1 0x64 ADD PUSH2 0x6F2 JUMP JUMPDEST PUSH1 0x1 PUSH1 0xF SLOAD PUSH3 0x10000 SWAP1 DIV PUSH1 0xFF AND PUSH1 0x1 DUP2 GT ISZERO PUSH2 0xB32 JUMPI PUSH2 0xB32 PUSH2 0x166A JUMP JUMPDEST EQ PUSH2 0xB4F JUMPI PUSH1 0x40 MLOAD PUSH3 0x461BCD PUSH1 0xE5 SHL DUP2 MSTORE PUSH1 0x4 ADD PUSH2 0x6F2 SWAP1 PUSH2 0x1715 JUMP JUMPDEST PUSH1 0xF DUP1 SLOAD PUSH2 0xFF00 NOT AND SWAP1 SSTORE PUSH1 0x0 PUSH1 0x5 SSTORE JUMP JUMPDEST PUSH2 0xB69 PUSH2 0xDE3 JUMP JUMPDEST PUSH1 0x1 PUSH1 0xF SLOAD PUSH2 0x100 SWAP1 DIV PUSH1 0xFF AND PUSH1 0x2 DUP2 GT ISZERO PUSH2 0xB87 JUMPI PUSH2 0xB87 PUSH2 0x166A JUMP JUMPDEST EQ PUSH2 0xBA4 JUMPI PUSH1 0x40 MLOAD PUSH3 0x461BCD PUSH1 0xE5 SHL DUP2 MSTORE PUSH1 0x4 ADD PUSH2 0x6F2 SWAP1 PUSH2 0x1834 JUMP JUMPDEST PUSH1 0x1 PUSH1 0xF SLOAD PUSH2 0x100 SWAP1 DIV PUSH1 0xFF AND PUSH1 0x2 DUP2 GT ISZERO PUSH2 0xBC2 JUMPI PUSH2 0xBC2 PUSH2 0x166A JUMP JUMPDEST EQ PUSH2 0xBDF JUMPI PUSH1 0x40 MLOAD PUSH3 0x461BCD PUSH1 0xE5 SHL DUP2 MSTORE PUSH1 0x4 ADD PUSH2 0x6F2 SWAP1 PUSH2 0x1834 JUMP JUMPDEST PUSH1 0x64 DUP2 PUSH2 0xBEC DUP5 DUP7 PUSH2 0x186B JUMP JUMPDEST PUSH2 0xBF6 SWAP2 SWAP1 PUSH2 0x186B JUMP JUMPDEST GT ISZERO PUSH2 0xC37 JUMPI PUSH1 0x40 MLOAD PUSH3 0x461BCD PUSH1 0xE5 SHL DUP2 MSTORE PUSH1 0x20 PUSH1 0x4 DUP3 ADD MSTORE PUSH1 0x10 PUSH1 0x24 DUP3 ADD MSTORE PUSH16 0x63616E206E6F74206F7665722031303 PUSH1 0x84 SHL PUSH1 0x44 DUP3 ADD MSTORE PUSH1 0x64 ADD PUSH2 0x6F2 JUMP JUMPDEST PUSH1 0x32 DUP4 LT PUSH2 0xC79 JUMPI PUSH1 0x40 MLOAD PUSH3 0x461BCD PUSH1 0xE5 SHL DUP2 MSTORE PUSH1 0x20 PUSH1 0x4 DUP3 ADD MSTORE PUSH1 0xF PUSH1 0x24 DUP3 ADD MSTORE PUSH15 0x63616E206E6F74206C65737320353 PUSH1 0x8C SHL PUSH1 0x44 DUP3 ADD MSTORE PUSH1 0x64 ADD PUSH2 0x6F2 JUMP JUMPDEST PUSH1 0xA SWAP3 SWAP1 SWAP3 SSTORE PUSH1 0xB SSTORE PUSH1 0xC SSTORE JUMP JUMPDEST PUSH2 0xC8F PUSH2 0xDE3 JUMP JUMPDEST PUSH1 0x1 PUSH1 0x1 PUSH1 0xA0 SHL SUB DUP2 AND PUSH2 0xCF4 JUMPI PUSH1 0x40 MLOAD PUSH3 0x461BCD PUSH1 0xE5 SHL DUP2 MSTORE PUSH1 0x20 PUSH1 0x4 DUP3 ADD MSTORE PUSH1 0x26 PUSH1 0x24 DUP3 ADD MSTORE PUSH32 0x4F776E61626C653A206E6577206F776E657220697320746865207A65726F2061 PUSH1 0x44 DUP3 ADD MSTORE PUSH6 0x646472657373 PUSH1 0xD0 SHL PUSH1 0x64 DUP3 ADD MSTORE PUSH1 0x84 ADD PUSH2 0x6F2 JUMP JUMPDEST PUSH2 0x91F DUP2 PUSH2 0x1188 JUMP JUMPDEST PUSH1 0x2 DUP2 DUP2 SLOAD DUP2 LT PUSH2 0xD0D JUMPI PUSH1 0x0 DUP1 REVERT JUMPDEST PUSH1 0x0 SWAP2 DUP3 MSTORE PUSH1 0x20 SWAP1 SWAP2 KECCAK256 ADD SLOAD PUSH1 0x1 PUSH1 0x1 PUSH1 0xA0 SHL SUB AND SWAP1 POP DUP2 JUMP JUMPDEST PUSH1 0x40 MLOAD PUSH4 0x70A08231 PUSH1 0xE0 SHL DUP2 MSTORE ADDRESS PUSH1 0x4 DUP3 ADD MSTORE PUSH1 0x0 SWAP1 DUP2 SWAP1 PUSH1 0x1 PUSH1 0x1 PUSH1 0xA0 SHL SUB DUP5 AND SWAP1 PUSH4 0x70A08231 SWAP1 PUSH1 0x24 ADD PUSH1 0x20 PUSH1 0x40 MLOAD DUP1 DUP4 SUB DUP2 DUP7 GAS STATICCALL ISZERO DUP1 ISZERO PUSH2 0xD70 JUMPI RETURNDATASIZE PUSH1 0x0 DUP1 RETURNDATACOPY RETURNDATASIZE PUSH1 0x0 REVERT JUMPDEST POP POP POP POP PUSH1 0x40 MLOAD RETURNDATASIZE PUSH1 0x1F NOT PUSH1 0x1F DUP3 ADD AND DUP3 ADD DUP1 PUSH1 0x40 MSTORE POP DUP2 ADD SWAP1 PUSH2 0xD94 SWAP2 SWAP1 PUSH2 0x16DA JUMP JUMPDEST SWAP4 SWAP3 POP POP POP JUMP JUMPDEST PUSH2 0xDA3 PUSH2 0xDE3 JUMP JUMPDEST PUSH1 0x1 PUSH1 0xF SLOAD PUSH2 0x100 SWAP1 DIV PUSH1 0xFF AND PUSH1 0x2 DUP2 GT ISZERO PUSH2 0xDC1 JUMPI PUSH2 0xDC1 PUSH2 0x166A JUMP JUMPDEST EQ PUSH2 0xDDE JUMPI PUSH1 0x40 MLOAD PUSH3 0x461BCD PUSH1 0xE5 SHL DUP2 MSTORE PUSH1 0x4 ADD PUSH2 0x6F2 SWAP1 PUSH2 0x1834 JUMP JUMPDEST PUSH1 0x8 SSTORE JUMP JUMPDEST PUSH1 0x0 SLOAD PUSH1 0x1 PUSH1 0x1 PUSH1 0xA0 SHL SUB AND CALLER EQ PUSH2 0x952 JUMPI PUSH1 0x40 MLOAD PUSH3 0x461BCD PUSH1 0xE5 SHL DUP2 MSTORE PUSH1 0x20 PUSH1 0x4 DUP3 ADD DUP2 SWAP1 MSTORE PUSH1 0x24 DUP3 ADD MSTORE PUSH32 0x4F776E61626C653A2063616C6C6572206973206E6F7420746865206F776E6572 PUSH1 0x44 DUP3 ADD MSTORE PUSH1 0x64 ADD PUSH2 0x6F2 JUMP JUMPDEST PUSH1 0x60 DUP2 PUSH1 0x0 SUB PUSH2 0xE64 JUMPI POP POP PUSH1 0x40 DUP1 MLOAD DUP1 DUP3 ADD SWAP1 SWAP2 MSTORE PUSH1 0x1 DUP2 MSTORE PUSH1 0x3 PUSH1 0xFC SHL PUSH1 0x20 DUP3 ADD MSTORE SWAP1 JUMP JUMPDEST DUP2 PUSH1 0x0 JUMPDEST DUP2 ISZERO PUSH2 0xE8E JUMPI DUP1 PUSH2 0xE78 DUP2 PUSH2 0x1883 JUMP JUMPDEST SWAP2 POP PUSH2 0xE87 SWAP1 POP PUSH1 0xA DUP4 PUSH2 0x176A JUMP JUMPDEST SWAP2 POP PUSH2 0xE68 JUMP JUMPDEST PUSH1 0x0 DUP2 PUSH8 0xFFFFFFFFFFFFFFFF DUP2 GT ISZERO PUSH2 0xEA9 JUMPI PUSH2 0xEA9 PUSH2 0x189C JUMP JUMPDEST PUSH1 0x40 MLOAD SWAP1 DUP1 DUP3 MSTORE DUP1 PUSH1 0x1F ADD PUSH1 0x1F NOT AND PUSH1 0x20 ADD DUP3 ADD PUSH1 0x40 MSTORE DUP1 ISZERO PUSH2 0xED3 JUMPI PUSH1 0x20 DUP3 ADD DUP2 DUP1 CALLDATASIZE DUP4 CALLDATACOPY ADD SWAP1 POP JUMPDEST POP SWAP1 POP JUMPDEST DUP5 ISZERO PUSH2 0xF3E JUMPI PUSH2 0xEE8 PUSH1 0x1 DUP4 PUSH2 0x18B2 JUMP JUMPDEST SWAP2 POP PUSH2 0xEF5 PUSH1 0xA DUP7 PUSH2 0x18C9 JUMP JUMPDEST PUSH2 0xF00 SWAP1 PUSH1 0x30 PUSH2 0x186B JUMP JUMPDEST PUSH1 0xF8 SHL DUP2 DUP4 DUP2 MLOAD DUP2 LT PUSH2 0xF15 JUMPI PUSH2 0xF15 PUSH2 0x18DD JUMP JUMPDEST PUSH1 0x20 ADD ADD SWAP1 PUSH1 0x1 PUSH1 0x1 PUSH1 0xF8 SHL SUB NOT AND SWAP1 DUP2 PUSH1 0x0 BYTE SWAP1 MSTORE8 POP PUSH2 0xF37 PUSH1 0xA DUP7 PUSH2 0x176A JUMP JUMPDEST SWAP5 POP PUSH2 0xED7 JUMP JUMPDEST SWAP5 SWAP4 POP POP POP POP JUMP JUMPDEST PUSH1 0x0 PUSH1 0x2 PUSH1 0xF SLOAD PUSH2 0x100 SWAP1 DIV PUSH1 0xFF AND PUSH1 0x2 DUP2 GT ISZERO PUSH2 0xF66 JUMPI PUSH2 0xF66 PUSH2 0x166A JUMP JUMPDEST EQ PUSH2 0xFB3 JUMPI PUSH1 0x40 MLOAD PUSH3 0x461BCD PUSH1 0xE5 SHL DUP2 MSTORE PUSH1 0x20 PUSH1 0x4 DUP3 ADD MSTORE PUSH1 0x17 PUSH1 0x24 DUP3 ADD MSTORE PUSH32 0x2073656E64207072697A652077726F6E67207374617465000000000000000000 PUSH1 0x44 DUP3 ADD MSTORE PUSH1 0x64 ADD PUSH2 0x6F2 JUMP JUMPDEST PUSH1 0xF SLOAD SELFBALANCE SWAP1 PUSH1 0xFF AND PUSH2 0x10C4 JUMPI PUSH1 0x0 DUP1 PUSH2 0xFD4 PUSH1 0x0 SLOAD PUSH1 0x1 PUSH1 0x1 PUSH1 0xA0 SHL SUB AND SWAP1 JUMP JUMPDEST PUSH1 0x1 PUSH1 0x1 PUSH1 0xA0 SHL SUB AND PUSH1 0x64 PUSH1 0xB SLOAD DUP6 PUSH2 0xFED SWAP2 SWAP1 PUSH2 0x18F3 JUMP JUMPDEST PUSH2 0xFF7 SWAP2 SWAP1 PUSH2 0x176A JUMP JUMPDEST PUSH1 0x40 MLOAD PUSH1 0x0 DUP2 DUP2 DUP2 DUP6 DUP8 GAS CALL SWAP3 POP POP POP RETURNDATASIZE DUP1 PUSH1 0x0 DUP2 EQ PUSH2 0x1033 JUMPI PUSH1 0x40 MLOAD SWAP2 POP PUSH1 0x1F NOT PUSH1 0x3F RETURNDATASIZE ADD AND DUP3 ADD PUSH1 0x40 MSTORE RETURNDATASIZE DUP3 MSTORE RETURNDATASIZE PUSH1 0x0 PUSH1 0x20 DUP5 ADD RETURNDATACOPY PUSH2 0x1038 JUMP JUMPDEST PUSH1 0x60 SWAP2 POP JUMPDEST POP PUSH1 0xF DUP1 SLOAD PUSH1 0xFF NOT AND DUP4 ISZERO ISZERO SWAP1 DUP2 OR SWAP1 SWAP2 SSTORE SWAP2 SWAP4 POP SWAP2 POP PUSH1 0xFF AND PUSH2 0x10C1 JUMPI PUSH1 0x0 SLOAD PUSH1 0x1 PUSH1 0x1 PUSH1 0xA0 SHL SUB AND PUSH1 0x1 PUSH1 0x1 PUSH1 0xA0 SHL SUB AND PUSH32 0x7A4C4FDF5D3172470D96D64C965B30DE694852175EFC7A6B546FB3BDBF76D178 PUSH1 0x64 PUSH1 0xB SLOAD DUP7 PUSH2 0x109C SWAP2 SWAP1 PUSH2 0x18F3 JUMP JUMPDEST PUSH2 0x10A6 SWAP2 SWAP1 PUSH2 0x176A JUMP JUMPDEST PUSH1 0x40 MLOAD SWAP1 DUP2 MSTORE PUSH1 0x20 ADD PUSH1 0x40 MLOAD DUP1 SWAP2 SUB SWAP1 LOG2 PUSH1 0x1 SWAP4 POP POP POP POP SWAP1 JUMP JUMPDEST POP POP JUMPDEST PUSH1 0x3 SLOAD PUSH1 0xA SLOAD PUSH1 0x0 SWAP2 DUP3 SWAP2 PUSH1 0x1 PUSH1 0x1 PUSH1 0xA0 SHL SUB SWAP1 SWAP2 AND SWAP1 PUSH1 0x64 SWAP1 PUSH2 0x10E8 SWAP1 DUP7 PUSH2 0x18F3 JUMP JUMPDEST PUSH2 0x10F2 SWAP2 SWAP1 PUSH2 0x176A JUMP JUMPDEST PUSH1 0x40 MLOAD PUSH1 0x0 DUP2 DUP2 DUP2 DUP6 DUP8 GAS CALL SWAP3 POP POP POP RETURNDATASIZE DUP1 PUSH1 0x0 DUP2 EQ PUSH2 0x112E JUMPI PUSH1 0x40 MLOAD SWAP2 POP PUSH1 0x1F NOT PUSH1 0x3F RETURNDATASIZE ADD AND DUP3 ADD PUSH1 0x40 MSTORE RETURNDATASIZE DUP3 MSTORE RETURNDATASIZE PUSH1 0x0 PUSH1 0x20 DUP5 ADD RETURNDATACOPY PUSH2 0x1133 JUMP JUMPDEST PUSH1 0x60 SWAP2 POP JUMPDEST POP SWAP2 POP SWAP2 POP DUP2 PUSH2 0x117E JUMPI PUSH1 0x3 SLOAD PUSH1 0xA SLOAD PUSH1 0x1 PUSH1 0x1 PUSH1 0xA0 SHL SUB SWAP1 SWAP2 AND SWAP1 PUSH32 0x977E2C32BE07C8AA27BFE58F2BF200E11ECA859B94D36E76E645FCAF1D4CC946 SWAP1 PUSH1 0x64 SWAP1 PUSH2 0x109C SWAP1 DUP8 PUSH2 0x18F3 JUMP JUMPDEST PUSH1 0x0 SWAP4 POP POP POP POP SWAP1 JUMP JUMPDEST PUSH1 0x0 DUP1 SLOAD PUSH1 0x1 PUSH1 0x1 PUSH1 0xA0 SHL SUB DUP4 DUP2 AND PUSH1 0x1 PUSH1 0x1 PUSH1 0xA0 SHL SUB NOT DUP4 AND DUP2 OR DUP5 SSTORE PUSH1 0x40 MLOAD SWAP2 SWAP1 SWAP3 AND SWAP3 DUP4 SWAP2 PUSH32 0x8BE0079C531659141344CD1FD0A4F28419497F9722A3DAAFE3B4186F6B6457E0 SWAP2 SWAP1 LOG3 POP POP JUMP JUMPDEST PUSH1 0x0 JUMPDEST PUSH1 0x2 SLOAD PUSH1 0xFF DUP3 AND LT ISZERO PUSH2 0x1330 JUMPI PUSH1 0x0 DUP1 PUSH1 0x2 DUP4 PUSH1 0xFF AND DUP2 SLOAD DUP2 LT PUSH2 0x1201 JUMPI PUSH2 0x1201 PUSH2 0x18DD JUMP JUMPDEST PUSH1 0x0 SWAP2 DUP3 MSTORE PUSH1 0x20 DUP3 KECCAK256 ADD SLOAD PUSH1 0x8 SLOAD PUSH1 0x40 MLOAD PUSH1 0x1 PUSH1 0x1 PUSH1 0xA0 SHL SUB SWAP1 SWAP3 AND SWAP3 SWAP1 SWAP2 SWAP1 DUP2 DUP2 DUP2 DUP6 DUP8 GAS CALL SWAP3 POP POP POP RETURNDATASIZE DUP1 PUSH1 0x0 DUP2 EQ PUSH2 0x1258 JUMPI PUSH1 0x40 MLOAD SWAP2 POP PUSH1 0x1F NOT PUSH1 0x3F RETURNDATASIZE ADD AND DUP3 ADD PUSH1 0x40 MSTORE RETURNDATASIZE DUP3 MSTORE RETURNDATASIZE PUSH1 0x0 PUSH1 0x20 DUP5 ADD RETURNDATACOPY PUSH2 0x125D JUMP JUMPDEST PUSH1 0x60 SWAP2 POP JUMPDEST POP SWAP2 POP SWAP2 POP PUSH1 0x0 PUSH1 0x9 PUSH1 0x0 PUSH1 0x2 DUP7 PUSH1 0xFF AND DUP2 SLOAD DUP2 LT PUSH2 0x127E JUMPI PUSH2 0x127E PUSH2 0x18DD JUMP JUMPDEST PUSH1 0x0 SWAP2 DUP3 MSTORE PUSH1 0x20 DUP1 DUP4 KECCAK256 SWAP2 SWAP1 SWAP2 ADD SLOAD PUSH1 0x1 PUSH1 0x1 PUSH1 0xA0 SHL SUB AND DUP4 MSTORE DUP3 ADD SWAP3 SWAP1 SWAP3 MSTORE PUSH1 0x40 ADD SWAP1 KECCAK256 DUP1 SLOAD PUSH1 0xFF NOT AND SWAP2 ISZERO ISZERO SWAP2 SWAP1 SWAP2 OR SWAP1 SSTORE DUP2 PUSH2 0x131B JUMPI PUSH1 0x2 DUP4 PUSH1 0xFF AND DUP2 SLOAD DUP2 LT PUSH2 0x12CD JUMPI PUSH2 0x12CD PUSH2 0x18DD JUMP JUMPDEST PUSH1 0x0 SWAP2 DUP3 MSTORE PUSH1 0x20 SWAP2 DUP3 SWAP1 KECCAK256 ADD SLOAD PUSH1 0x8 SLOAD PUSH1 0x40 MLOAD SWAP1 DUP2 MSTORE PUSH1 0x1 PUSH1 0x1 PUSH1 0xA0 SHL SUB SWAP1 SWAP2 AND SWAP2 PUSH32 0x1198B3902400A4722F08A21EB834E8F872109A5DAB83213639D3670A10D8D40A SWAP2 ADD PUSH1 0x40 MLOAD DUP1 SWAP2 SUB SWAP1 LOG2 JUMPDEST POP POP DUP1 DUP1 PUSH2 0x1328 SWAP1 PUSH2 0x1912 JUMP JUMPDEST SWAP2 POP POP PUSH2 0x11DB JUMP JUMPDEST POP PUSH2 0x952 PUSH2 0x1425 JUMP JUMPDEST PUSH1 0x2 PUSH1 0x0 DUP2 SLOAD DUP2 LT PUSH2 0x134D JUMPI PUSH2 0x134D PUSH2 0x18DD JUMP JUMPDEST PUSH1 0x0 SWAP2 DUP3 MSTORE PUSH1 0x20 SWAP1 SWAP2 KECCAK256 ADD SLOAD PUSH1 0x2 DUP1 SLOAD PUSH1 0x1 PUSH1 0x1 PUSH1 0xA0 SHL SUB SWAP1 SWAP3 AND SWAP2 PUSH1 0x1 SWAP1 DUP2 LT PUSH2 0x137A JUMPI PUSH2 0x137A PUSH2 0x18DD JUMP JUMPDEST PUSH1 0x0 SWAP2 DUP3 MSTORE PUSH1 0x20 SWAP1 SWAP2 KECCAK256 ADD SLOAD PUSH1 0x2 DUP1 SLOAD PUSH1 0x1 PUSH1 0x1 PUSH1 0xA0 SHL SUB SWAP1 SWAP3 AND SWAP2 PUSH2 0x13A2 SWAP1 PUSH1 0x1 SWAP1 PUSH2 0x18B2 JUMP JUMPDEST DUP2 SLOAD DUP2 LT PUSH2 0x13B2 JUMPI PUSH2 0x13B2 PUSH2 0x18DD JUMP JUMPDEST PUSH1 0x0 SWAP2 DUP3 MSTORE PUSH1 0x20 SWAP2 DUP3 SWAP1 KECCAK256 ADD SLOAD PUSH1 0x40 MLOAD PUSH12 0xFFFFFFFFFFFFFFFFFFFFFFFF NOT PUSH1 0x60 SWAP6 DUP7 SHL DUP2 AND SWAP4 DUP3 ADD SWAP4 SWAP1 SWAP4 MSTORE SWAP3 DUP5 SHL DUP3 AND PUSH1 0x34 DUP5 ADD MSTORE SWAP1 SWAP3 SHL SWAP1 SWAP2 AND PUSH1 0x48 DUP3 ADD MSTORE DIFFICULTY PUSH1 0x5C DUP3 ADD MSTORE TIMESTAMP PUSH1 0x7C DUP3 ADD MSTORE PUSH1 0x9C ADD PUSH1 0x40 DUP1 MLOAD PUSH1 0x1F NOT DUP2 DUP5 SUB ADD DUP2 MSTORE SWAP2 SWAP1 MSTORE DUP1 MLOAD PUSH1 0x20 SWAP1 SWAP2 ADD KECCAK256 PUSH1 0x5 SSTORE PUSH2 0x952 PUSH2 0x14CC JUMP JUMPDEST PUSH1 0x0 JUMPDEST PUSH1 0x2 SLOAD PUSH1 0xFF DUP3 AND LT ISZERO PUSH2 0x1497 JUMPI PUSH1 0x0 PUSH1 0x9 PUSH1 0x0 PUSH1 0x2 DUP5 PUSH1 0xFF AND DUP2 SLOAD DUP2 LT PUSH2 0x1451 JUMPI PUSH2 0x1451 PUSH2 0x18DD JUMP JUMPDEST PUSH1 0x0 SWAP2 DUP3 MSTORE PUSH1 0x20 DUP1 DUP4 KECCAK256 SWAP2 SWAP1 SWAP2 ADD SLOAD PUSH1 0x1 PUSH1 0x1 PUSH1 0xA0 SHL SUB AND DUP4 MSTORE DUP3 ADD SWAP3 SWAP1 SWAP3 MSTORE PUSH1 0x40 ADD SWAP1 KECCAK256 DUP1 SLOAD PUSH1 0xFF NOT AND SWAP2 ISZERO ISZERO SWAP2 SWAP1 SWAP2 OR SWAP1 SSTORE DUP1 PUSH2 0x148F DUP2 PUSH2 0x1912 JUMP JUMPDEST SWAP2 POP POP PUSH2 0x1428 JUMP JUMPDEST POP PUSH1 0x40 DUP1 MLOAD PUSH1 0x0 DUP2 MSTORE PUSH1 0x20 DUP2 ADD SWAP2 DUP3 SWAP1 MSTORE MLOAD PUSH2 0x14B5 SWAP2 PUSH1 0x2 SWAP2 PUSH2 0x15AE JUMP JUMPDEST POP PUSH1 0xF DUP1 SLOAD PUSH1 0x0 PUSH1 0xE SSTORE PUSH2 0xFFFF NOT AND PUSH2 0x100 OR SWAP1 SSTORE JUMP JUMPDEST PUSH1 0x0 PUSH1 0x5 SLOAD PUSH1 0x0 SUB PUSH2 0x1517 JUMPI PUSH1 0x40 MLOAD PUSH3 0x461BCD PUSH1 0xE5 SHL DUP2 MSTORE PUSH1 0x20 PUSH1 0x4 DUP3 ADD MSTORE PUSH1 0x14 PUSH1 0x24 DUP3 ADD MSTORE PUSH20 0x63616E742066696E642072616E646F6D6E657373 PUSH1 0x60 SHL PUSH1 0x44 DUP3 ADD MSTORE PUSH1 0x64 ADD PUSH2 0x6F2 JUMP JUMPDEST PUSH1 0x2 SLOAD PUSH1 0x5 SLOAD PUSH1 0x0 SWAP2 PUSH2 0x1529 SWAP2 PUSH2 0x18C9 JUMP JUMPDEST SWAP1 POP PUSH1 0x2 DUP2 DUP2 SLOAD DUP2 LT PUSH2 0x153E JUMPI PUSH2 0x153E PUSH2 0x18DD JUMP JUMPDEST PUSH1 0x0 SWAP2 DUP3 MSTORE PUSH1 0x20 SWAP1 SWAP2 KECCAK256 ADD SLOAD PUSH1 0x3 DUP1 SLOAD PUSH1 0x1 PUSH1 0x1 PUSH1 0xA0 SHL SUB NOT AND PUSH1 0x1 PUSH1 0x1 PUSH1 0xA0 SHL SUB SWAP1 SWAP3 AND SWAP2 SWAP1 SWAP2 OR SWAP1 SSTORE PUSH2 0x1571 PUSH2 0xF46 JUMP JUMPDEST SWAP2 POP DUP2 PUSH1 0x0 SUB PUSH2 0x1587 JUMPI PUSH2 0x1583 PUSH2 0x1425 JUMP JUMPDEST POP POP JUMP JUMPDEST PUSH1 0xE SLOAD PUSH2 0x1595 SWAP1 PUSH1 0x1 PUSH2 0x186B JUMP JUMPDEST PUSH1 0xE DUP2 SWAP1 SSTORE PUSH1 0x3 SUB PUSH2 0x1583 JUMPI PUSH1 0x0 PUSH1 0xE SSTORE PUSH2 0x1583 PUSH2 0x1339 JUMP JUMPDEST DUP3 DUP1 SLOAD DUP3 DUP3 SSTORE SWAP1 PUSH1 0x0 MSTORE PUSH1 0x20 PUSH1 0x0 KECCAK256 SWAP1 DUP2 ADD SWAP3 DUP3 ISZERO PUSH2 0x1603 JUMPI SWAP2 PUSH1 0x20 MUL DUP3 ADD JUMPDEST DUP3 DUP2 GT ISZERO PUSH2 0x1603 JUMPI DUP3 MLOAD DUP3 SLOAD PUSH1 0x1 PUSH1 0x1 PUSH1 0xA0 SHL SUB NOT AND PUSH1 0x1 PUSH1 0x1 PUSH1 0xA0 SHL SUB SWAP1 SWAP2 AND OR DUP3 SSTORE PUSH1 0x20 SWAP1 SWAP3 ADD SWAP2 PUSH1 0x1 SWAP1 SWAP2 ADD SWAP1 PUSH2 0x15CE JUMP JUMPDEST POP PUSH2 0x160F SWAP3 SWAP2 POP PUSH2 0x1613 JUMP JUMPDEST POP SWAP1 JUMP JUMPDEST JUMPDEST DUP1 DUP3 GT ISZERO PUSH2 0x160F JUMPI PUSH1 0x0 DUP2 SSTORE PUSH1 0x1 ADD PUSH2 0x1614 JUMP JUMPDEST PUSH1 0x0 PUSH1 0x20 DUP3 DUP5 SUB SLT ISZERO PUSH2 0x163A JUMPI PUSH1 0x0 DUP1 REVERT JUMPDEST DUP2 CALLDATALOAD PUSH1 0x1 PUSH1 0x1 PUSH1 0xA0 SHL SUB DUP2 AND DUP2 EQ PUSH2 0xD94 JUMPI PUSH1 0x0 DUP1 REVERT JUMPDEST PUSH1 0x0 PUSH1 0x20 DUP3 DUP5 SUB SLT ISZERO PUSH2 0x1663 JUMPI PUSH1 0x0 DUP1 REVERT JUMPDEST POP CALLDATALOAD SWAP2 SWAP1 POP JUMP JUMPDEST PUSH4 0x4E487B71 PUSH1 0xE0 SHL PUSH1 0x0 MSTORE PUSH1 0x21 PUSH1 0x4 MSTORE PUSH1 0x24 PUSH1 0x0 REVERT JUMPDEST PUSH1 0x20 DUP2 ADD PUSH1 0x3 DUP4 LT PUSH2 0x1694 JUMPI PUSH2 0x1694 PUSH2 0x166A JUMP JUMPDEST SWAP2 SWAP1 MSTORE SWAP1 JUMP JUMPDEST PUSH1 0x20 DUP2 ADD PUSH1 0x2 DUP4 LT PUSH2 0x1694 JUMPI PUSH2 0x1694 PUSH2 0x166A JUMP JUMPDEST PUSH1 0x0 DUP1 PUSH1 0x0 PUSH1 0x60 DUP5 DUP7 SUB SLT ISZERO PUSH2 0x16C3 JUMPI PUSH1 0x0 DUP1 REVERT JUMPDEST POP POP DUP2 CALLDATALOAD SWAP4 PUSH1 0x20 DUP4 ADD CALLDATALOAD SWAP4 POP PUSH1 0x40 SWAP1 SWAP3 ADD CALLDATALOAD SWAP2 SWAP1 POP JUMP JUMPDEST PUSH1 0x0 PUSH1 0x20 DUP3 DUP5 SUB SLT ISZERO PUSH2 0x16EC JUMPI PUSH1 0x0 DUP1 REVERT JUMPDEST POP MLOAD SWAP2 SWAP1 POP JUMP JUMPDEST PUSH1 0x0 PUSH1 0x20 DUP3 DUP5 SUB SLT ISZERO PUSH2 0x1705 JUMPI PUSH1 0x0 DUP1 REVERT JUMPDEST DUP2 MLOAD DUP1 ISZERO ISZERO DUP2 EQ PUSH2 0xD94 JUMPI PUSH1 0x0 DUP1 REVERT JUMPDEST PUSH1 0x20 DUP1 DUP3 MSTORE PUSH1 0xF SWAP1 DUP3 ADD MSTORE PUSH15 0x131BDD1D195C9E4814DD1BDC1C1959 PUSH1 0x8A SHL PUSH1 0x40 DUP3 ADD MSTORE PUSH1 0x60 ADD SWAP1 JUMP JUMPDEST PUSH4 0x4E487B71 PUSH1 0xE0 SHL PUSH1 0x0 MSTORE PUSH1 0x12 PUSH1 0x4 MSTORE PUSH1 0x24 PUSH1 0x0 REVERT JUMPDEST PUSH4 0x4E487B71 PUSH1 0xE0 SHL PUSH1 0x0 MSTORE PUSH1 0x11 PUSH1 0x4 MSTORE PUSH1 0x24 PUSH1 0x0 REVERT JUMPDEST PUSH1 0x0 DUP3 PUSH2 0x1779 JUMPI PUSH2 0x1779 PUSH2 0x173E JUMP JUMPDEST POP DIV SWAP1 JUMP JUMPDEST PUSH1 0x0 JUMPDEST DUP4 DUP2 LT ISZERO PUSH2 0x1799 JUMPI DUP2 DUP2 ADD MLOAD DUP4 DUP3 ADD MSTORE PUSH1 0x20 ADD PUSH2 0x1781 JUMP JUMPDEST DUP4 DUP2 GT ISZERO PUSH2 0x17A8 JUMPI PUSH1 0x0 DUP5 DUP5 ADD MSTORE JUMPDEST POP POP POP POP JUMP JUMPDEST PUSH32 0x456E74727920666565206D75737420626520657175616C20746F3A2000000000 DUP2 MSTORE PUSH1 0x0 DUP3 MLOAD PUSH2 0x17E6 DUP2 PUSH1 0x1C DUP6 ADD PUSH1 0x20 DUP8 ADD PUSH2 0x177E JUMP JUMPDEST PUSH4 0x408AE8D PUSH1 0xE3 SHL PUSH1 0x1C SWAP4 SWAP1 SWAP2 ADD SWAP3 DUP4 ADD MSTORE POP PUSH1 0x20 ADD SWAP2 SWAP1 POP JUMP JUMPDEST PUSH1 0x20 DUP2 MSTORE PUSH1 0x0 DUP3 MLOAD DUP1 PUSH1 0x20 DUP5 ADD MSTORE PUSH2 0x1820 DUP2 PUSH1 0x40 DUP6 ADD PUSH1 0x20 DUP8 ADD PUSH2 0x177E JUMP JUMPDEST PUSH1 0x1F ADD PUSH1 0x1F NOT AND SWAP2 SWAP1 SWAP2 ADD PUSH1 0x40 ADD SWAP3 SWAP2 POP POP JUMP JUMPDEST PUSH1 0x20 DUP1 DUP3 MSTORE PUSH1 0x1D SWAP1 DUP3 ADD MSTORE PUSH32 0x43616E204E6F74207768696C65206C6F7474657279206F6E676F696E67000000 PUSH1 0x40 DUP3 ADD MSTORE PUSH1 0x60 ADD SWAP1 JUMP JUMPDEST PUSH1 0x0 DUP3 NOT DUP3 GT ISZERO PUSH2 0x187E JUMPI PUSH2 0x187E PUSH2 0x1754 JUMP JUMPDEST POP ADD SWAP1 JUMP JUMPDEST PUSH1 0x0 PUSH1 0x1 DUP3 ADD PUSH2 0x1895 JUMPI PUSH2 0x1895 PUSH2 0x1754 JUMP JUMPDEST POP PUSH1 0x1 ADD SWAP1 JUMP JUMPDEST PUSH4 0x4E487B71 PUSH1 0xE0 SHL PUSH1 0x0 MSTORE PUSH1 0x41 PUSH1 0x4 MSTORE PUSH1 0x24 PUSH1 0x0 REVERT JUMPDEST PUSH1 0x0 DUP3 DUP3 LT ISZERO PUSH2 0x18C4 JUMPI PUSH2 0x18C4 PUSH2 0x1754 JUMP JUMPDEST POP SUB SWAP1 JUMP JUMPDEST PUSH1 0x0 DUP3 PUSH2 0x18D8 JUMPI PUSH2 0x18D8 PUSH2 0x173E JUMP JUMPDEST POP MOD SWAP1 JUMP JUMPDEST PUSH4 0x4E487B71 PUSH1 0xE0 SHL PUSH1 0x0 MSTORE PUSH1 0x32 PUSH1 0x4 MSTORE PUSH1 0x24 PUSH1 0x0 REVERT JUMPDEST PUSH1 0x0 DUP2 PUSH1 0x0 NOT DIV DUP4 GT DUP3 ISZERO ISZERO AND ISZERO PUSH2 0x190D JUMPI PUSH2 0x190D PUSH2 0x1754 JUMP JUMPDEST POP MUL SWAP1 JUMP JUMPDEST PUSH1 0x0 PUSH1 0xFF DUP3 AND PUSH1 0xFF DUP2 SUB PUSH2 0x1928 JUMPI PUSH2 0x1928 PUSH2 0x1754 JUMP JUMPDEST PUSH1 0x1 ADD SWAP3 SWAP2 POP POP JUMP INVALID LOG2 PUSH5 0x6970667358 0x22 SLT KECCAK256 0x5C 0xD9 0xF9 0xE EQ SWAP4 0xB4 0xCE 0xDC GAS 0x24 DUP16 MOD PUSH18 0xDFF8B454E83ABA69F58FFCA93D9B7CC189C2 PUSH5 0x736F6C6343 STOP ADDMOD 0xE STOP CALLER ","sha1":"17eab91578d9ddeec3aa337896f11684dc82f9ab","source":"pragma solidity ^0.8.13;\n\n//import \"@openzeppelin/contracts/token/ERC20/ERC20.sol\";\nimport \"@openzeppelin/contracts/access/Ownable.sol\";\nimport \"@openzeppelin/contracts/security/ReentrancyGuard.sol\";\n//import \"@chainlink/contracts/src/v0.8/interfaces/AggregatorV3Interface.sol\";\nimport \"@chainlink/contracts/src/v0.8/VRFConsumerBase.sol\";\nimport \"@openzeppelin/contracts/utils/Strings.sol\";\n\ninterface IERC20 {\n    function totalSupply() external view returns (uint256);\n\n    function balanceOf(address account) external view returns (uint256);\n\n    function transfer(address recipient, uint256 amount)\n        external\n        returns (bool);\n\n    function allowance(address owner, address spender)\n        external\n        view\n        returns (uint256);\n\n    function approve(address spender, uint256 amount) external returns (bool);\n\n    function transferFrom(\n        address sender,\n        address recipient,\n        uint256 amount\n    ) external returns (bool);\n\n    event Transfer(address indexed from, address indexed to, uint256 value);\n    event Approval(\n        address indexed owner,\n        address indexed spender,\n        uint256 value\n    );\n}\n\ncontract MyLottery is Ownable, ReentrancyGuard {\n    address payable[] public players;\n    address payable public recentWinner;\n    address public link;\n    uint256 public randomness;\n    uint256 public minumumParticipants;\n    uint256 public maximumParticipants;\n    uint256 public EntryFee;\n    mapping(address => bool) public isUserEntered;\n    //AggregatorV3Interface internal ethUsdPriceFeed;\n    uint256 public pricePercent;\n    uint256 public ownerPercent;\n    uint256 public contractPercent;\n    uint256 public maxTryCounter;\n    uint256 public errorFlag;\n    bool public ownerSent;\n    //bool public winnerSent;\n\n    //timestamp ekliyip closeda required bilmem kac saat geçmeden bitemez\n\n    //maxTryCounter  end lottery icin calismali\n    //CALCULATING_WINNER da takilabilir\n    //lottery no id filan belki 1 le başlıyıp artırıp\n    // kazanan için emit event tutar filan\n    //hiç kimse katılmamışsa end lotterye gerek yok ilerde python schedule event lazım olucak\n\n    enum LOTTERY_STATE {\n        OPEN,\n        CLOSED,\n        CALCULATING_WINNER\n    }\n    LOTTERY_STATE public lottery_state;\n\n    enum EMERGENCY {\n        STOPPED,\n        NOT_STOPPED\n    }\n    EMERGENCY public emergency;\n    uint256 public fee;\n    bytes32 public keyhash;\n    event RequestedRandomness(bytes32 requestId);\n    //event ethSendError(address cannotEthSend);\n    event cantSendEthOwner(address indexed to, uint256 value);\n    event cantSendEthWinner(address indexed to, uint256 value);\n    event cantSendEthParticipants(address indexed to, uint256 value);\n\n    // 0\n    // 1\n    // 2\n\n    constructor() public {\n        EntryFee = 0.05 * (10**18); //bura deiscek\n        lottery_state = LOTTERY_STATE.CLOSED;\n        emergency = EMERGENCY.NOT_STOPPED;\n        minumumParticipants = 3;\n        maximumParticipants = 100;\n        pricePercent = 65;\n        ownerPercent = 20;\n        contractPercent = 15;\n        maxTryCounter = 3;\n    }\n\n    /*nonReentrant*/\n    function enter_lottery() public payable nonReentrant {\n        require(isUserEntered[msg.sender] == false, \"Already entered\");\n        isUserEntered[msg.sender] = true;\n        require(lottery_state == LOTTERY_STATE.OPEN, \"Lottery Not started\");\n        require(emergency == EMERGENCY.NOT_STOPPED, \"Lottery Stopped\");\n        require(\n            msg.value == EntryFee,\n            string.concat(\n                \"Entry fee must be equal to: \",\n                Strings.toString((EntryFee / (10**18))),\n                \" Eth\"\n            )\n        );\n        require(\n            players.length <= maximumParticipants,\n            \"Maximum Number reached for  lottery\"\n        );\n\n        players.push(payable(msg.sender));\n    }\n\n    function start_lottery() public onlyOwner {\n        require(\n            lottery_state == LOTTERY_STATE.CLOSED,\n            \"Lottery Already started\"\n        );\n        require(emergency == EMERGENCY.NOT_STOPPED, \"Lottery Stopped\");\n        lottery_state = LOTTERY_STATE.OPEN;\n        randomness = 0;\n    }\n\n    function end_lottery() public onlyOwner {\n        require(lottery_state == LOTTERY_STATE.OPEN, \"Lottery Not started\");\n        require(emergency == EMERGENCY.NOT_STOPPED, \"Lottery Stopped\");\n        //some\n        //timestamp requirede gerekiyor\n        if (players.length < minumumParticipants) {\n            not_enough_participant();\n        } else {\n            lottery_state = LOTTERY_STATE.CALCULATING_WINNER;\n            calculate_winner();\n        }\n\n        //ERC20 yeterli link var mı diye kontrol et\n    }\n\n    //if cant find winner something happens buna gerek kalmadi sanki\n    /*function retry_winner() public onlyOwner {\n        require(\n            lottery_state == LOTTERY_STATE.CALCULATING_WINNER,\n            \"wrong state\"\n        );\n        require(randomness == 0, \"not random\");\n        calculate_winner();\n    }*/\n\n    function calculate_winner() internal {\n        //if players.length>\n\n        //another random not very very random\n\n        randomness = uint256(\n            keccak256(\n                abi.encodePacked(\n                    players[0], //  seenable\n                    players[1],\n                    players[players.length - 1],\n                    block.difficulty, // can actually be manipulated by the miners!\n                    block.timestamp // timestamp is predictable\n                )\n            )\n        );\n        afterFinish();\n    }\n\n    function setPrizePercents(\n        uint256 _pricePercent,\n        uint256 _ownerPercent,\n        uint256 _contractPercent\n    ) external onlyOwner {\n        require(\n            lottery_state == LOTTERY_STATE.CLOSED,\n            \"Can Not while lottery ongoing\"\n        );\n        require(\n            lottery_state == LOTTERY_STATE.CLOSED,\n            \"Can Not while lottery ongoing\"\n        );\n        require(\n            _pricePercent + _ownerPercent + _contractPercent <= 100,\n            \"can not over 100\"\n        );\n        require(_pricePercent < 50, \"can not less 50\");\n        pricePercent = _pricePercent;\n        ownerPercent = _ownerPercent;\n        contractPercent = _contractPercent;\n    }\n\n    function setMinumumParticipants(uint256 _minumumParticipants)\n        external\n        onlyOwner\n    {\n        minumumParticipants = _minumumParticipants;\n    }\n\n    function setEntranceFee(uint256 _entryFee) external onlyOwner {\n        require(\n            lottery_state == LOTTERY_STATE.CLOSED,\n            \"Can Not while lottery ongoing\"\n        );\n        EntryFee = _entryFee;\n    }\n\n    function setMaximumParticipants(uint256 _maximumParticipants)\n        external\n        onlyOwner\n    {\n        maximumParticipants = _maximumParticipants;\n    }\n\n    function getBalance(address _tokenContractAddress)\n        public\n        view\n        returns (uint256)\n    {\n        uint256 balance = IERC20(_tokenContractAddress).balanceOf(\n            address(this)\n        );\n        return balance;\n    }\n\n    function recoverEth() external onlyOwner {\n        require(\n            lottery_state == LOTTERY_STATE.CLOSED,\n            \"Can Not while lottery ongoing\"\n        );\n        payable(msg.sender).transfer(address(this).balance);\n    }\n\n    function recoverTokens(address tokenAddress) external onlyOwner {\n        IERC20 token = IERC20(tokenAddress);\n        token.transfer(msg.sender, token.balanceOf(address(this)));\n    }\n\n    function afterFinish() internal {\n        //mapping clear unutma\n        uint256 sentFlag = 0;\n        require(randomness != 0, \"cant find randomness\");\n        uint256 indexOfWinner = randomness % players.length;\n        recentWinner = players[indexOfWinner];\n\n        sentFlag = sendPrizes();\n\n        if (sentFlag == 0) {\n            clearPlayers();\n        } else {\n            errorFlag = errorFlag + 1;\n            if (errorFlag == 3) {\n                errorFlag = 0;\n                calculate_winner(); //yeni winner secicez\n            }\n        }\n\n        //require(sent, \"Failed to send Ether\");\n    }\n\n    function retrySendPrizes() external onlyOwner {\n        sendPrizes();\n    }\n\n    function sendPrizes() internal returns (uint256) {\n        require(\n            lottery_state == LOTTERY_STATE.CALCULATING_WINNER,\n            \" send prize wrong state\"\n        );\n        uint256 total_prize = address(this).balance;\n        if (\n            !ownerSent\n        ) //recentWinner.transfer(total_prize * (pricePercent / 100));\n        {\n            (bool sent, bytes memory data) = owner().call{\n                value: (total_prize * ownerPercent) / 100\n            }(\"\");\n            ownerSent = sent;\n            if (!ownerSent) {\n                emit cantSendEthOwner(\n                    owner(),\n                    (total_prize * ownerPercent) / 100\n                );\n                return 1;\n            }\n        }\n\n        (bool sent, bytes memory data) = recentWinner.call{\n            value: (total_prize * pricePercent) / 100\n        }(\"\");\n        if (!sent) {\n            emit cantSendEthWinner(\n                recentWinner,\n                (total_prize * pricePercent) / 100\n            );\n            return 1;\n        }\n        return 0;\n    }\n\n    /*function test(address sender)\n        external\n        returns (\n            uint256,\n            uint256,\n            uint256\n        )\n    {\n        uint256 total_prize = address(this).balance;\n        (bool sent, bytes memory data) = sender.call{\n            value: ((total_prize * pricePercent) / 100)\n        }(\"\");\n        require(sent, \"Failed to send Ether\");\n        uint256 calc_prize = total_prize * (pricePercent / 100);\n        return (calc_prize, total_prize, pricePercent);\n    }*/\n\n    function not_enough_participant() internal {\n        for (uint8 i = 0; i < players.length; i++) {\n            //players[i].transfer(EntryFee);\n            // burasi değişecek\n            (bool sent, bytes memory data) = players[i].call{value: EntryFee}(\n                \"\"\n            );\n            isUserEntered[players[i]] = false;\n            //require(sent, \"Failed to send Ether\");\n            if (!sent) {\n                emit cantSendEthParticipants(players[i], EntryFee);\n            }\n        }\n        clearPlayers();\n    }\n\n    function transferOwner(address newOwner) external onlyOwner {\n        transferOwnership(newOwner);\n    }\n\n    function clearPlayers() internal {\n        for (uint8 i = 0; i < players.length; i++) {\n            isUserEntered[players[i]] = false;\n        }\n        players = new address payable[](0);\n        lottery_state = LOTTERY_STATE.CLOSED;\n        errorFlag = 0;\n        ownerSent = false;\n        //randomness = 0;\n    }\n}\n","sourcePath":"contracts/MyLottery.sol","type":"contract","deployment":{"address":"0x17c932216dfB1cF17f2BFF5812BeB886586e41C4","chainid":"97","blockHeight":22553299}}