{
    "bytecode": "608060405234801561001057600080fd5b5061001a33610067565b6001805566b1a2bc2ec500006007556010805462ffff0019166201010017905560036005819055606460065560416009556014600a55600f600b819055600c9190915561012c90556100b7565b600080546001600160a01b038381166001600160a01b0319831681178455604051919092169283917f8be0079c531659141344cd1fd0a4f28419497f9722a3daafe3b4186f6b6457e09190a35050565b611a5d806100c66000396000f3fe6080604052600436106102045760003560e01c80638da5cb5b11610118578063d718aea9116100a0578063f2fde38b1161006f578063f2fde38b14610560578063f71d96cb14610580578063f8b2cb4f146105a0578063faea18c6146105c0578063fe56f5a0146105d657600080fd5b8063d718aea914610500578063ddca3f4314610515578063ee44abb21461052b578063f2640e101461054057600080fd5b8063b4989917116100e7578063b498991714610458578063bcdb446b14610478578063be55c9c91461048d578063caa6fea4146104bd578063cd8cc844146104ea57600080fd5b80638da5cb5b146103f857806395d12000146104165780639bb577181461042c578063a6d811ea1461044257600080fd5b80634f8c70cf1161019b57806359fe8c841161016a57806359fe8c841461037557806369ebe78e1461038b578063715018a6146103a157806381447999146103b657806381fb84fb146103e257600080fd5b80634f8c70cf146102e75780634fb2e45d1461031f578063501d07801461033f578063569237101461035557600080fd5b80632d97902f116101d75780632d97902f1461029e57806336013189146102b4578063382e5e7a146102ca5780634a8466e9146102d257600080fd5b806304283412146102095780630b3ff2801461023257806316114acd1461025c5780632b58150b1461027e575b600080fd5b34801561021557600080fd5b5061021f60065481565b6040519081526020015b60405180910390f35b34801561023e57600080fd5b5060105461024c9060ff1681565b6040519015158152602001610229565b34801561026857600080fd5b5061027c6102773660046116e7565b6105f6565b005b34801561028a57600080fd5b5061027c610299366004611710565b6106e6565b3480156102aa57600080fd5b5061021f600f5481565b3480156102c057600080fd5b5061021f60045481565b61027c6106f3565b3480156102de57600080fd5b5061027c61091f565b3480156102f357600080fd5b50600354610307906001600160a01b031681565b6040516001600160a01b039091168152602001610229565b34801561032b57600080fd5b5061027c61033a3660046116e7565b610932565b34801561034b57600080fd5b5061021f600c5481565b34801561036157600080fd5b5061027c610370366004611710565b610943565b34801561038157600080fd5b5061021f60075481565b34801561039757600080fd5b5061021f60125481565b3480156103ad57600080fd5b5061027c610950565b3480156103c257600080fd5b506010546103d590610100900460ff1681565b604051610229919061173f565b3480156103ee57600080fd5b5061021f60095481565b34801561040457600080fd5b506000546001600160a01b0316610307565b34801561042257600080fd5b5061021f600a5481565b34801561043857600080fd5b5061021f600b5481565b34801561044e57600080fd5b5061021f60055481565b34801561046457600080fd5b5061027c610473366004611710565b610964565b34801561048457600080fd5b5061027c610971565b34801561049957600080fd5b5061024c6104a83660046116e7565b60086020526000908152604090205460ff1681565b3480156104c957600080fd5b506010546104dd9062010000900460ff1681565b6040516102299190611759565b3480156104f657600080fd5b5061021f600e5481565b34801561050c57600080fd5b5061027c6109e0565b34801561052157600080fd5b5061021f60115481565b34801561053757600080fd5b5061027c610b38565b34801561054c57600080fd5b5061027c61055b36600461176d565b610c20565b34801561056c57600080fd5b5061027c61057b3660046116e7565b610d46565b34801561058c57600080fd5b5061030761059b366004611710565b610dbc565b3480156105ac57600080fd5b5061021f6105bb3660046116e7565b610de6565b3480156105cc57600080fd5b5061021f600d5481565b3480156105e257600080fd5b5061027c6105f1366004611710565b610e5a565b6105fe610ea2565b6040516370a0823160e01b815230600482015281906001600160a01b0382169063a9059cbb90339083906370a0823190602401602060405180830381865afa15801561064e573d6000803e3d6000fd5b505050506040513d601f19601f820116820180604052508101906106729190611799565b6040516001600160e01b031960e085901b1681526001600160a01b03909216600483015260248201526044016020604051808303816000875af11580156106bd573d6000803e3d6000fd5b505050506040513d601f19601f820116820180604052508101906106e191906117b2565b505050565b6106ee610ea2565b600f55565b60026001540361071e5760405162461bcd60e51b8152600401610715906117d4565b60405180910390fd5b60026001553360009081526008602052604090205460ff16156107755760405162461bcd60e51b815260206004820152600f60248201526e105b1c9958591e48195b9d195c9959608a1b6044820152606401610715565b336000908152600860205260408120805460ff19166001179055601054610100900460ff1660028111156107ab576107ab611729565b146107ee5760405162461bcd60e51b8152602060048201526013602482015272131bdd1d195c9e48139bdd081cdd185c9d1959606a1b6044820152606401610715565b600160105462010000900460ff16600181111561080d5761080d611729565b1461082a5760405162461bcd60e51b81526004016107159061180b565b600754341461083a600754610efc565b60405160200161084a9190611864565b604051602081830303815290604052906108775760405162461bcd60e51b815260040161071591906118b7565b5060065460025411156108d85760405162461bcd60e51b815260206004820152602360248201527f4d6178696d756d204e756d626572207265616368656420666f7220206c6f747460448201526265727960e81b6064820152608401610715565b60028054600181810183556000929092527f405787fa12a823e0f2b7631cc41b3ba8828b3321ca811111fa75cd3aa3bb5ace0180546001600160a01b031916331790558055565b610927610ea2565b61092f611005565b50565b61093a610ea2565b61092f81610d46565b61094b610ea2565b600655565b610958610ea2565b6109626000611247565b565b61096c610ea2565b600555565b610979610ea2565b6001601054610100900460ff16600281111561099757610997611729565b146109b45760405162461bcd60e51b8152600401610715906118ea565b60405133904780156108fc02916000818181858888f1935050505015801561092f573d6000803e3d6000fd5b600260015403610a025760405162461bcd60e51b8152600401610715906117d4565b60026001556000601054610100900460ff166002811115610a2557610a25611729565b14610a685760405162461bcd60e51b8152602060048201526013602482015272131bdd1d195c9e48139bdd081cdd185c9d1959606a1b6044820152606401610715565b600160105462010000900460ff166001811115610a8757610a87611729565b14610aa45760405162461bcd60e51b81526004016107159061180b565b600f54600e54610ab49190611937565b4211610b025760405162461bcd60e51b815260206004820152601f60248201527f6d696e206c6f7474657279206475726174696f6e206e6f7420706173736564006044820152606401610715565b6005546002541015610b1b57610b16611297565b610b32565b6010805461ff001916610200179055610b326113f8565b60018055565b600260015403610b5a5760405162461bcd60e51b8152600401610715906117d4565b60026001908155601054610100900460ff166002811115610b7d57610b7d611729565b14610bca5760405162461bcd60e51b815260206004820152601760248201527f4c6f747465727920416c726561647920737461727465640000000000000000006044820152606401610715565b600160105462010000900460ff166001811115610be957610be9611729565b14610c065760405162461bcd60e51b81526004016107159061180b565b6010805461ff0019169055600060045542600e5560018055565b610c28610ea2565b6001601054610100900460ff166002811115610c4657610c46611729565b14610c635760405162461bcd60e51b8152600401610715906118ea565b6001601054610100900460ff166002811115610c8157610c81611729565b14610c9e5760405162461bcd60e51b8152600401610715906118ea565b606481610cab8486611937565b610cb59190611937565b1115610cf65760405162461bcd60e51b815260206004820152601060248201526f063616e206e6f74206f766572203130360841b6044820152606401610715565b60328310610d385760405162461bcd60e51b815260206004820152600f60248201526e063616e206e6f74206c65737320353608c1b6044820152606401610715565b600992909255600a55600b55565b610d4e610ea2565b6001600160a01b038116610db35760405162461bcd60e51b815260206004820152602660248201527f4f776e61626c653a206e6577206f776e657220697320746865207a65726f206160448201526564647265737360d01b6064820152608401610715565b61092f81611247565b60028181548110610dcc57600080fd5b6000918252602090912001546001600160a01b0316905081565b6040516370a0823160e01b815230600482015260009081906001600160a01b038416906370a0823190602401602060405180830381865afa158015610e2f573d6000803e3d6000fd5b505050506040513d601f19601f82011682018060405250810190610e539190611799565b9392505050565b610e62610ea2565b6001601054610100900460ff166002811115610e8057610e80611729565b14610e9d5760405162461bcd60e51b8152600401610715906118ea565b600755565b6000546001600160a01b031633146109625760405162461bcd60e51b815260206004820181905260248201527f4f776e61626c653a2063616c6c6572206973206e6f7420746865206f776e65726044820152606401610715565b606081600003610f235750506040805180820190915260018152600360fc1b602082015290565b8160005b8115610f4d5780610f378161194f565b9150610f469050600a8361197e565b9150610f27565b60008167ffffffffffffffff811115610f6857610f68611992565b6040519080825280601f01601f191660200182016040528015610f92576020820181803683370190505b5090505b8415610ffd57610fa76001836119a8565b9150610fb4600a866119bf565b610fbf906030611937565b60f81b818381518110610fd457610fd46119d3565b60200101906001600160f81b031916908160001a905350610ff6600a8661197e565b9450610f96565b949350505050565b60006002601054610100900460ff16600281111561102557611025611729565b146110725760405162461bcd60e51b815260206004820152601760248201527f2073656e64207072697a652077726f6e672073746174650000000000000000006044820152606401610715565b601054479060ff16611183576000806110936000546001600160a01b031690565b6001600160a01b03166064600a54856110ac91906119e9565b6110b6919061197e565b604051600081818185875af1925050503d80600081146110f2576040519150601f19603f3d011682016040523d82523d6000602084013e6110f7565b606091505b506010805460ff1916831515908117909155919350915060ff16611180576000546001600160a01b03166001600160a01b03167f7a4c4fdf5d3172470d96d64c965b30de694852175efc7a6b546fb3bdbf76d1786064600a548661115b91906119e9565b611165919061197e565b60405190815260200160405180910390a26001935050505090565b50505b60035460095460009182916001600160a01b03909116906064906111a790866119e9565b6111b1919061197e565b604051600081818185875af1925050503d80600081146111ed576040519150601f19603f3d011682016040523d82523d6000602084013e6111f2565b606091505b50915091508161123d576003546009546001600160a01b03909116907f977e2c32be07c8aa27bfe58f2bf200e11eca859b94d36e76e645fcaf1d4cc9469060649061115b90876119e9565b6000935050505090565b600080546001600160a01b038381166001600160a01b0319831681178455604051919092169283917f8be0079c531659141344cd1fd0a4f28419497f9722a3daafe3b4186f6b6457e09190a35050565b60005b60025460ff821610156113ef5760008060028360ff16815481106112c0576112c06119d3565b60009182526020822001546007546040516001600160a01b039092169290919081818185875af1925050503d8060008114611317576040519150601f19603f3d011682016040523d82523d6000602084013e61131c565b606091505b509150915060006008600060028660ff168154811061133d5761133d6119d3565b6000918252602080832091909101546001600160a01b031683528201929092526040019020805460ff1916911515919091179055816113da5760028360ff168154811061138c5761138c6119d3565b600091825260209182902001546007546040519081526001600160a01b03909116917f1198b3902400a4722f08a21eb834e8f872109a5dab83213639d3670a10d8d40a910160405180910390a25b505080806113e790611a08565b91505061129a565b506109626114e4565b600260008154811061140c5761140c6119d3565b600091825260209091200154600280546001600160a01b03909216916001908110611439576114396119d3565b600091825260209091200154600280546001600160a01b0390921691611461906001906119a8565b81548110611471576114716119d3565b600091825260209182902001546040516bffffffffffffffffffffffff19606095861b81169382019390935292841b8216603484015290921b909116604882015244605c82015242607c820152609c0160408051601f19818403018152919052805160209091012060045561096261158b565b60005b60025460ff821610156115565760006008600060028460ff1681548110611510576115106119d3565b6000918252602080832091909101546001600160a01b031683528201929092526040019020805460ff19169115159190911790558061154e81611a08565b9150506114e7565b5060408051600081526020810191829052516115749160029161166d565b50601080546000600d5561ffff1916610100179055565b60006004546000036115d65760405162461bcd60e51b815260206004820152601460248201527363616e742066696e642072616e646f6d6e65737360601b6044820152606401610715565b6002546004546000916115e8916119bf565b9050600281815481106115fd576115fd6119d3565b600091825260209091200154600380546001600160a01b0319166001600160a01b03909216919091179055611630611005565b915081600003611646576116426114e4565b5050565b600d54611654906001611937565b600d819055600303611642576000600d556116426113f8565b8280548282559060005260206000209081019282156116c2579160200282015b828111156116c257825182546001600160a01b0319166001600160a01b0390911617825560209092019160019091019061168d565b506116ce9291506116d2565b5090565b5b808211156116ce57600081556001016116d3565b6000602082840312156116f957600080fd5b81356001600160a01b0381168114610e5357600080fd5b60006020828403121561172257600080fd5b5035919050565b634e487b7160e01b600052602160045260246000fd5b602081016003831061175357611753611729565b91905290565b602081016002831061175357611753611729565b60008060006060848603121561178257600080fd5b505081359360208301359350604090920135919050565b6000602082840312156117ab57600080fd5b5051919050565b6000602082840312156117c457600080fd5b81518015158114610e5357600080fd5b6020808252601f908201527f5265656e7472616e637947756172643a207265656e7472616e742063616c6c00604082015260600190565b6020808252600f908201526e131bdd1d195c9e4814dd1bdc1c1959608a1b604082015260600190565b60005b8381101561184f578181015183820152602001611837565b8381111561185e576000848401525b50505050565b7f456e74727920666565206d75737420626520657175616c20746f3a200000000081526000825161189c81601c850160208701611834565b630408ae8d60e31b601c939091019283015250602001919050565b60208152600082518060208401526118d6816040850160208701611834565b601f01601f19169190910160400192915050565b6020808252601d908201527f43616e204e6f74207768696c65206c6f7474657279206f6e676f696e67000000604082015260600190565b634e487b7160e01b600052601160045260246000fd5b6000821982111561194a5761194a611921565b500190565b60006001820161196157611961611921565b5060010190565b634e487b7160e01b600052601260045260246000fd5b60008261198d5761198d611968565b500490565b634e487b7160e01b600052604160045260246000fd5b6000828210156119ba576119ba611921565b500390565b6000826119ce576119ce611968565b500690565b634e487b7160e01b600052603260045260246000fd5b6000816000190483118215151615611a0357611a03611921565b500290565b600060ff821660ff8103611a1e57611a1e611921565b6001019291505056fea26469706673582212208b46c627e6b76f1225cd27a0f5eca081456248a46c3af05feb18087e601b1a5564736f6c634300080e0033",
    "bytecodeSha1": "142cc0323ee34ced4ed960d281a7f3ebe5227472",
    "type": "contract",
    "abi": [
        {
            "inputs": [],
            "stateMutability": "nonpayable",
            "type": "constructor",
            "name": "constructor"
        },
        {
            "anonymous": false,
            "inputs": [
                {
                    "indexed": true,
                    "internalType": "address",
                    "name": "previousOwner",
                    "type": "address"
                },
                {
                    "indexed": true,
                    "internalType": "address",
                    "name": "newOwner",
                    "type": "address"
                }
            ],
            "name": "OwnershipTransferred",
            "type": "event"
        },
        {
            "anonymous": false,
            "inputs": [
                {
                    "indexed": false,
                    "internalType": "bytes32",
                    "name": "requestId",
                    "type": "bytes32"
                }
            ],
            "name": "RequestedRandomness",
            "type": "event"
        },
        {
            "anonymous": false,
            "inputs": [
                {
                    "indexed": true,
                    "internalType": "address",
                    "name": "to",
                    "type": "address"
                },
                {
                    "indexed": false,
                    "internalType": "uint256",
                    "name": "value",
                    "type": "uint256"
                }
            ],
            "name": "cantSendEthOwner",
            "type": "event"
        },
        {
            "anonymous": false,
            "inputs": [
                {
                    "indexed": true,
                    "internalType": "address",
                    "name": "to",
                    "type": "address"
                },
                {
                    "indexed": false,
                    "internalType": "uint256",
                    "name": "value",
                    "type": "uint256"
                }
            ],
            "name": "cantSendEthParticipants",
            "type": "event"
        },
        {
            "anonymous": false,
            "inputs": [
                {
                    "indexed": true,
                    "internalType": "address",
                    "name": "to",
                    "type": "address"
                },
                {
                    "indexed": false,
                    "internalType": "uint256",
                    "name": "value",
                    "type": "uint256"
                }
            ],
            "name": "cantSendEthWinner",
            "type": "event"
        },
        {
            "inputs": [],
            "name": "EntryFee",
            "outputs": [
                {
                    "internalType": "uint256",
                    "name": "",
                    "type": "uint256"
                }
            ],
            "stateMutability": "view",
            "type": "function"
        },
        {
            "inputs": [],
            "name": "contractPercent",
            "outputs": [
                {
                    "internalType": "uint256",
                    "name": "",
                    "type": "uint256"
                }
            ],
            "stateMutability": "view",
            "type": "function"
        },
        {
            "inputs": [],
            "name": "emergency",
            "outputs": [
                {
                    "internalType": "enum MyLottery.EMERGENCY",
                    "name": "",
                    "type": "uint8"
                }
            ],
            "stateMutability": "view",
            "type": "function"
        },
        {
            "inputs": [],
            "name": "end_lottery",
            "outputs": [],
            "stateMutability": "nonpayable",
            "type": "function"
        },
        {
            "inputs": [],
            "name": "enter_lottery",
            "outputs": [],
            "stateMutability": "payable",
            "type": "function"
        },
        {
            "inputs": [],
            "name": "errorFlag",
            "outputs": [
                {
                    "internalType": "uint256",
                    "name": "",
                    "type": "uint256"
                }
            ],
            "stateMutability": "view",
            "type": "function"
        },
        {
            "inputs": [],
            "name": "fee",
            "outputs": [
                {
                    "internalType": "uint256",
                    "name": "",
                    "type": "uint256"
                }
            ],
            "stateMutability": "view",
            "type": "function"
        },
        {
            "inputs": [
                {
                    "internalType": "address",
                    "name": "_tokenContractAddress",
                    "type": "address"
                }
            ],
            "name": "getBalance",
            "outputs": [
                {
                    "internalType": "uint256",
                    "name": "",
                    "type": "uint256"
                }
            ],
            "stateMutability": "view",
            "type": "function"
        },
        {
            "inputs": [
                {
                    "internalType": "address",
                    "name": "",
                    "type": "address"
                }
            ],
            "name": "isUserEntered",
            "outputs": [
                {
                    "internalType": "bool",
                    "name": "",
                    "type": "bool"
                }
            ],
            "stateMutability": "view",
            "type": "function"
        },
        {
            "inputs": [],
            "name": "keyhash",
            "outputs": [
                {
                    "internalType": "bytes32",
                    "name": "",
                    "type": "bytes32"
                }
            ],
            "stateMutability": "view",
            "type": "function"
        },
        {
            "inputs": [],
            "name": "lotteryDuration",
            "outputs": [
                {
                    "internalType": "uint256",
                    "name": "",
                    "type": "uint256"
                }
            ],
            "stateMutability": "view",
            "type": "function"
        },
        {
            "inputs": [],
            "name": "lotteryStart",
            "outputs": [
                {
                    "internalType": "uint256",
                    "name": "",
                    "type": "uint256"
                }
            ],
            "stateMutability": "view",
            "type": "function"
        },
        {
            "inputs": [],
            "name": "lottery_state",
            "outputs": [
                {
                    "internalType": "enum MyLottery.LOTTERY_STATE",
                    "name": "",
                    "type": "uint8"
                }
            ],
            "stateMutability": "view",
            "type": "function"
        },
        {
            "inputs": [],
            "name": "maxTryCounter",
            "outputs": [
                {
                    "internalType": "uint256",
                    "name": "",
                    "type": "uint256"
                }
            ],
            "stateMutability": "view",
            "type": "function"
        },
        {
            "inputs": [],
            "name": "maximumParticipants",
            "outputs": [
                {
                    "internalType": "uint256",
                    "name": "",
                    "type": "uint256"
                }
            ],
            "stateMutability": "view",
            "type": "function"
        },
        {
            "inputs": [],
            "name": "minumumParticipants",
            "outputs": [
                {
                    "internalType": "uint256",
                    "name": "",
                    "type": "uint256"
                }
            ],
            "stateMutability": "view",
            "type": "function"
        },
        {
            "inputs": [],
            "name": "owner",
            "outputs": [
                {
                    "internalType": "address",
                    "name": "",
                    "type": "address"
                }
            ],
            "stateMutability": "view",
            "type": "function"
        },
        {
            "inputs": [],
            "name": "ownerPercent",
            "outputs": [
                {
                    "internalType": "uint256",
                    "name": "",
                    "type": "uint256"
                }
            ],
            "stateMutability": "view",
            "type": "function"
        },
        {
            "inputs": [],
            "name": "ownerSent",
            "outputs": [
                {
                    "internalType": "bool",
                    "name": "",
                    "type": "bool"
                }
            ],
            "stateMutability": "view",
            "type": "function"
        },
        {
            "inputs": [
                {
                    "internalType": "uint256",
                    "name": "",
                    "type": "uint256"
                }
            ],
            "name": "players",
            "outputs": [
                {
                    "internalType": "address payable",
                    "name": "",
                    "type": "address"
                }
            ],
            "stateMutability": "view",
            "type": "function"
        },
        {
            "inputs": [],
            "name": "pricePercent",
            "outputs": [
                {
                    "internalType": "uint256",
                    "name": "",
                    "type": "uint256"
                }
            ],
            "stateMutability": "view",
            "type": "function"
        },
        {
            "inputs": [],
            "name": "randomness",
            "outputs": [
                {
                    "internalType": "uint256",
                    "name": "",
                    "type": "uint256"
                }
            ],
            "stateMutability": "view",
            "type": "function"
        },
        {
            "inputs": [],
            "name": "recentWinner",
            "outputs": [
                {
                    "internalType": "address payable",
                    "name": "",
                    "type": "address"
                }
            ],
            "stateMutability": "view",
            "type": "function"
        },
        {
            "inputs": [],
            "name": "recoverEth",
            "outputs": [],
            "stateMutability": "nonpayable",
            "type": "function"
        },
        {
            "inputs": [
                {
                    "internalType": "address",
                    "name": "tokenAddress",
                    "type": "address"
                }
            ],
            "name": "recoverTokens",
            "outputs": [],
            "stateMutability": "nonpayable",
            "type": "function"
        },
        {
            "inputs": [],
            "name": "renounceOwnership",
            "outputs": [],
            "stateMutability": "nonpayable",
            "type": "function"
        },
        {
            "inputs": [],
            "name": "retrySendPrizes",
            "outputs": [],
            "stateMutability": "nonpayable",
            "type": "function"
        },
        {
            "inputs": [
                {
                    "internalType": "uint256",
                    "name": "_entryFee",
                    "type": "uint256"
                }
            ],
            "name": "setEntranceFee",
            "outputs": [],
            "stateMutability": "nonpayable",
            "type": "function"
        },
        {
            "inputs": [
                {
                    "internalType": "uint256",
                    "name": "_duration",
                    "type": "uint256"
                }
            ],
            "name": "setLotteryDuration",
            "outputs": [],
            "stateMutability": "nonpayable",
            "type": "function"
        },
        {
            "inputs": [
                {
                    "internalType": "uint256",
                    "name": "_maximumParticipants",
                    "type": "uint256"
                }
            ],
            "name": "setMaximumParticipants",
            "outputs": [],
            "stateMutability": "nonpayable",
            "type": "function"
        },
        {
            "inputs": [
                {
                    "internalType": "uint256",
                    "name": "_minumumParticipants",
                    "type": "uint256"
                }
            ],
            "name": "setMinumumParticipants",
            "outputs": [],
            "stateMutability": "nonpayable",
            "type": "function"
        },
        {
            "inputs": [
                {
                    "internalType": "uint256",
                    "name": "_pricePercent",
                    "type": "uint256"
                },
                {
                    "internalType": "uint256",
                    "name": "_ownerPercent",
                    "type": "uint256"
                },
                {
                    "internalType": "uint256",
                    "name": "_contractPercent",
                    "type": "uint256"
                }
            ],
            "name": "setPrizePercents",
            "outputs": [],
            "stateMutability": "nonpayable",
            "type": "function"
        },
        {
            "inputs": [],
            "name": "start_lottery",
            "outputs": [],
            "stateMutability": "nonpayable",
            "type": "function"
        },
        {
            "inputs": [
                {
                    "internalType": "address",
                    "name": "newOwner",
                    "type": "address"
                }
            ],
            "name": "transferOwner",
            "outputs": [],
            "stateMutability": "nonpayable",
            "type": "function"
        },
        {
            "inputs": [
                {
                    "internalType": "address",
                    "name": "newOwner",
                    "type": "address"
                }
            ],
            "name": "transferOwnership",
            "outputs": [],
            "stateMutability": "nonpayable",
            "type": "function"
        }
    ],
    "compiler": {
        "version": "0.8.14+commit.80d49f37",
        "evm_version": "istanbul",
        "optimizer": {
            "enabled": true,
            "runs": 200
        }
    },
    "contractName": "MyLottery",
    "language": "Solidity",
    "natspec": {
        "methods": {
            "owner()": {
                "details": "Returns the address of the current owner."
            },
            "renounceOwnership()": {
                "details": "Leaves the contract without owner. It will not be possible to call `onlyOwner` functions anymore. Can only be called by the current owner. NOTE: Renouncing ownership will leave the contract without an owner, thereby removing any functionality that is only available to the owner."
            },
            "transferOwnership(address)": {
                "details": "Transfers ownership of the contract to a new account (`newOwner`). Can only be called by the current owner."
            }
        },
        "kind": "dev",
        "version": 1
    },
    "opcodes": "PUSH1 0x80 PUSH1 0x40 MSTORE PUSH1 0x4 CALLDATASIZE LT PUSH2 0x204 JUMPI PUSH1 0x0 CALLDATALOAD PUSH1 0xE0 SHR DUP1 PUSH4 0x8DA5CB5B GT PUSH2 0x118 JUMPI DUP1 PUSH4 0xD718AEA9 GT PUSH2 0xA0 JUMPI DUP1 PUSH4 0xF2FDE38B GT PUSH2 0x6F JUMPI DUP1 PUSH4 0xF2FDE38B EQ PUSH2 0x560 JUMPI DUP1 PUSH4 0xF71D96CB EQ PUSH2 0x580 JUMPI DUP1 PUSH4 0xF8B2CB4F EQ PUSH2 0x5A0 JUMPI DUP1 PUSH4 0xFAEA18C6 EQ PUSH2 0x5C0 JUMPI DUP1 PUSH4 0xFE56F5A0 EQ PUSH2 0x5D6 JUMPI PUSH1 0x0 DUP1 REVERT JUMPDEST DUP1 PUSH4 0xD718AEA9 EQ PUSH2 0x500 JUMPI DUP1 PUSH4 0xDDCA3F43 EQ PUSH2 0x515 JUMPI DUP1 PUSH4 0xEE44ABB2 EQ PUSH2 0x52B JUMPI DUP1 PUSH4 0xF2640E10 EQ PUSH2 0x540 JUMPI PUSH1 0x0 DUP1 REVERT JUMPDEST DUP1 PUSH4 0xB4989917 GT PUSH2 0xE7 JUMPI DUP1 PUSH4 0xB4989917 EQ PUSH2 0x458 JUMPI DUP1 PUSH4 0xBCDB446B EQ PUSH2 0x478 JUMPI DUP1 PUSH4 0xBE55C9C9 EQ PUSH2 0x48D JUMPI DUP1 PUSH4 0xCAA6FEA4 EQ PUSH2 0x4BD JUMPI DUP1 PUSH4 0xCD8CC844 EQ PUSH2 0x4EA JUMPI PUSH1 0x0 DUP1 REVERT JUMPDEST DUP1 PUSH4 0x8DA5CB5B EQ PUSH2 0x3F8 JUMPI DUP1 PUSH4 0x95D12000 EQ PUSH2 0x416 JUMPI DUP1 PUSH4 0x9BB57718 EQ PUSH2 0x42C JUMPI DUP1 PUSH4 0xA6D811EA EQ PUSH2 0x442 JUMPI PUSH1 0x0 DUP1 REVERT JUMPDEST DUP1 PUSH4 0x4F8C70CF GT PUSH2 0x19B JUMPI DUP1 PUSH4 0x59FE8C84 GT PUSH2 0x16A JUMPI DUP1 PUSH4 0x59FE8C84 EQ PUSH2 0x375 JUMPI DUP1 PUSH4 0x69EBE78E EQ PUSH2 0x38B JUMPI DUP1 PUSH4 0x715018A6 EQ PUSH2 0x3A1 JUMPI DUP1 PUSH4 0x81447999 EQ PUSH2 0x3B6 JUMPI DUP1 PUSH4 0x81FB84FB EQ PUSH2 0x3E2 JUMPI PUSH1 0x0 DUP1 REVERT JUMPDEST DUP1 PUSH4 0x4F8C70CF EQ PUSH2 0x2E7 JUMPI DUP1 PUSH4 0x4FB2E45D EQ PUSH2 0x31F JUMPI DUP1 PUSH4 0x501D0780 EQ PUSH2 0x33F JUMPI DUP1 PUSH4 0x56923710 EQ PUSH2 0x355 JUMPI PUSH1 0x0 DUP1 REVERT JUMPDEST DUP1 PUSH4 0x2D97902F GT PUSH2 0x1D7 JUMPI DUP1 PUSH4 0x2D97902F EQ PUSH2 0x29E JUMPI DUP1 PUSH4 0x36013189 EQ PUSH2 0x2B4 JUMPI DUP1 PUSH4 0x382E5E7A EQ PUSH2 0x2CA JUMPI DUP1 PUSH4 0x4A8466E9 EQ PUSH2 0x2D2 JUMPI PUSH1 0x0 DUP1 REVERT JUMPDEST DUP1 PUSH4 0x4283412 EQ PUSH2 0x209 JUMPI DUP1 PUSH4 0xB3FF280 EQ PUSH2 0x232 JUMPI DUP1 PUSH4 0x16114ACD EQ PUSH2 0x25C JUMPI DUP1 PUSH4 0x2B58150B EQ PUSH2 0x27E JUMPI JUMPDEST PUSH1 0x0 DUP1 REVERT JUMPDEST CALLVALUE DUP1 ISZERO PUSH2 0x215 JUMPI PUSH1 0x0 DUP1 REVERT JUMPDEST POP PUSH2 0x21F PUSH1 0x6 SLOAD DUP2 JUMP JUMPDEST PUSH1 0x40 MLOAD SWAP1 DUP2 MSTORE PUSH1 0x20 ADD JUMPDEST PUSH1 0x40 MLOAD DUP1 SWAP2 SUB SWAP1 RETURN JUMPDEST CALLVALUE DUP1 ISZERO PUSH2 0x23E JUMPI PUSH1 0x0 DUP1 REVERT JUMPDEST POP PUSH1 0x10 SLOAD PUSH2 0x24C SWAP1 PUSH1 0xFF AND DUP2 JUMP JUMPDEST PUSH1 0x40 MLOAD SWAP1 ISZERO ISZERO DUP2 MSTORE PUSH1 0x20 ADD PUSH2 0x229 JUMP JUMPDEST CALLVALUE DUP1 ISZERO PUSH2 0x268 JUMPI PUSH1 0x0 DUP1 REVERT JUMPDEST POP PUSH2 0x27C PUSH2 0x277 CALLDATASIZE PUSH1 0x4 PUSH2 0x16E7 JUMP JUMPDEST PUSH2 0x5F6 JUMP JUMPDEST STOP JUMPDEST CALLVALUE DUP1 ISZERO PUSH2 0x28A JUMPI PUSH1 0x0 DUP1 REVERT JUMPDEST POP PUSH2 0x27C PUSH2 0x299 CALLDATASIZE PUSH1 0x4 PUSH2 0x1710 JUMP JUMPDEST PUSH2 0x6E6 JUMP JUMPDEST CALLVALUE DUP1 ISZERO PUSH2 0x2AA JUMPI PUSH1 0x0 DUP1 REVERT JUMPDEST POP PUSH2 0x21F PUSH1 0xF SLOAD DUP2 JUMP JUMPDEST CALLVALUE DUP1 ISZERO PUSH2 0x2C0 JUMPI PUSH1 0x0 DUP1 REVERT JUMPDEST POP PUSH2 0x21F PUSH1 0x4 SLOAD DUP2 JUMP JUMPDEST PUSH2 0x27C PUSH2 0x6F3 JUMP JUMPDEST CALLVALUE DUP1 ISZERO PUSH2 0x2DE JUMPI PUSH1 0x0 DUP1 REVERT JUMPDEST POP PUSH2 0x27C PUSH2 0x91F JUMP JUMPDEST CALLVALUE DUP1 ISZERO PUSH2 0x2F3 JUMPI PUSH1 0x0 DUP1 REVERT JUMPDEST POP PUSH1 0x3 SLOAD PUSH2 0x307 SWAP1 PUSH1 0x1 PUSH1 0x1 PUSH1 0xA0 SHL SUB AND DUP2 JUMP JUMPDEST PUSH1 0x40 MLOAD PUSH1 0x1 PUSH1 0x1 PUSH1 0xA0 SHL SUB SWAP1 SWAP2 AND DUP2 MSTORE PUSH1 0x20 ADD PUSH2 0x229 JUMP JUMPDEST CALLVALUE DUP1 ISZERO PUSH2 0x32B JUMPI PUSH1 0x0 DUP1 REVERT JUMPDEST POP PUSH2 0x27C PUSH2 0x33A CALLDATASIZE PUSH1 0x4 PUSH2 0x16E7 JUMP JUMPDEST PUSH2 0x932 JUMP JUMPDEST CALLVALUE DUP1 ISZERO PUSH2 0x34B JUMPI PUSH1 0x0 DUP1 REVERT JUMPDEST POP PUSH2 0x21F PUSH1 0xC SLOAD DUP2 JUMP JUMPDEST CALLVALUE DUP1 ISZERO PUSH2 0x361 JUMPI PUSH1 0x0 DUP1 REVERT JUMPDEST POP PUSH2 0x27C PUSH2 0x370 CALLDATASIZE PUSH1 0x4 PUSH2 0x1710 JUMP JUMPDEST PUSH2 0x943 JUMP JUMPDEST CALLVALUE DUP1 ISZERO PUSH2 0x381 JUMPI PUSH1 0x0 DUP1 REVERT JUMPDEST POP PUSH2 0x21F PUSH1 0x7 SLOAD DUP2 JUMP JUMPDEST CALLVALUE DUP1 ISZERO PUSH2 0x397 JUMPI PUSH1 0x0 DUP1 REVERT JUMPDEST POP PUSH2 0x21F PUSH1 0x12 SLOAD DUP2 JUMP JUMPDEST CALLVALUE DUP1 ISZERO PUSH2 0x3AD JUMPI PUSH1 0x0 DUP1 REVERT JUMPDEST POP PUSH2 0x27C PUSH2 0x950 JUMP JUMPDEST CALLVALUE DUP1 ISZERO PUSH2 0x3C2 JUMPI PUSH1 0x0 DUP1 REVERT JUMPDEST POP PUSH1 0x10 SLOAD PUSH2 0x3D5 SWAP1 PUSH2 0x100 SWAP1 DIV PUSH1 0xFF AND DUP2 JUMP JUMPDEST PUSH1 0x40 MLOAD PUSH2 0x229 SWAP2 SWAP1 PUSH2 0x173F JUMP JUMPDEST CALLVALUE DUP1 ISZERO PUSH2 0x3EE JUMPI PUSH1 0x0 DUP1 REVERT JUMPDEST POP PUSH2 0x21F PUSH1 0x9 SLOAD DUP2 JUMP JUMPDEST CALLVALUE DUP1 ISZERO PUSH2 0x404 JUMPI PUSH1 0x0 DUP1 REVERT JUMPDEST POP PUSH1 0x0 SLOAD PUSH1 0x1 PUSH1 0x1 PUSH1 0xA0 SHL SUB AND PUSH2 0x307 JUMP JUMPDEST CALLVALUE DUP1 ISZERO PUSH2 0x422 JUMPI PUSH1 0x0 DUP1 REVERT JUMPDEST POP PUSH2 0x21F PUSH1 0xA SLOAD DUP2 JUMP JUMPDEST CALLVALUE DUP1 ISZERO PUSH2 0x438 JUMPI PUSH1 0x0 DUP1 REVERT JUMPDEST POP PUSH2 0x21F PUSH1 0xB SLOAD DUP2 JUMP JUMPDEST CALLVALUE DUP1 ISZERO PUSH2 0x44E JUMPI PUSH1 0x0 DUP1 REVERT JUMPDEST POP PUSH2 0x21F PUSH1 0x5 SLOAD DUP2 JUMP JUMPDEST CALLVALUE DUP1 ISZERO PUSH2 0x464 JUMPI PUSH1 0x0 DUP1 REVERT JUMPDEST POP PUSH2 0x27C PUSH2 0x473 CALLDATASIZE PUSH1 0x4 PUSH2 0x1710 JUMP JUMPDEST PUSH2 0x964 JUMP JUMPDEST CALLVALUE DUP1 ISZERO PUSH2 0x484 JUMPI PUSH1 0x0 DUP1 REVERT JUMPDEST POP PUSH2 0x27C PUSH2 0x971 JUMP JUMPDEST CALLVALUE DUP1 ISZERO PUSH2 0x499 JUMPI PUSH1 0x0 DUP1 REVERT JUMPDEST POP PUSH2 0x24C PUSH2 0x4A8 CALLDATASIZE PUSH1 0x4 PUSH2 0x16E7 JUMP JUMPDEST PUSH1 0x8 PUSH1 0x20 MSTORE PUSH1 0x0 SWAP1 DUP2 MSTORE PUSH1 0x40 SWAP1 KECCAK256 SLOAD PUSH1 0xFF AND DUP2 JUMP JUMPDEST CALLVALUE DUP1 ISZERO PUSH2 0x4C9 JUMPI PUSH1 0x0 DUP1 REVERT JUMPDEST POP PUSH1 0x10 SLOAD PUSH2 0x4DD SWAP1 PUSH3 0x10000 SWAP1 DIV PUSH1 0xFF AND DUP2 JUMP JUMPDEST PUSH1 0x40 MLOAD PUSH2 0x229 SWAP2 SWAP1 PUSH2 0x1759 JUMP JUMPDEST CALLVALUE DUP1 ISZERO PUSH2 0x4F6 JUMPI PUSH1 0x0 DUP1 REVERT JUMPDEST POP PUSH2 0x21F PUSH1 0xE SLOAD DUP2 JUMP JUMPDEST CALLVALUE DUP1 ISZERO PUSH2 0x50C JUMPI PUSH1 0x0 DUP1 REVERT JUMPDEST POP PUSH2 0x27C PUSH2 0x9E0 JUMP JUMPDEST CALLVALUE DUP1 ISZERO PUSH2 0x521 JUMPI PUSH1 0x0 DUP1 REVERT JUMPDEST POP PUSH2 0x21F PUSH1 0x11 SLOAD DUP2 JUMP JUMPDEST CALLVALUE DUP1 ISZERO PUSH2 0x537 JUMPI PUSH1 0x0 DUP1 REVERT JUMPDEST POP PUSH2 0x27C PUSH2 0xB38 JUMP JUMPDEST CALLVALUE DUP1 ISZERO PUSH2 0x54C JUMPI PUSH1 0x0 DUP1 REVERT JUMPDEST POP PUSH2 0x27C PUSH2 0x55B CALLDATASIZE PUSH1 0x4 PUSH2 0x176D JUMP JUMPDEST PUSH2 0xC20 JUMP JUMPDEST CALLVALUE DUP1 ISZERO PUSH2 0x56C JUMPI PUSH1 0x0 DUP1 REVERT JUMPDEST POP PUSH2 0x27C PUSH2 0x57B CALLDATASIZE PUSH1 0x4 PUSH2 0x16E7 JUMP JUMPDEST PUSH2 0xD46 JUMP JUMPDEST CALLVALUE DUP1 ISZERO PUSH2 0x58C JUMPI PUSH1 0x0 DUP1 REVERT JUMPDEST POP PUSH2 0x307 PUSH2 0x59B CALLDATASIZE PUSH1 0x4 PUSH2 0x1710 JUMP JUMPDEST PUSH2 0xDBC JUMP JUMPDEST CALLVALUE DUP1 ISZERO PUSH2 0x5AC JUMPI PUSH1 0x0 DUP1 REVERT JUMPDEST POP PUSH2 0x21F PUSH2 0x5BB CALLDATASIZE PUSH1 0x4 PUSH2 0x16E7 JUMP JUMPDEST PUSH2 0xDE6 JUMP JUMPDEST CALLVALUE DUP1 ISZERO PUSH2 0x5CC JUMPI PUSH1 0x0 DUP1 REVERT JUMPDEST POP PUSH2 0x21F PUSH1 0xD SLOAD DUP2 JUMP JUMPDEST CALLVALUE DUP1 ISZERO PUSH2 0x5E2 JUMPI PUSH1 0x0 DUP1 REVERT JUMPDEST POP PUSH2 0x27C PUSH2 0x5F1 CALLDATASIZE PUSH1 0x4 PUSH2 0x1710 JUMP JUMPDEST PUSH2 0xE5A JUMP JUMPDEST PUSH2 0x5FE PUSH2 0xEA2 JUMP JUMPDEST PUSH1 0x40 MLOAD PUSH4 0x70A08231 PUSH1 0xE0 SHL DUP2 MSTORE ADDRESS PUSH1 0x4 DUP3 ADD MSTORE DUP2 SWAP1 PUSH1 0x1 PUSH1 0x1 PUSH1 0xA0 SHL SUB DUP3 AND SWAP1 PUSH4 0xA9059CBB SWAP1 CALLER SWAP1 DUP4 SWAP1 PUSH4 0x70A08231 SWAP1 PUSH1 0x24 ADD PUSH1 0x20 PUSH1 0x40 MLOAD DUP1 DUP4 SUB DUP2 DUP7 GAS STATICCALL ISZERO DUP1 ISZERO PUSH2 0x64E JUMPI RETURNDATASIZE PUSH1 0x0 DUP1 RETURNDATACOPY RETURNDATASIZE PUSH1 0x0 REVERT JUMPDEST POP POP POP POP PUSH1 0x40 MLOAD RETURNDATASIZE PUSH1 0x1F NOT PUSH1 0x1F DUP3 ADD AND DUP3 ADD DUP1 PUSH1 0x40 MSTORE POP DUP2 ADD SWAP1 PUSH2 0x672 SWAP2 SWAP1 PUSH2 0x1799 JUMP JUMPDEST PUSH1 0x40 MLOAD PUSH1 0x1 PUSH1 0x1 PUSH1 0xE0 SHL SUB NOT PUSH1 0xE0 DUP6 SWAP1 SHL AND DUP2 MSTORE PUSH1 0x1 PUSH1 0x1 PUSH1 0xA0 SHL SUB SWAP1 SWAP3 AND PUSH1 0x4 DUP4 ADD MSTORE PUSH1 0x24 DUP3 ADD MSTORE PUSH1 0x44 ADD PUSH1 0x20 PUSH1 0x40 MLOAD DUP1 DUP4 SUB DUP2 PUSH1 0x0 DUP8 GAS CALL ISZERO DUP1 ISZERO PUSH2 0x6BD JUMPI RETURNDATASIZE PUSH1 0x0 DUP1 RETURNDATACOPY RETURNDATASIZE PUSH1 0x0 REVERT JUMPDEST POP POP POP POP PUSH1 0x40 MLOAD RETURNDATASIZE PUSH1 0x1F NOT PUSH1 0x1F DUP3 ADD AND DUP3 ADD DUP1 PUSH1 0x40 MSTORE POP DUP2 ADD SWAP1 PUSH2 0x6E1 SWAP2 SWAP1 PUSH2 0x17B2 JUMP JUMPDEST POP POP POP JUMP JUMPDEST PUSH2 0x6EE PUSH2 0xEA2 JUMP JUMPDEST PUSH1 0xF SSTORE JUMP JUMPDEST PUSH1 0x2 PUSH1 0x1 SLOAD SUB PUSH2 0x71E JUMPI PUSH1 0x40 MLOAD PUSH3 0x461BCD PUSH1 0xE5 SHL DUP2 MSTORE PUSH1 0x4 ADD PUSH2 0x715 SWAP1 PUSH2 0x17D4 JUMP JUMPDEST PUSH1 0x40 MLOAD DUP1 SWAP2 SUB SWAP1 REVERT JUMPDEST PUSH1 0x2 PUSH1 0x1 SSTORE CALLER PUSH1 0x0 SWAP1 DUP2 MSTORE PUSH1 0x8 PUSH1 0x20 MSTORE PUSH1 0x40 SWAP1 KECCAK256 SLOAD PUSH1 0xFF AND ISZERO PUSH2 0x775 JUMPI PUSH1 0x40 MLOAD PUSH3 0x461BCD PUSH1 0xE5 SHL DUP2 MSTORE PUSH1 0x20 PUSH1 0x4 DUP3 ADD MSTORE PUSH1 0xF PUSH1 0x24 DUP3 ADD MSTORE PUSH15 0x105B1C9958591E48195B9D195C9959 PUSH1 0x8A SHL PUSH1 0x44 DUP3 ADD MSTORE PUSH1 0x64 ADD PUSH2 0x715 JUMP JUMPDEST CALLER PUSH1 0x0 SWAP1 DUP2 MSTORE PUSH1 0x8 PUSH1 0x20 MSTORE PUSH1 0x40 DUP2 KECCAK256 DUP1 SLOAD PUSH1 0xFF NOT AND PUSH1 0x1 OR SWAP1 SSTORE PUSH1 0x10 SLOAD PUSH2 0x100 SWAP1 DIV PUSH1 0xFF AND PUSH1 0x2 DUP2 GT ISZERO PUSH2 0x7AB JUMPI PUSH2 0x7AB PUSH2 0x1729 JUMP JUMPDEST EQ PUSH2 0x7EE JUMPI PUSH1 0x40 MLOAD PUSH3 0x461BCD PUSH1 0xE5 SHL DUP2 MSTORE PUSH1 0x20 PUSH1 0x4 DUP3 ADD MSTORE PUSH1 0x13 PUSH1 0x24 DUP3 ADD MSTORE PUSH19 0x131BDD1D195C9E48139BDD081CDD185C9D1959 PUSH1 0x6A SHL PUSH1 0x44 DUP3 ADD MSTORE PUSH1 0x64 ADD PUSH2 0x715 JUMP JUMPDEST PUSH1 0x1 PUSH1 0x10 SLOAD PUSH3 0x10000 SWAP1 DIV PUSH1 0xFF AND PUSH1 0x1 DUP2 GT ISZERO PUSH2 0x80D JUMPI PUSH2 0x80D PUSH2 0x1729 JUMP JUMPDEST EQ PUSH2 0x82A JUMPI PUSH1 0x40 MLOAD PUSH3 0x461BCD PUSH1 0xE5 SHL DUP2 MSTORE PUSH1 0x4 ADD PUSH2 0x715 SWAP1 PUSH2 0x180B JUMP JUMPDEST PUSH1 0x7 SLOAD CALLVALUE EQ PUSH2 0x83A PUSH1 0x7 SLOAD PUSH2 0xEFC JUMP JUMPDEST PUSH1 0x40 MLOAD PUSH1 0x20 ADD PUSH2 0x84A SWAP2 SWAP1 PUSH2 0x1864 JUMP JUMPDEST PUSH1 0x40 MLOAD PUSH1 0x20 DUP2 DUP4 SUB SUB DUP2 MSTORE SWAP1 PUSH1 0x40 MSTORE SWAP1 PUSH2 0x877 JUMPI PUSH1 0x40 MLOAD PUSH3 0x461BCD PUSH1 0xE5 SHL DUP2 MSTORE PUSH1 0x4 ADD PUSH2 0x715 SWAP2 SWAP1 PUSH2 0x18B7 JUMP JUMPDEST POP PUSH1 0x6 SLOAD PUSH1 0x2 SLOAD GT ISZERO PUSH2 0x8D8 JUMPI PUSH1 0x40 MLOAD PUSH3 0x461BCD PUSH1 0xE5 SHL DUP2 MSTORE PUSH1 0x20 PUSH1 0x4 DUP3 ADD MSTORE PUSH1 0x23 PUSH1 0x24 DUP3 ADD MSTORE PUSH32 0x4D6178696D756D204E756D626572207265616368656420666F7220206C6F7474 PUSH1 0x44 DUP3 ADD MSTORE PUSH3 0x657279 PUSH1 0xE8 SHL PUSH1 0x64 DUP3 ADD MSTORE PUSH1 0x84 ADD PUSH2 0x715 JUMP JUMPDEST PUSH1 0x2 DUP1 SLOAD PUSH1 0x1 DUP2 DUP2 ADD DUP4 SSTORE PUSH1 0x0 SWAP3 SWAP1 SWAP3 MSTORE PUSH32 0x405787FA12A823E0F2B7631CC41B3BA8828B3321CA811111FA75CD3AA3BB5ACE ADD DUP1 SLOAD PUSH1 0x1 PUSH1 0x1 PUSH1 0xA0 SHL SUB NOT AND CALLER OR SWAP1 SSTORE DUP1 SSTORE JUMP JUMPDEST PUSH2 0x927 PUSH2 0xEA2 JUMP JUMPDEST PUSH2 0x92F PUSH2 0x1005 JUMP JUMPDEST POP JUMP JUMPDEST PUSH2 0x93A PUSH2 0xEA2 JUMP JUMPDEST PUSH2 0x92F DUP2 PUSH2 0xD46 JUMP JUMPDEST PUSH2 0x94B PUSH2 0xEA2 JUMP JUMPDEST PUSH1 0x6 SSTORE JUMP JUMPDEST PUSH2 0x958 PUSH2 0xEA2 JUMP JUMPDEST PUSH2 0x962 PUSH1 0x0 PUSH2 0x1247 JUMP JUMPDEST JUMP JUMPDEST PUSH2 0x96C PUSH2 0xEA2 JUMP JUMPDEST PUSH1 0x5 SSTORE JUMP JUMPDEST PUSH2 0x979 PUSH2 0xEA2 JUMP JUMPDEST PUSH1 0x1 PUSH1 0x10 SLOAD PUSH2 0x100 SWAP1 DIV PUSH1 0xFF AND PUSH1 0x2 DUP2 GT ISZERO PUSH2 0x997 JUMPI PUSH2 0x997 PUSH2 0x1729 JUMP JUMPDEST EQ PUSH2 0x9B4 JUMPI PUSH1 0x40 MLOAD PUSH3 0x461BCD PUSH1 0xE5 SHL DUP2 MSTORE PUSH1 0x4 ADD PUSH2 0x715 SWAP1 PUSH2 0x18EA JUMP JUMPDEST PUSH1 0x40 MLOAD CALLER SWAP1 SELFBALANCE DUP1 ISZERO PUSH2 0x8FC MUL SWAP2 PUSH1 0x0 DUP2 DUP2 DUP2 DUP6 DUP9 DUP9 CALL SWAP4 POP POP POP POP ISZERO DUP1 ISZERO PUSH2 0x92F JUMPI RETURNDATASIZE PUSH1 0x0 DUP1 RETURNDATACOPY RETURNDATASIZE PUSH1 0x0 REVERT JUMPDEST PUSH1 0x2 PUSH1 0x1 SLOAD SUB PUSH2 0xA02 JUMPI PUSH1 0x40 MLOAD PUSH3 0x461BCD PUSH1 0xE5 SHL DUP2 MSTORE PUSH1 0x4 ADD PUSH2 0x715 SWAP1 PUSH2 0x17D4 JUMP JUMPDEST PUSH1 0x2 PUSH1 0x1 SSTORE PUSH1 0x0 PUSH1 0x10 SLOAD PUSH2 0x100 SWAP1 DIV PUSH1 0xFF AND PUSH1 0x2 DUP2 GT ISZERO PUSH2 0xA25 JUMPI PUSH2 0xA25 PUSH2 0x1729 JUMP JUMPDEST EQ PUSH2 0xA68 JUMPI PUSH1 0x40 MLOAD PUSH3 0x461BCD PUSH1 0xE5 SHL DUP2 MSTORE PUSH1 0x20 PUSH1 0x4 DUP3 ADD MSTORE PUSH1 0x13 PUSH1 0x24 DUP3 ADD MSTORE PUSH19 0x131BDD1D195C9E48139BDD081CDD185C9D1959 PUSH1 0x6A SHL PUSH1 0x44 DUP3 ADD MSTORE PUSH1 0x64 ADD PUSH2 0x715 JUMP JUMPDEST PUSH1 0x1 PUSH1 0x10 SLOAD PUSH3 0x10000 SWAP1 DIV PUSH1 0xFF AND PUSH1 0x1 DUP2 GT ISZERO PUSH2 0xA87 JUMPI PUSH2 0xA87 PUSH2 0x1729 JUMP JUMPDEST EQ PUSH2 0xAA4 JUMPI PUSH1 0x40 MLOAD PUSH3 0x461BCD PUSH1 0xE5 SHL DUP2 MSTORE PUSH1 0x4 ADD PUSH2 0x715 SWAP1 PUSH2 0x180B JUMP JUMPDEST PUSH1 0xF SLOAD PUSH1 0xE SLOAD PUSH2 0xAB4 SWAP2 SWAP1 PUSH2 0x1937 JUMP JUMPDEST TIMESTAMP GT PUSH2 0xB02 JUMPI PUSH1 0x40 MLOAD PUSH3 0x461BCD PUSH1 0xE5 SHL DUP2 MSTORE PUSH1 0x20 PUSH1 0x4 DUP3 ADD MSTORE PUSH1 0x1F PUSH1 0x24 DUP3 ADD MSTORE PUSH32 0x6D696E206C6F7474657279206475726174696F6E206E6F742070617373656400 PUSH1 0x44 DUP3 ADD MSTORE PUSH1 0x64 ADD PUSH2 0x715 JUMP JUMPDEST PUSH1 0x5 SLOAD PUSH1 0x2 SLOAD LT ISZERO PUSH2 0xB1B JUMPI PUSH2 0xB16 PUSH2 0x1297 JUMP JUMPDEST PUSH2 0xB32 JUMP JUMPDEST PUSH1 0x10 DUP1 SLOAD PUSH2 0xFF00 NOT AND PUSH2 0x200 OR SWAP1 SSTORE PUSH2 0xB32 PUSH2 0x13F8 JUMP JUMPDEST PUSH1 0x1 DUP1 SSTORE JUMP JUMPDEST PUSH1 0x2 PUSH1 0x1 SLOAD SUB PUSH2 0xB5A JUMPI PUSH1 0x40 MLOAD PUSH3 0x461BCD PUSH1 0xE5 SHL DUP2 MSTORE PUSH1 0x4 ADD PUSH2 0x715 SWAP1 PUSH2 0x17D4 JUMP JUMPDEST PUSH1 0x2 PUSH1 0x1 SWAP1 DUP2 SSTORE PUSH1 0x10 SLOAD PUSH2 0x100 SWAP1 DIV PUSH1 0xFF AND PUSH1 0x2 DUP2 GT ISZERO PUSH2 0xB7D JUMPI PUSH2 0xB7D PUSH2 0x1729 JUMP JUMPDEST EQ PUSH2 0xBCA JUMPI PUSH1 0x40 MLOAD PUSH3 0x461BCD PUSH1 0xE5 SHL DUP2 MSTORE PUSH1 0x20 PUSH1 0x4 DUP3 ADD MSTORE PUSH1 0x17 PUSH1 0x24 DUP3 ADD MSTORE PUSH32 0x4C6F747465727920416C72656164792073746172746564000000000000000000 PUSH1 0x44 DUP3 ADD MSTORE PUSH1 0x64 ADD PUSH2 0x715 JUMP JUMPDEST PUSH1 0x1 PUSH1 0x10 SLOAD PUSH3 0x10000 SWAP1 DIV PUSH1 0xFF AND PUSH1 0x1 DUP2 GT ISZERO PUSH2 0xBE9 JUMPI PUSH2 0xBE9 PUSH2 0x1729 JUMP JUMPDEST EQ PUSH2 0xC06 JUMPI PUSH1 0x40 MLOAD PUSH3 0x461BCD PUSH1 0xE5 SHL DUP2 MSTORE PUSH1 0x4 ADD PUSH2 0x715 SWAP1 PUSH2 0x180B JUMP JUMPDEST PUSH1 0x10 DUP1 SLOAD PUSH2 0xFF00 NOT AND SWAP1 SSTORE PUSH1 0x0 PUSH1 0x4 SSTORE TIMESTAMP PUSH1 0xE SSTORE PUSH1 0x1 DUP1 SSTORE JUMP JUMPDEST PUSH2 0xC28 PUSH2 0xEA2 JUMP JUMPDEST PUSH1 0x1 PUSH1 0x10 SLOAD PUSH2 0x100 SWAP1 DIV PUSH1 0xFF AND PUSH1 0x2 DUP2 GT ISZERO PUSH2 0xC46 JUMPI PUSH2 0xC46 PUSH2 0x1729 JUMP JUMPDEST EQ PUSH2 0xC63 JUMPI PUSH1 0x40 MLOAD PUSH3 0x461BCD PUSH1 0xE5 SHL DUP2 MSTORE PUSH1 0x4 ADD PUSH2 0x715 SWAP1 PUSH2 0x18EA JUMP JUMPDEST PUSH1 0x1 PUSH1 0x10 SLOAD PUSH2 0x100 SWAP1 DIV PUSH1 0xFF AND PUSH1 0x2 DUP2 GT ISZERO PUSH2 0xC81 JUMPI PUSH2 0xC81 PUSH2 0x1729 JUMP JUMPDEST EQ PUSH2 0xC9E JUMPI PUSH1 0x40 MLOAD PUSH3 0x461BCD PUSH1 0xE5 SHL DUP2 MSTORE PUSH1 0x4 ADD PUSH2 0x715 SWAP1 PUSH2 0x18EA JUMP JUMPDEST PUSH1 0x64 DUP2 PUSH2 0xCAB DUP5 DUP7 PUSH2 0x1937 JUMP JUMPDEST PUSH2 0xCB5 SWAP2 SWAP1 PUSH2 0x1937 JUMP JUMPDEST GT ISZERO PUSH2 0xCF6 JUMPI PUSH1 0x40 MLOAD PUSH3 0x461BCD PUSH1 0xE5 SHL DUP2 MSTORE PUSH1 0x20 PUSH1 0x4 DUP3 ADD MSTORE PUSH1 0x10 PUSH1 0x24 DUP3 ADD MSTORE PUSH16 0x63616E206E6F74206F7665722031303 PUSH1 0x84 SHL PUSH1 0x44 DUP3 ADD MSTORE PUSH1 0x64 ADD PUSH2 0x715 JUMP JUMPDEST PUSH1 0x32 DUP4 LT PUSH2 0xD38 JUMPI PUSH1 0x40 MLOAD PUSH3 0x461BCD PUSH1 0xE5 SHL DUP2 MSTORE PUSH1 0x20 PUSH1 0x4 DUP3 ADD MSTORE PUSH1 0xF PUSH1 0x24 DUP3 ADD MSTORE PUSH15 0x63616E206E6F74206C65737320353 PUSH1 0x8C SHL PUSH1 0x44 DUP3 ADD MSTORE PUSH1 0x64 ADD PUSH2 0x715 JUMP JUMPDEST PUSH1 0x9 SWAP3 SWAP1 SWAP3 SSTORE PUSH1 0xA SSTORE PUSH1 0xB SSTORE JUMP JUMPDEST PUSH2 0xD4E PUSH2 0xEA2 JUMP JUMPDEST PUSH1 0x1 PUSH1 0x1 PUSH1 0xA0 SHL SUB DUP2 AND PUSH2 0xDB3 JUMPI PUSH1 0x40 MLOAD PUSH3 0x461BCD PUSH1 0xE5 SHL DUP2 MSTORE PUSH1 0x20 PUSH1 0x4 DUP3 ADD MSTORE PUSH1 0x26 PUSH1 0x24 DUP3 ADD MSTORE PUSH32 0x4F776E61626C653A206E6577206F776E657220697320746865207A65726F2061 PUSH1 0x44 DUP3 ADD MSTORE PUSH6 0x646472657373 PUSH1 0xD0 SHL PUSH1 0x64 DUP3 ADD MSTORE PUSH1 0x84 ADD PUSH2 0x715 JUMP JUMPDEST PUSH2 0x92F DUP2 PUSH2 0x1247 JUMP JUMPDEST PUSH1 0x2 DUP2 DUP2 SLOAD DUP2 LT PUSH2 0xDCC JUMPI PUSH1 0x0 DUP1 REVERT JUMPDEST PUSH1 0x0 SWAP2 DUP3 MSTORE PUSH1 0x20 SWAP1 SWAP2 KECCAK256 ADD SLOAD PUSH1 0x1 PUSH1 0x1 PUSH1 0xA0 SHL SUB AND SWAP1 POP DUP2 JUMP JUMPDEST PUSH1 0x40 MLOAD PUSH4 0x70A08231 PUSH1 0xE0 SHL DUP2 MSTORE ADDRESS PUSH1 0x4 DUP3 ADD MSTORE PUSH1 0x0 SWAP1 DUP2 SWAP1 PUSH1 0x1 PUSH1 0x1 PUSH1 0xA0 SHL SUB DUP5 AND SWAP1 PUSH4 0x70A08231 SWAP1 PUSH1 0x24 ADD PUSH1 0x20 PUSH1 0x40 MLOAD DUP1 DUP4 SUB DUP2 DUP7 GAS STATICCALL ISZERO DUP1 ISZERO PUSH2 0xE2F JUMPI RETURNDATASIZE PUSH1 0x0 DUP1 RETURNDATACOPY RETURNDATASIZE PUSH1 0x0 REVERT JUMPDEST POP POP POP POP PUSH1 0x40 MLOAD RETURNDATASIZE PUSH1 0x1F NOT PUSH1 0x1F DUP3 ADD AND DUP3 ADD DUP1 PUSH1 0x40 MSTORE POP DUP2 ADD SWAP1 PUSH2 0xE53 SWAP2 SWAP1 PUSH2 0x1799 JUMP JUMPDEST SWAP4 SWAP3 POP POP POP JUMP JUMPDEST PUSH2 0xE62 PUSH2 0xEA2 JUMP JUMPDEST PUSH1 0x1 PUSH1 0x10 SLOAD PUSH2 0x100 SWAP1 DIV PUSH1 0xFF AND PUSH1 0x2 DUP2 GT ISZERO PUSH2 0xE80 JUMPI PUSH2 0xE80 PUSH2 0x1729 JUMP JUMPDEST EQ PUSH2 0xE9D JUMPI PUSH1 0x40 MLOAD PUSH3 0x461BCD PUSH1 0xE5 SHL DUP2 MSTORE PUSH1 0x4 ADD PUSH2 0x715 SWAP1 PUSH2 0x18EA JUMP JUMPDEST PUSH1 0x7 SSTORE JUMP JUMPDEST PUSH1 0x0 SLOAD PUSH1 0x1 PUSH1 0x1 PUSH1 0xA0 SHL SUB AND CALLER EQ PUSH2 0x962 JUMPI PUSH1 0x40 MLOAD PUSH3 0x461BCD PUSH1 0xE5 SHL DUP2 MSTORE PUSH1 0x20 PUSH1 0x4 DUP3 ADD DUP2 SWAP1 MSTORE PUSH1 0x24 DUP3 ADD MSTORE PUSH32 0x4F776E61626C653A2063616C6C6572206973206E6F7420746865206F776E6572 PUSH1 0x44 DUP3 ADD MSTORE PUSH1 0x64 ADD PUSH2 0x715 JUMP JUMPDEST PUSH1 0x60 DUP2 PUSH1 0x0 SUB PUSH2 0xF23 JUMPI POP POP PUSH1 0x40 DUP1 MLOAD DUP1 DUP3 ADD SWAP1 SWAP2 MSTORE PUSH1 0x1 DUP2 MSTORE PUSH1 0x3 PUSH1 0xFC SHL PUSH1 0x20 DUP3 ADD MSTORE SWAP1 JUMP JUMPDEST DUP2 PUSH1 0x0 JUMPDEST DUP2 ISZERO PUSH2 0xF4D JUMPI DUP1 PUSH2 0xF37 DUP2 PUSH2 0x194F JUMP JUMPDEST SWAP2 POP PUSH2 0xF46 SWAP1 POP PUSH1 0xA DUP4 PUSH2 0x197E JUMP JUMPDEST SWAP2 POP PUSH2 0xF27 JUMP JUMPDEST PUSH1 0x0 DUP2 PUSH8 0xFFFFFFFFFFFFFFFF DUP2 GT ISZERO PUSH2 0xF68 JUMPI PUSH2 0xF68 PUSH2 0x1992 JUMP JUMPDEST PUSH1 0x40 MLOAD SWAP1 DUP1 DUP3 MSTORE DUP1 PUSH1 0x1F ADD PUSH1 0x1F NOT AND PUSH1 0x20 ADD DUP3 ADD PUSH1 0x40 MSTORE DUP1 ISZERO PUSH2 0xF92 JUMPI PUSH1 0x20 DUP3 ADD DUP2 DUP1 CALLDATASIZE DUP4 CALLDATACOPY ADD SWAP1 POP JUMPDEST POP SWAP1 POP JUMPDEST DUP5 ISZERO PUSH2 0xFFD JUMPI PUSH2 0xFA7 PUSH1 0x1 DUP4 PUSH2 0x19A8 JUMP JUMPDEST SWAP2 POP PUSH2 0xFB4 PUSH1 0xA DUP7 PUSH2 0x19BF JUMP JUMPDEST PUSH2 0xFBF SWAP1 PUSH1 0x30 PUSH2 0x1937 JUMP JUMPDEST PUSH1 0xF8 SHL DUP2 DUP4 DUP2 MLOAD DUP2 LT PUSH2 0xFD4 JUMPI PUSH2 0xFD4 PUSH2 0x19D3 JUMP JUMPDEST PUSH1 0x20 ADD ADD SWAP1 PUSH1 0x1 PUSH1 0x1 PUSH1 0xF8 SHL SUB NOT AND SWAP1 DUP2 PUSH1 0x0 BYTE SWAP1 MSTORE8 POP PUSH2 0xFF6 PUSH1 0xA DUP7 PUSH2 0x197E JUMP JUMPDEST SWAP5 POP PUSH2 0xF96 JUMP JUMPDEST SWAP5 SWAP4 POP POP POP POP JUMP JUMPDEST PUSH1 0x0 PUSH1 0x2 PUSH1 0x10 SLOAD PUSH2 0x100 SWAP1 DIV PUSH1 0xFF AND PUSH1 0x2 DUP2 GT ISZERO PUSH2 0x1025 JUMPI PUSH2 0x1025 PUSH2 0x1729 JUMP JUMPDEST EQ PUSH2 0x1072 JUMPI PUSH1 0x40 MLOAD PUSH3 0x461BCD PUSH1 0xE5 SHL DUP2 MSTORE PUSH1 0x20 PUSH1 0x4 DUP3 ADD MSTORE PUSH1 0x17 PUSH1 0x24 DUP3 ADD MSTORE PUSH32 0x2073656E64207072697A652077726F6E67207374617465000000000000000000 PUSH1 0x44 DUP3 ADD MSTORE PUSH1 0x64 ADD PUSH2 0x715 JUMP JUMPDEST PUSH1 0x10 SLOAD SELFBALANCE SWAP1 PUSH1 0xFF AND PUSH2 0x1183 JUMPI PUSH1 0x0 DUP1 PUSH2 0x1093 PUSH1 0x0 SLOAD PUSH1 0x1 PUSH1 0x1 PUSH1 0xA0 SHL SUB AND SWAP1 JUMP JUMPDEST PUSH1 0x1 PUSH1 0x1 PUSH1 0xA0 SHL SUB AND PUSH1 0x64 PUSH1 0xA SLOAD DUP6 PUSH2 0x10AC SWAP2 SWAP1 PUSH2 0x19E9 JUMP JUMPDEST PUSH2 0x10B6 SWAP2 SWAP1 PUSH2 0x197E JUMP JUMPDEST PUSH1 0x40 MLOAD PUSH1 0x0 DUP2 DUP2 DUP2 DUP6 DUP8 GAS CALL SWAP3 POP POP POP RETURNDATASIZE DUP1 PUSH1 0x0 DUP2 EQ PUSH2 0x10F2 JUMPI PUSH1 0x40 MLOAD SWAP2 POP PUSH1 0x1F NOT PUSH1 0x3F RETURNDATASIZE ADD AND DUP3 ADD PUSH1 0x40 MSTORE RETURNDATASIZE DUP3 MSTORE RETURNDATASIZE PUSH1 0x0 PUSH1 0x20 DUP5 ADD RETURNDATACOPY PUSH2 0x10F7 JUMP JUMPDEST PUSH1 0x60 SWAP2 POP JUMPDEST POP PUSH1 0x10 DUP1 SLOAD PUSH1 0xFF NOT AND DUP4 ISZERO ISZERO SWAP1 DUP2 OR SWAP1 SWAP2 SSTORE SWAP2 SWAP4 POP SWAP2 POP PUSH1 0xFF AND PUSH2 0x1180 JUMPI PUSH1 0x0 SLOAD PUSH1 0x1 PUSH1 0x1 PUSH1 0xA0 SHL SUB AND PUSH1 0x1 PUSH1 0x1 PUSH1 0xA0 SHL SUB AND PUSH32 0x7A4C4FDF5D3172470D96D64C965B30DE694852175EFC7A6B546FB3BDBF76D178 PUSH1 0x64 PUSH1 0xA SLOAD DUP7 PUSH2 0x115B SWAP2 SWAP1 PUSH2 0x19E9 JUMP JUMPDEST PUSH2 0x1165 SWAP2 SWAP1 PUSH2 0x197E JUMP JUMPDEST PUSH1 0x40 MLOAD SWAP1 DUP2 MSTORE PUSH1 0x20 ADD PUSH1 0x40 MLOAD DUP1 SWAP2 SUB SWAP1 LOG2 PUSH1 0x1 SWAP4 POP POP POP POP SWAP1 JUMP JUMPDEST POP POP JUMPDEST PUSH1 0x3 SLOAD PUSH1 0x9 SLOAD PUSH1 0x0 SWAP2 DUP3 SWAP2 PUSH1 0x1 PUSH1 0x1 PUSH1 0xA0 SHL SUB SWAP1 SWAP2 AND SWAP1 PUSH1 0x64 SWAP1 PUSH2 0x11A7 SWAP1 DUP7 PUSH2 0x19E9 JUMP JUMPDEST PUSH2 0x11B1 SWAP2 SWAP1 PUSH2 0x197E JUMP JUMPDEST PUSH1 0x40 MLOAD PUSH1 0x0 DUP2 DUP2 DUP2 DUP6 DUP8 GAS CALL SWAP3 POP POP POP RETURNDATASIZE DUP1 PUSH1 0x0 DUP2 EQ PUSH2 0x11ED JUMPI PUSH1 0x40 MLOAD SWAP2 POP PUSH1 0x1F NOT PUSH1 0x3F RETURNDATASIZE ADD AND DUP3 ADD PUSH1 0x40 MSTORE RETURNDATASIZE DUP3 MSTORE RETURNDATASIZE PUSH1 0x0 PUSH1 0x20 DUP5 ADD RETURNDATACOPY PUSH2 0x11F2 JUMP JUMPDEST PUSH1 0x60 SWAP2 POP JUMPDEST POP SWAP2 POP SWAP2 POP DUP2 PUSH2 0x123D JUMPI PUSH1 0x3 SLOAD PUSH1 0x9 SLOAD PUSH1 0x1 PUSH1 0x1 PUSH1 0xA0 SHL SUB SWAP1 SWAP2 AND SWAP1 PUSH32 0x977E2C32BE07C8AA27BFE58F2BF200E11ECA859B94D36E76E645FCAF1D4CC946 SWAP1 PUSH1 0x64 SWAP1 PUSH2 0x115B SWAP1 DUP8 PUSH2 0x19E9 JUMP JUMPDEST PUSH1 0x0 SWAP4 POP POP POP POP SWAP1 JUMP JUMPDEST PUSH1 0x0 DUP1 SLOAD PUSH1 0x1 PUSH1 0x1 PUSH1 0xA0 SHL SUB DUP4 DUP2 AND PUSH1 0x1 PUSH1 0x1 PUSH1 0xA0 SHL SUB NOT DUP4 AND DUP2 OR DUP5 SSTORE PUSH1 0x40 MLOAD SWAP2 SWAP1 SWAP3 AND SWAP3 DUP4 SWAP2 PUSH32 0x8BE0079C531659141344CD1FD0A4F28419497F9722A3DAAFE3B4186F6B6457E0 SWAP2 SWAP1 LOG3 POP POP JUMP JUMPDEST PUSH1 0x0 JUMPDEST PUSH1 0x2 SLOAD PUSH1 0xFF DUP3 AND LT ISZERO PUSH2 0x13EF JUMPI PUSH1 0x0 DUP1 PUSH1 0x2 DUP4 PUSH1 0xFF AND DUP2 SLOAD DUP2 LT PUSH2 0x12C0 JUMPI PUSH2 0x12C0 PUSH2 0x19D3 JUMP JUMPDEST PUSH1 0x0 SWAP2 DUP3 MSTORE PUSH1 0x20 DUP3 KECCAK256 ADD SLOAD PUSH1 0x7 SLOAD PUSH1 0x40 MLOAD PUSH1 0x1 PUSH1 0x1 PUSH1 0xA0 SHL SUB SWAP1 SWAP3 AND SWAP3 SWAP1 SWAP2 SWAP1 DUP2 DUP2 DUP2 DUP6 DUP8 GAS CALL SWAP3 POP POP POP RETURNDATASIZE DUP1 PUSH1 0x0 DUP2 EQ PUSH2 0x1317 JUMPI PUSH1 0x40 MLOAD SWAP2 POP PUSH1 0x1F NOT PUSH1 0x3F RETURNDATASIZE ADD AND DUP3 ADD PUSH1 0x40 MSTORE RETURNDATASIZE DUP3 MSTORE RETURNDATASIZE PUSH1 0x0 PUSH1 0x20 DUP5 ADD RETURNDATACOPY PUSH2 0x131C JUMP JUMPDEST PUSH1 0x60 SWAP2 POP JUMPDEST POP SWAP2 POP SWAP2 POP PUSH1 0x0 PUSH1 0x8 PUSH1 0x0 PUSH1 0x2 DUP7 PUSH1 0xFF AND DUP2 SLOAD DUP2 LT PUSH2 0x133D JUMPI PUSH2 0x133D PUSH2 0x19D3 JUMP JUMPDEST PUSH1 0x0 SWAP2 DUP3 MSTORE PUSH1 0x20 DUP1 DUP4 KECCAK256 SWAP2 SWAP1 SWAP2 ADD SLOAD PUSH1 0x1 PUSH1 0x1 PUSH1 0xA0 SHL SUB AND DUP4 MSTORE DUP3 ADD SWAP3 SWAP1 SWAP3 MSTORE PUSH1 0x40 ADD SWAP1 KECCAK256 DUP1 SLOAD PUSH1 0xFF NOT AND SWAP2 ISZERO ISZERO SWAP2 SWAP1 SWAP2 OR SWAP1 SSTORE DUP2 PUSH2 0x13DA JUMPI PUSH1 0x2 DUP4 PUSH1 0xFF AND DUP2 SLOAD DUP2 LT PUSH2 0x138C JUMPI PUSH2 0x138C PUSH2 0x19D3 JUMP JUMPDEST PUSH1 0x0 SWAP2 DUP3 MSTORE PUSH1 0x20 SWAP2 DUP3 SWAP1 KECCAK256 ADD SLOAD PUSH1 0x7 SLOAD PUSH1 0x40 MLOAD SWAP1 DUP2 MSTORE PUSH1 0x1 PUSH1 0x1 PUSH1 0xA0 SHL SUB SWAP1 SWAP2 AND SWAP2 PUSH32 0x1198B3902400A4722F08A21EB834E8F872109A5DAB83213639D3670A10D8D40A SWAP2 ADD PUSH1 0x40 MLOAD DUP1 SWAP2 SUB SWAP1 LOG2 JUMPDEST POP POP DUP1 DUP1 PUSH2 0x13E7 SWAP1 PUSH2 0x1A08 JUMP JUMPDEST SWAP2 POP POP PUSH2 0x129A JUMP JUMPDEST POP PUSH2 0x962 PUSH2 0x14E4 JUMP JUMPDEST PUSH1 0x2 PUSH1 0x0 DUP2 SLOAD DUP2 LT PUSH2 0x140C JUMPI PUSH2 0x140C PUSH2 0x19D3 JUMP JUMPDEST PUSH1 0x0 SWAP2 DUP3 MSTORE PUSH1 0x20 SWAP1 SWAP2 KECCAK256 ADD SLOAD PUSH1 0x2 DUP1 SLOAD PUSH1 0x1 PUSH1 0x1 PUSH1 0xA0 SHL SUB SWAP1 SWAP3 AND SWAP2 PUSH1 0x1 SWAP1 DUP2 LT PUSH2 0x1439 JUMPI PUSH2 0x1439 PUSH2 0x19D3 JUMP JUMPDEST PUSH1 0x0 SWAP2 DUP3 MSTORE PUSH1 0x20 SWAP1 SWAP2 KECCAK256 ADD SLOAD PUSH1 0x2 DUP1 SLOAD PUSH1 0x1 PUSH1 0x1 PUSH1 0xA0 SHL SUB SWAP1 SWAP3 AND SWAP2 PUSH2 0x1461 SWAP1 PUSH1 0x1 SWAP1 PUSH2 0x19A8 JUMP JUMPDEST DUP2 SLOAD DUP2 LT PUSH2 0x1471 JUMPI PUSH2 0x1471 PUSH2 0x19D3 JUMP JUMPDEST PUSH1 0x0 SWAP2 DUP3 MSTORE PUSH1 0x20 SWAP2 DUP3 SWAP1 KECCAK256 ADD SLOAD PUSH1 0x40 MLOAD PUSH12 0xFFFFFFFFFFFFFFFFFFFFFFFF NOT PUSH1 0x60 SWAP6 DUP7 SHL DUP2 AND SWAP4 DUP3 ADD SWAP4 SWAP1 SWAP4 MSTORE SWAP3 DUP5 SHL DUP3 AND PUSH1 0x34 DUP5 ADD MSTORE SWAP1 SWAP3 SHL SWAP1 SWAP2 AND PUSH1 0x48 DUP3 ADD MSTORE DIFFICULTY PUSH1 0x5C DUP3 ADD MSTORE TIMESTAMP PUSH1 0x7C DUP3 ADD MSTORE PUSH1 0x9C ADD PUSH1 0x40 DUP1 MLOAD PUSH1 0x1F NOT DUP2 DUP5 SUB ADD DUP2 MSTORE SWAP2 SWAP1 MSTORE DUP1 MLOAD PUSH1 0x20 SWAP1 SWAP2 ADD KECCAK256 PUSH1 0x4 SSTORE PUSH2 0x962 PUSH2 0x158B JUMP JUMPDEST PUSH1 0x0 JUMPDEST PUSH1 0x2 SLOAD PUSH1 0xFF DUP3 AND LT ISZERO PUSH2 0x1556 JUMPI PUSH1 0x0 PUSH1 0x8 PUSH1 0x0 PUSH1 0x2 DUP5 PUSH1 0xFF AND DUP2 SLOAD DUP2 LT PUSH2 0x1510 JUMPI PUSH2 0x1510 PUSH2 0x19D3 JUMP JUMPDEST PUSH1 0x0 SWAP2 DUP3 MSTORE PUSH1 0x20 DUP1 DUP4 KECCAK256 SWAP2 SWAP1 SWAP2 ADD SLOAD PUSH1 0x1 PUSH1 0x1 PUSH1 0xA0 SHL SUB AND DUP4 MSTORE DUP3 ADD SWAP3 SWAP1 SWAP3 MSTORE PUSH1 0x40 ADD SWAP1 KECCAK256 DUP1 SLOAD PUSH1 0xFF NOT AND SWAP2 ISZERO ISZERO SWAP2 SWAP1 SWAP2 OR SWAP1 SSTORE DUP1 PUSH2 0x154E DUP2 PUSH2 0x1A08 JUMP JUMPDEST SWAP2 POP POP PUSH2 0x14E7 JUMP JUMPDEST POP PUSH1 0x40 DUP1 MLOAD PUSH1 0x0 DUP2 MSTORE PUSH1 0x20 DUP2 ADD SWAP2 DUP3 SWAP1 MSTORE MLOAD PUSH2 0x1574 SWAP2 PUSH1 0x2 SWAP2 PUSH2 0x166D JUMP JUMPDEST POP PUSH1 0x10 DUP1 SLOAD PUSH1 0x0 PUSH1 0xD SSTORE PUSH2 0xFFFF NOT AND PUSH2 0x100 OR SWAP1 SSTORE JUMP JUMPDEST PUSH1 0x0 PUSH1 0x4 SLOAD PUSH1 0x0 SUB PUSH2 0x15D6 JUMPI PUSH1 0x40 MLOAD PUSH3 0x461BCD PUSH1 0xE5 SHL DUP2 MSTORE PUSH1 0x20 PUSH1 0x4 DUP3 ADD MSTORE PUSH1 0x14 PUSH1 0x24 DUP3 ADD MSTORE PUSH20 0x63616E742066696E642072616E646F6D6E657373 PUSH1 0x60 SHL PUSH1 0x44 DUP3 ADD MSTORE PUSH1 0x64 ADD PUSH2 0x715 JUMP JUMPDEST PUSH1 0x2 SLOAD PUSH1 0x4 SLOAD PUSH1 0x0 SWAP2 PUSH2 0x15E8 SWAP2 PUSH2 0x19BF JUMP JUMPDEST SWAP1 POP PUSH1 0x2 DUP2 DUP2 SLOAD DUP2 LT PUSH2 0x15FD JUMPI PUSH2 0x15FD PUSH2 0x19D3 JUMP JUMPDEST PUSH1 0x0 SWAP2 DUP3 MSTORE PUSH1 0x20 SWAP1 SWAP2 KECCAK256 ADD SLOAD PUSH1 0x3 DUP1 SLOAD PUSH1 0x1 PUSH1 0x1 PUSH1 0xA0 SHL SUB NOT AND PUSH1 0x1 PUSH1 0x1 PUSH1 0xA0 SHL SUB SWAP1 SWAP3 AND SWAP2 SWAP1 SWAP2 OR SWAP1 SSTORE PUSH2 0x1630 PUSH2 0x1005 JUMP JUMPDEST SWAP2 POP DUP2 PUSH1 0x0 SUB PUSH2 0x1646 JUMPI PUSH2 0x1642 PUSH2 0x14E4 JUMP JUMPDEST POP POP JUMP JUMPDEST PUSH1 0xD SLOAD PUSH2 0x1654 SWAP1 PUSH1 0x1 PUSH2 0x1937 JUMP JUMPDEST PUSH1 0xD DUP2 SWAP1 SSTORE PUSH1 0x3 SUB PUSH2 0x1642 JUMPI PUSH1 0x0 PUSH1 0xD SSTORE PUSH2 0x1642 PUSH2 0x13F8 JUMP JUMPDEST DUP3 DUP1 SLOAD DUP3 DUP3 SSTORE SWAP1 PUSH1 0x0 MSTORE PUSH1 0x20 PUSH1 0x0 KECCAK256 SWAP1 DUP2 ADD SWAP3 DUP3 ISZERO PUSH2 0x16C2 JUMPI SWAP2 PUSH1 0x20 MUL DUP3 ADD JUMPDEST DUP3 DUP2 GT ISZERO PUSH2 0x16C2 JUMPI DUP3 MLOAD DUP3 SLOAD PUSH1 0x1 PUSH1 0x1 PUSH1 0xA0 SHL SUB NOT AND PUSH1 0x1 PUSH1 0x1 PUSH1 0xA0 SHL SUB SWAP1 SWAP2 AND OR DUP3 SSTORE PUSH1 0x20 SWAP1 SWAP3 ADD SWAP2 PUSH1 0x1 SWAP1 SWAP2 ADD SWAP1 PUSH2 0x168D JUMP JUMPDEST POP PUSH2 0x16CE SWAP3 SWAP2 POP PUSH2 0x16D2 JUMP JUMPDEST POP SWAP1 JUMP JUMPDEST JUMPDEST DUP1 DUP3 GT ISZERO PUSH2 0x16CE JUMPI PUSH1 0x0 DUP2 SSTORE PUSH1 0x1 ADD PUSH2 0x16D3 JUMP JUMPDEST PUSH1 0x0 PUSH1 0x20 DUP3 DUP5 SUB SLT ISZERO PUSH2 0x16F9 JUMPI PUSH1 0x0 DUP1 REVERT JUMPDEST DUP2 CALLDATALOAD PUSH1 0x1 PUSH1 0x1 PUSH1 0xA0 SHL SUB DUP2 AND DUP2 EQ PUSH2 0xE53 JUMPI PUSH1 0x0 DUP1 REVERT JUMPDEST PUSH1 0x0 PUSH1 0x20 DUP3 DUP5 SUB SLT ISZERO PUSH2 0x1722 JUMPI PUSH1 0x0 DUP1 REVERT JUMPDEST POP CALLDATALOAD SWAP2 SWAP1 POP JUMP JUMPDEST PUSH4 0x4E487B71 PUSH1 0xE0 SHL PUSH1 0x0 MSTORE PUSH1 0x21 PUSH1 0x4 MSTORE PUSH1 0x24 PUSH1 0x0 REVERT JUMPDEST PUSH1 0x20 DUP2 ADD PUSH1 0x3 DUP4 LT PUSH2 0x1753 JUMPI PUSH2 0x1753 PUSH2 0x1729 JUMP JUMPDEST SWAP2 SWAP1 MSTORE SWAP1 JUMP JUMPDEST PUSH1 0x20 DUP2 ADD PUSH1 0x2 DUP4 LT PUSH2 0x1753 JUMPI PUSH2 0x1753 PUSH2 0x1729 JUMP JUMPDEST PUSH1 0x0 DUP1 PUSH1 0x0 PUSH1 0x60 DUP5 DUP7 SUB SLT ISZERO PUSH2 0x1782 JUMPI PUSH1 0x0 DUP1 REVERT JUMPDEST POP POP DUP2 CALLDATALOAD SWAP4 PUSH1 0x20 DUP4 ADD CALLDATALOAD SWAP4 POP PUSH1 0x40 SWAP1 SWAP3 ADD CALLDATALOAD SWAP2 SWAP1 POP JUMP JUMPDEST PUSH1 0x0 PUSH1 0x20 DUP3 DUP5 SUB SLT ISZERO PUSH2 0x17AB JUMPI PUSH1 0x0 DUP1 REVERT JUMPDEST POP MLOAD SWAP2 SWAP1 POP JUMP JUMPDEST PUSH1 0x0 PUSH1 0x20 DUP3 DUP5 SUB SLT ISZERO PUSH2 0x17C4 JUMPI PUSH1 0x0 DUP1 REVERT JUMPDEST DUP2 MLOAD DUP1 ISZERO ISZERO DUP2 EQ PUSH2 0xE53 JUMPI PUSH1 0x0 DUP1 REVERT JUMPDEST PUSH1 0x20 DUP1 DUP3 MSTORE PUSH1 0x1F SWAP1 DUP3 ADD MSTORE PUSH32 0x5265656E7472616E637947756172643A207265656E7472616E742063616C6C00 PUSH1 0x40 DUP3 ADD MSTORE PUSH1 0x60 ADD SWAP1 JUMP JUMPDEST PUSH1 0x20 DUP1 DUP3 MSTORE PUSH1 0xF SWAP1 DUP3 ADD MSTORE PUSH15 0x131BDD1D195C9E4814DD1BDC1C1959 PUSH1 0x8A SHL PUSH1 0x40 DUP3 ADD MSTORE PUSH1 0x60 ADD SWAP1 JUMP JUMPDEST PUSH1 0x0 JUMPDEST DUP4 DUP2 LT ISZERO PUSH2 0x184F JUMPI DUP2 DUP2 ADD MLOAD DUP4 DUP3 ADD MSTORE PUSH1 0x20 ADD PUSH2 0x1837 JUMP JUMPDEST DUP4 DUP2 GT ISZERO PUSH2 0x185E JUMPI PUSH1 0x0 DUP5 DUP5 ADD MSTORE JUMPDEST POP POP POP POP JUMP JUMPDEST PUSH32 0x456E74727920666565206D75737420626520657175616C20746F3A2000000000 DUP2 MSTORE PUSH1 0x0 DUP3 MLOAD PUSH2 0x189C DUP2 PUSH1 0x1C DUP6 ADD PUSH1 0x20 DUP8 ADD PUSH2 0x1834 JUMP JUMPDEST PUSH4 0x408AE8D PUSH1 0xE3 SHL PUSH1 0x1C SWAP4 SWAP1 SWAP2 ADD SWAP3 DUP4 ADD MSTORE POP PUSH1 0x20 ADD SWAP2 SWAP1 POP JUMP JUMPDEST PUSH1 0x20 DUP2 MSTORE PUSH1 0x0 DUP3 MLOAD DUP1 PUSH1 0x20 DUP5 ADD MSTORE PUSH2 0x18D6 DUP2 PUSH1 0x40 DUP6 ADD PUSH1 0x20 DUP8 ADD PUSH2 0x1834 JUMP JUMPDEST PUSH1 0x1F ADD PUSH1 0x1F NOT AND SWAP2 SWAP1 SWAP2 ADD PUSH1 0x40 ADD SWAP3 SWAP2 POP POP JUMP JUMPDEST PUSH1 0x20 DUP1 DUP3 MSTORE PUSH1 0x1D SWAP1 DUP3 ADD MSTORE PUSH32 0x43616E204E6F74207768696C65206C6F7474657279206F6E676F696E67000000 PUSH1 0x40 DUP3 ADD MSTORE PUSH1 0x60 ADD SWAP1 JUMP JUMPDEST PUSH4 0x4E487B71 PUSH1 0xE0 SHL PUSH1 0x0 MSTORE PUSH1 0x11 PUSH1 0x4 MSTORE PUSH1 0x24 PUSH1 0x0 REVERT JUMPDEST PUSH1 0x0 DUP3 NOT DUP3 GT ISZERO PUSH2 0x194A JUMPI PUSH2 0x194A PUSH2 0x1921 JUMP JUMPDEST POP ADD SWAP1 JUMP JUMPDEST PUSH1 0x0 PUSH1 0x1 DUP3 ADD PUSH2 0x1961 JUMPI PUSH2 0x1961 PUSH2 0x1921 JUMP JUMPDEST POP PUSH1 0x1 ADD SWAP1 JUMP JUMPDEST PUSH4 0x4E487B71 PUSH1 0xE0 SHL PUSH1 0x0 MSTORE PUSH1 0x12 PUSH1 0x4 MSTORE PUSH1 0x24 PUSH1 0x0 REVERT JUMPDEST PUSH1 0x0 DUP3 PUSH2 0x198D JUMPI PUSH2 0x198D PUSH2 0x1968 JUMP JUMPDEST POP DIV SWAP1 JUMP JUMPDEST PUSH4 0x4E487B71 PUSH1 0xE0 SHL PUSH1 0x0 MSTORE PUSH1 0x41 PUSH1 0x4 MSTORE PUSH1 0x24 PUSH1 0x0 REVERT JUMPDEST PUSH1 0x0 DUP3 DUP3 LT ISZERO PUSH2 0x19BA JUMPI PUSH2 0x19BA PUSH2 0x1921 JUMP JUMPDEST POP SUB SWAP1 JUMP JUMPDEST PUSH1 0x0 DUP3 PUSH2 0x19CE JUMPI PUSH2 0x19CE PUSH2 0x1968 JUMP JUMPDEST POP MOD SWAP1 JUMP JUMPDEST PUSH4 0x4E487B71 PUSH1 0xE0 SHL PUSH1 0x0 MSTORE PUSH1 0x32 PUSH1 0x4 MSTORE PUSH1 0x24 PUSH1 0x0 REVERT JUMPDEST PUSH1 0x0 DUP2 PUSH1 0x0 NOT DIV DUP4 GT DUP3 ISZERO ISZERO AND ISZERO PUSH2 0x1A03 JUMPI PUSH2 0x1A03 PUSH2 0x1921 JUMP JUMPDEST POP MUL SWAP1 JUMP JUMPDEST PUSH1 0x0 PUSH1 0xFF DUP3 AND PUSH1 0xFF DUP2 SUB PUSH2 0x1A1E JUMPI PUSH2 0x1A1E PUSH2 0x1921 JUMP JUMPDEST PUSH1 0x1 ADD SWAP3 SWAP2 POP POP JUMP INVALID LOG2 PUSH5 0x6970667358 0x22 SLT KECCAK256 DUP12 CHAINID 0xC6 0x27 0xE6 0xB7 PUSH16 0x1225CD27A0F5ECA081456248A46C3AF0 0x5F 0xEB XOR ADDMOD PUSH31 0x601B1A5564736F6C634300080E003300000000000000000000000000000000 ",
    "sha1": "114131d2b9b53cd37da65623e8f17a86205ef631",
    "source": "pragma solidity ^0.8.13;\n\n//import \"@openzeppelin/contracts/token/ERC20/ERC20.sol\";\nimport \"@openzeppelin/contracts/access/Ownable.sol\";\nimport \"@openzeppelin/contracts/security/ReentrancyGuard.sol\";\n//import \"@chainlink/contracts/src/v0.8/interfaces/AggregatorV3Interface.sol\";\nimport \"@chainlink/contracts/src/v0.8/VRFConsumerBase.sol\";\nimport \"@openzeppelin/contracts/utils/Strings.sol\";\n\ninterface IERC20 {\n    function totalSupply() external view returns (uint256);\n\n    function balanceOf(address account) external view returns (uint256);\n\n    function transfer(address recipient, uint256 amount)\n        external\n        returns (bool);\n\n    function allowance(address owner, address spender)\n        external\n        view\n        returns (uint256);\n\n    function approve(address spender, uint256 amount) external returns (bool);\n\n    function transferFrom(\n        address sender,\n        address recipient,\n        uint256 amount\n    ) external returns (bool);\n\n    event Transfer(address indexed from, address indexed to, uint256 value);\n    event Approval(\n        address indexed owner,\n        address indexed spender,\n        uint256 value\n    );\n}\n\ncontract MyLottery is Ownable, ReentrancyGuard {\n    address payable[] public players;\n    address payable public recentWinner;\n    //address public link;\n    uint256 public randomness;\n    uint256 public minumumParticipants;\n    uint256 public maximumParticipants;\n    uint256 public EntryFee;\n    mapping(address => bool) public isUserEntered;\n    //AggregatorV3Interface internal ethUsdPriceFeed;\n    uint256 public pricePercent;\n    uint256 public ownerPercent;\n    uint256 public contractPercent;\n    uint256 public maxTryCounter;\n    uint256 public errorFlag;\n    uint256 public lotteryStart;\n    uint256 public lotteryDuration;\n    bool public ownerSent;\n    //bool public winnerSent;\n\n    //timestamp ekliyip closeda required bilmem kac saat geçmeden bitemez\n\n    //maxTryCounter  end lottery icin calismali\n    //CALCULATING_WINNER da takilabilir\n    //lottery no id filan belki 1 le başlıyıp artırıp\n    // kazanan için emit event tutar filan\n    //hiç kimse katılmamışsa end lotterye gerek yok ilerde python schedule event lazım olucak\n\n    enum LOTTERY_STATE {\n        OPEN,\n        CLOSED,\n        CALCULATING_WINNER\n    }\n    LOTTERY_STATE public lottery_state;\n\n    enum EMERGENCY {\n        STOPPED,\n        NOT_STOPPED\n    }\n    EMERGENCY public emergency;\n    uint256 public fee;\n    bytes32 public keyhash;\n    event RequestedRandomness(bytes32 requestId);\n    //event ethSendError(address cannotEthSend);\n    event cantSendEthOwner(address indexed to, uint256 value);\n    event cantSendEthWinner(address indexed to, uint256 value);\n    event cantSendEthParticipants(address indexed to, uint256 value);\n\n    // 0\n    // 1\n    // 2\n\n    constructor() public {\n        EntryFee = 0.05 * (10**18); //bura deiscek\n        lottery_state = LOTTERY_STATE.CLOSED;\n        emergency = EMERGENCY.NOT_STOPPED;\n        minumumParticipants = 3;\n        maximumParticipants = 100;\n        pricePercent = 65;\n        ownerPercent = 20;\n        contractPercent = 15;\n        maxTryCounter = 3;\n        lotteryDuration = 300; //28800 saniye 8 saat\n    }\n\n    /*nonReentrant*/\n    function enter_lottery() public payable nonReentrant {\n        require(isUserEntered[msg.sender] == false, \"Already entered\");\n        isUserEntered[msg.sender] = true;\n        require(lottery_state == LOTTERY_STATE.OPEN, \"Lottery Not started\");\n        require((emergency == EMERGENCY.NOT_STOPPED), \"Lottery Stopped\");\n        require(\n            msg.value == EntryFee,\n            string.concat(\n                \"Entry fee must be equal to: \",\n                Strings.toString(EntryFee),\n                \" Eth\"\n            )\n        );\n        require(\n            players.length <= maximumParticipants,\n            \"Maximum Number reached for  lottery\"\n        );\n\n        players.push(payable(msg.sender));\n    }\n\n    function start_lottery() public nonReentrant {\n        require(\n            lottery_state == LOTTERY_STATE.CLOSED,\n            \"Lottery Already started\"\n        );\n        require(emergency == EMERGENCY.NOT_STOPPED, \"Lottery Stopped\");\n        lottery_state = LOTTERY_STATE.OPEN;\n        randomness = 0;\n        lotteryStart = block.timestamp;\n    }\n\n    function end_lottery() public nonReentrant {\n        require(lottery_state == LOTTERY_STATE.OPEN, \"Lottery Not started\");\n        require(emergency == EMERGENCY.NOT_STOPPED, \"Lottery Stopped\");\n        require(\n            block.timestamp > (lotteryStart + lotteryDuration),\n            \"min lottery duration not passed\"\n        );\n        //some\n        //timestamp requirede gerekiyor\n        if (players.length < minumumParticipants) {\n            not_enough_participant();\n        } else {\n            lottery_state = LOTTERY_STATE.CALCULATING_WINNER;\n            calculate_winner();\n        }\n\n        //ERC20 yeterli link var mı diye kontrol et\n    }\n\n    //if cant find winner something happens buna gerek kalmadi sanki\n    /*function retry_winner() public onlyOwner {\n        require(\n            lottery_state == LOTTERY_STATE.CALCULATING_WINNER,\n            \"wrong state\"\n        );\n        require(randomness == 0, \"not random\");\n        calculate_winner();\n    }*/\n\n    function calculate_winner() internal {\n        //if players.length>\n\n        //another random not very very random\n\n        randomness = uint256(\n            keccak256(\n                abi.encodePacked(\n                    players[0], //  seenable\n                    players[1],\n                    players[players.length - 1],\n                    block.difficulty, // can actually be manipulated by the miners!\n                    block.timestamp // timestamp is predictable\n                )\n            )\n        );\n        afterFinish();\n    }\n\n    function setPrizePercents(\n        uint256 _pricePercent,\n        uint256 _ownerPercent,\n        uint256 _contractPercent\n    ) external onlyOwner {\n        require(\n            lottery_state == LOTTERY_STATE.CLOSED,\n            \"Can Not while lottery ongoing\"\n        );\n        require(\n            lottery_state == LOTTERY_STATE.CLOSED,\n            \"Can Not while lottery ongoing\"\n        );\n        require(\n            _pricePercent + _ownerPercent + _contractPercent <= 100,\n            \"can not over 100\"\n        );\n        require(_pricePercent < 50, \"can not less 50\");\n        pricePercent = _pricePercent;\n        ownerPercent = _ownerPercent;\n        contractPercent = _contractPercent;\n    }\n\n    function setMinumumParticipants(uint256 _minumumParticipants)\n        external\n        onlyOwner\n    {\n        minumumParticipants = _minumumParticipants;\n    }\n\n    function setLotteryDuration(uint256 _duration) external onlyOwner {\n        lotteryDuration = _duration;\n    }\n\n    function setEntranceFee(uint256 _entryFee) external onlyOwner {\n        require(\n            lottery_state == LOTTERY_STATE.CLOSED,\n            \"Can Not while lottery ongoing\"\n        );\n        EntryFee = _entryFee;\n    }\n\n    function setMaximumParticipants(uint256 _maximumParticipants)\n        external\n        onlyOwner\n    {\n        maximumParticipants = _maximumParticipants;\n    }\n\n    function getBalance(address _tokenContractAddress)\n        public\n        view\n        returns (uint256)\n    {\n        uint256 balance = IERC20(_tokenContractAddress).balanceOf(\n            address(this)\n        );\n        return balance;\n    }\n\n    function recoverEth() external onlyOwner {\n        require(\n            lottery_state == LOTTERY_STATE.CLOSED,\n            \"Can Not while lottery ongoing\"\n        );\n        payable(msg.sender).transfer(address(this).balance);\n    }\n\n    function recoverTokens(address tokenAddress) external onlyOwner {\n        IERC20 token = IERC20(tokenAddress);\n        token.transfer(msg.sender, token.balanceOf(address(this)));\n    }\n\n    function afterFinish() internal {\n        //mapping clear unutma\n        uint256 sentFlag = 0;\n        require(randomness != 0, \"cant find randomness\");\n        uint256 indexOfWinner = randomness % players.length;\n        recentWinner = players[indexOfWinner];\n\n        sentFlag = sendPrizes();\n\n        if (sentFlag == 0) {\n            clearPlayers();\n        } else {\n            errorFlag = errorFlag + 1;\n            if (errorFlag == 3) {\n                errorFlag = 0;\n                calculate_winner(); //yeni winner secicez\n            }\n        }\n\n        //require(sent, \"Failed to send Ether\");\n    }\n\n    function retrySendPrizes() external onlyOwner {\n        sendPrizes();\n    }\n\n    function sendPrizes() internal returns (uint256) {\n        require(\n            lottery_state == LOTTERY_STATE.CALCULATING_WINNER,\n            \" send prize wrong state\"\n        );\n        uint256 total_prize = address(this).balance;\n        if (\n            !ownerSent\n        ) //recentWinner.transfer(total_prize * (pricePercent / 100));\n        {\n            (bool sent, bytes memory data) = owner().call{\n                value: (total_prize * ownerPercent) / 100\n            }(\"\");\n            ownerSent = sent;\n            if (!ownerSent) {\n                emit cantSendEthOwner(\n                    owner(),\n                    (total_prize * ownerPercent) / 100\n                );\n                return 1;\n            }\n        }\n\n        (bool sent, bytes memory data) = recentWinner.call{\n            value: (total_prize * pricePercent) / 100\n        }(\"\");\n        if (!sent) {\n            emit cantSendEthWinner(\n                recentWinner,\n                (total_prize * pricePercent) / 100\n            );\n            return 1;\n        }\n        return 0;\n    }\n\n    /*function test(address sender)\n        external\n        returns (\n            uint256,\n            uint256,\n            uint256\n        )\n    {\n        uint256 total_prize = address(this).balance;\n        (bool sent, bytes memory data) = sender.call{\n            value: ((total_prize * pricePercent) / 100)\n        }(\"\");\n        require(sent, \"Failed to send Ether\");\n        uint256 calc_prize = total_prize * (pricePercent / 100);\n        return (calc_prize, total_prize, pricePercent);\n    }*/\n\n    function not_enough_participant() internal {\n        for (uint8 i = 0; i < players.length; i++) {\n            //players[i].transfer(EntryFee);\n            // burasi değişecek\n            (bool sent, bytes memory data) = players[i].call{value: EntryFee}(\n                \"\"\n            );\n            isUserEntered[players[i]] = false;\n            //require(sent, \"Failed to send Ether\");\n            if (!sent) {\n                emit cantSendEthParticipants(players[i], EntryFee);\n            }\n        }\n        clearPlayers();\n    }\n\n    function transferOwner(address newOwner) external onlyOwner {\n        transferOwnership(newOwner);\n    }\n\n    function clearPlayers() internal {\n        for (uint8 i = 0; i < players.length; i++) {\n            isUserEntered[players[i]] = false;\n        }\n        players = new address payable[](0);\n        lottery_state = LOTTERY_STATE.CLOSED;\n        errorFlag = 0;\n        ownerSent = false;\n        //randomness = 0;\n    }\n}\n",
    "sourcePath": "contracts/MyLottery.sol",
    "deployment": {
        "address": "0x4F598FbfD964b567E09c23eaF507a4FA4d186458",
        "chainid": "97",
        "blockHeight": 23961200
    }
}