{"abi":[{"inputs":[],"stateMutability":"nonpayable","type":"constructor","name":"constructor"},{"anonymous":false,"inputs":[{"indexed":true,"internalType":"address","name":"previousOwner","type":"address"},{"indexed":true,"internalType":"address","name":"newOwner","type":"address"}],"name":"OwnershipTransferred","type":"event"},{"anonymous":false,"inputs":[{"indexed":false,"internalType":"bytes32","name":"requestId","type":"bytes32"}],"name":"RequestedRandomness","type":"event"},{"anonymous":false,"inputs":[{"indexed":true,"internalType":"address","name":"to","type":"address"},{"indexed":false,"internalType":"uint256","name":"value","type":"uint256"}],"name":"cantSendEthOwner","type":"event"},{"anonymous":false,"inputs":[{"indexed":true,"internalType":"address","name":"to","type":"address"},{"indexed":false,"internalType":"uint256","name":"value","type":"uint256"}],"name":"cantSendEthParticipants","type":"event"},{"anonymous":false,"inputs":[{"indexed":true,"internalType":"address","name":"to","type":"address"},{"indexed":false,"internalType":"uint256","name":"value","type":"uint256"}],"name":"cantSendEthWinner","type":"event"},{"inputs":[],"name":"EntryFee","outputs":[{"internalType":"uint256","name":"","type":"uint256"}],"stateMutability":"view","type":"function"},{"inputs":[],"name":"contractPercent","outputs":[{"internalType":"uint256","name":"","type":"uint256"}],"stateMutability":"view","type":"function"},{"inputs":[],"name":"emergency","outputs":[{"internalType":"enum MyLottery.EMERGENCY","name":"","type":"uint8"}],"stateMutability":"view","type":"function"},{"inputs":[],"name":"end_lottery","outputs":[],"stateMutability":"nonpayable","type":"function"},{"inputs":[],"name":"enter_lottery","outputs":[],"stateMutability":"payable","type":"function"},{"inputs":[],"name":"errorFlag","outputs":[{"internalType":"uint256","name":"","type":"uint256"}],"stateMutability":"view","type":"function"},{"inputs":[],"name":"fee","outputs":[{"internalType":"uint256","name":"","type":"uint256"}],"stateMutability":"view","type":"function"},{"inputs":[{"internalType":"address","name":"_tokenContractAddress","type":"address"}],"name":"getBalance","outputs":[{"internalType":"uint256","name":"","type":"uint256"}],"stateMutability":"view","type":"function"},{"inputs":[{"internalType":"address","name":"","type":"address"}],"name":"isUserEntered","outputs":[{"internalType":"bool","name":"","type":"bool"}],"stateMutability":"view","type":"function"},{"inputs":[],"name":"keyhash","outputs":[{"internalType":"bytes32","name":"","type":"bytes32"}],"stateMutability":"view","type":"function"},{"inputs":[],"name":"lotteryDuration","outputs":[{"internalType":"uint256","name":"","type":"uint256"}],"stateMutability":"view","type":"function"},{"inputs":[],"name":"lotteryEnd","outputs":[{"internalType":"uint256","name":"","type":"uint256"}],"stateMutability":"view","type":"function"},{"inputs":[],"name":"lotteryPrepDuration","outputs":[{"internalType":"uint256","name":"","type":"uint256"}],"stateMutability":"view","type":"function"},{"inputs":[],"name":"lotteryStart","outputs":[{"internalType":"uint256","name":"","type":"uint256"}],"stateMutability":"view","type":"function"},{"inputs":[],"name":"lottery_state","outputs":[{"internalType":"enum MyLottery.LOTTERY_STATE","name":"","type":"uint8"}],"stateMutability":"view","type":"function"},{"inputs":[],"name":"maxTryCounter","outputs":[{"internalType":"uint256","name":"","type":"uint256"}],"stateMutability":"view","type":"function"},{"inputs":[],"name":"maximumParticipants","outputs":[{"internalType":"uint256","name":"","type":"uint256"}],"stateMutability":"view","type":"function"},{"inputs":[],"name":"minumumParticipants","outputs":[{"internalType":"uint256","name":"","type":"uint256"}],"stateMutability":"view","type":"function"},{"inputs":[],"name":"owner","outputs":[{"internalType":"address","name":"","type":"address"}],"stateMutability":"view","type":"function"},{"inputs":[],"name":"ownerPercent","outputs":[{"internalType":"uint256","name":"","type":"uint256"}],"stateMutability":"view","type":"function"},{"inputs":[],"name":"ownerSent","outputs":[{"internalType":"bool","name":"","type":"bool"}],"stateMutability":"view","type":"function"},{"inputs":[{"internalType":"uint256","name":"","type":"uint256"}],"name":"players","outputs":[{"internalType":"address payable","name":"","type":"address"}],"stateMutability":"view","type":"function"},{"inputs":[],"name":"pricePercent","outputs":[{"internalType":"uint256","name":"","type":"uint256"}],"stateMutability":"view","type":"function"},{"inputs":[],"name":"randomness","outputs":[{"internalType":"uint256","name":"","type":"uint256"}],"stateMutability":"view","type":"function"},{"inputs":[],"name":"recentWinner","outputs":[{"internalType":"address payable","name":"","type":"address"}],"stateMutability":"view","type":"function"},{"inputs":[],"name":"recoverEth","outputs":[],"stateMutability":"nonpayable","type":"function"},{"inputs":[{"internalType":"address","name":"tokenAddress","type":"address"}],"name":"recoverTokens","outputs":[],"stateMutability":"nonpayable","type":"function"},{"inputs":[],"name":"renounceOwnership","outputs":[],"stateMutability":"nonpayable","type":"function"},{"inputs":[],"name":"retrySendPrizes","outputs":[],"stateMutability":"nonpayable","type":"function"},{"inputs":[{"internalType":"uint256","name":"_entryFee","type":"uint256"}],"name":"setEntranceFee","outputs":[],"stateMutability":"nonpayable","type":"function"},{"inputs":[{"internalType":"uint256","name":"_duration","type":"uint256"}],"name":"setLotteryDuration","outputs":[],"stateMutability":"nonpayable","type":"function"},{"inputs":[{"internalType":"uint256","name":"_maximumParticipants","type":"uint256"}],"name":"setMaximumParticipants","outputs":[],"stateMutability":"nonpayable","type":"function"},{"inputs":[{"internalType":"uint256","name":"_minumumParticipants","type":"uint256"}],"name":"setMinumumParticipants","outputs":[],"stateMutability":"nonpayable","type":"function"},{"inputs":[{"internalType":"uint256","name":"_pricePercent","type":"uint256"},{"internalType":"uint256","name":"_ownerPercent","type":"uint256"},{"internalType":"uint256","name":"_contractPercent","type":"uint256"}],"name":"setPrizePercents","outputs":[],"stateMutability":"nonpayable","type":"function"},{"inputs":[],"name":"start_lottery","outputs":[],"stateMutability":"nonpayable","type":"function"},{"inputs":[{"internalType":"address","name":"newOwner","type":"address"}],"name":"transferOwner","outputs":[],"stateMutability":"nonpayable","type":"function"},{"inputs":[{"internalType":"address","name":"newOwner","type":"address"}],"name":"transferOwnership","outputs":[],"stateMutability":"nonpayable","type":"function"}],"bytecode":"608060405234801561001057600080fd5b5061001a33610068565b6001805566b1a2bc2ec500006007556012805462ffff0019166201010017905560036005819055606460065560416009556014600a55600f600b55600c5561012c60108190556011556100b8565b600080546001600160a01b038381166001600160a01b0319831681178455604051919092169283917f8be0079c531659141344cd1fd0a4f28419497f9722a3daafe3b4186f6b6457e09190a35050565b611b0d806100c76000396000f3fe60806040526004361061021a5760003560e01c806395d1200011610123578063d70fa7de116100ab578063f2fde38b1161006f578063f2fde38b146105a2578063f71d96cb146105c2578063f8b2cb4f146105e2578063faea18c614610602578063fe56f5a01461061857600080fd5b8063d70fa7de1461052c578063d718aea914610542578063ddca3f4314610557578063ee44abb21461056d578063f2640e101461058257600080fd5b8063bcdb446b116100f2578063bcdb446b1461048e578063be55c9c9146104a3578063caa6fea4146104d3578063cd8cc84414610500578063cf23aa381461051657600080fd5b806395d120001461042c5780639bb5771814610442578063a6d811ea14610458578063b49899171461046e57600080fd5b80634fb2e45d116101a657806369ebe78e1161017557806369ebe78e146103a1578063715018a6146103b757806381447999146103cc57806381fb84fb146103f85780638da5cb5b1461040e57600080fd5b80634fb2e45d14610335578063501d078014610355578063569237101461036b57806359fe8c841461038b57600080fd5b80632d97902f116101ed5780632d97902f146102b457806336013189146102ca578063382e5e7a146102e05780634a8466e9146102e85780634f8c70cf146102fd57600080fd5b8063042834121461021f5780630b3ff2801461024857806316114acd146102725780632b58150b14610294575b600080fd5b34801561022b57600080fd5b5061023560065481565b6040519081526020015b60405180910390f35b34801561025457600080fd5b506012546102629060ff1681565b604051901515815260200161023f565b34801561027e57600080fd5b5061029261028d366004611797565b610638565b005b3480156102a057600080fd5b506102926102af3660046117c0565b610728565b3480156102c057600080fd5b5061023560105481565b3480156102d657600080fd5b5061023560045481565b610292610735565b3480156102f457600080fd5b50610292610961565b34801561030957600080fd5b5060035461031d906001600160a01b031681565b6040516001600160a01b03909116815260200161023f565b34801561034157600080fd5b50610292610350366004611797565b610974565b34801561036157600080fd5b50610235600c5481565b34801561037757600080fd5b506102926103863660046117c0565b610985565b34801561039757600080fd5b5061023560075481565b3480156103ad57600080fd5b5061023560145481565b3480156103c357600080fd5b50610292610992565b3480156103d857600080fd5b506012546103eb90610100900460ff1681565b60405161023f91906117ef565b34801561040457600080fd5b5061023560095481565b34801561041a57600080fd5b506000546001600160a01b031661031d565b34801561043857600080fd5b50610235600a5481565b34801561044e57600080fd5b50610235600b5481565b34801561046457600080fd5b5061023560055481565b34801561047a57600080fd5b506102926104893660046117c0565b6109a6565b34801561049a57600080fd5b506102926109b3565b3480156104af57600080fd5b506102626104be366004611797565b60086020526000908152604090205460ff1681565b3480156104df57600080fd5b506012546104f39062010000900460ff1681565b60405161023f9190611809565b34801561050c57600080fd5b50610235600e5481565b34801561052257600080fd5b5061023560115481565b34801561053857600080fd5b50610235600f5481565b34801561054e57600080fd5b50610292610a22565b34801561056357600080fd5b5061023560135481565b34801561057957600080fd5b50610292610b7a565b34801561058e57600080fd5b5061029261059d36600461181d565b610ccc565b3480156105ae57600080fd5b506102926105bd366004611797565b610df2565b3480156105ce57600080fd5b5061031d6105dd3660046117c0565b610e68565b3480156105ee57600080fd5b506102356105fd366004611797565b610e92565b34801561060e57600080fd5b50610235600d5481565b34801561062457600080fd5b506102926106333660046117c0565b610f06565b610640610f4e565b6040516370a0823160e01b815230600482015281906001600160a01b0382169063a9059cbb90339083906370a0823190602401602060405180830381865afa158015610690573d6000803e3d6000fd5b505050506040513d601f19601f820116820180604052508101906106b49190611849565b6040516001600160e01b031960e085901b1681526001600160a01b03909216600483015260248201526044016020604051808303816000875af11580156106ff573d6000803e3d6000fd5b505050506040513d601f19601f820116820180604052508101906107239190611862565b505050565b610730610f4e565b601055565b6002600154036107605760405162461bcd60e51b815260040161075790611884565b60405180910390fd5b60026001553360009081526008602052604090205460ff16156107b75760405162461bcd60e51b815260206004820152600f60248201526e105b1c9958591e48195b9d195c9959608a1b6044820152606401610757565b336000908152600860205260408120805460ff19166001179055601254610100900460ff1660028111156107ed576107ed6117d9565b146108305760405162461bcd60e51b8152602060048201526013602482015272131bdd1d195c9e48139bdd081cdd185c9d1959606a1b6044820152606401610757565b600160125462010000900460ff16600181111561084f5761084f6117d9565b1461086c5760405162461bcd60e51b8152600401610757906118bb565b600754341461087c600754610fa8565b60405160200161088c9190611914565b604051602081830303815290604052906108b95760405162461bcd60e51b81526004016107579190611967565b50600654600254111561091a5760405162461bcd60e51b815260206004820152602360248201527f4d6178696d756d204e756d626572207265616368656420666f7220206c6f747460448201526265727960e81b6064820152608401610757565b60028054600181810183556000929092527f405787fa12a823e0f2b7631cc41b3ba8828b3321ca811111fa75cd3aa3bb5ace0180546001600160a01b031916331790558055565b610969610f4e565b6109716110b1565b50565b61097c610f4e565b61097181610df2565b61098d610f4e565b600655565b61099a610f4e565b6109a460006112f3565b565b6109ae610f4e565b600555565b6109bb610f4e565b6001601254610100900460ff1660028111156109d9576109d96117d9565b146109f65760405162461bcd60e51b81526004016107579061199a565b60405133904780156108fc02916000818181858888f19350505050158015610971573d6000803e3d6000fd5b600260015403610a445760405162461bcd60e51b815260040161075790611884565b60026001556000601254610100900460ff166002811115610a6757610a676117d9565b14610aaa5760405162461bcd60e51b8152602060048201526013602482015272131bdd1d195c9e48139bdd081cdd185c9d1959606a1b6044820152606401610757565b600160125462010000900460ff166001811115610ac957610ac96117d9565b14610ae65760405162461bcd60e51b8152600401610757906118bb565b601054600e54610af691906119e7565b4211610b445760405162461bcd60e51b815260206004820152601f60248201527f6d696e206c6f7474657279206475726174696f6e206e6f7420706173736564006044820152606401610757565b6005546002541015610b5d57610b58611343565b610b74565b6012805461ff001916610200179055610b746114a4565b60018055565b600260015403610b9c5760405162461bcd60e51b815260040161075790611884565b60026001908155601254610100900460ff166002811115610bbf57610bbf6117d9565b14610c0c5760405162461bcd60e51b815260206004820152601760248201527f4c6f747465727920416c726561647920737461727465640000000000000000006044820152606401610757565b600160125462010000900460ff166001811115610c2b57610c2b6117d9565b14610c485760405162461bcd60e51b8152600401610757906118bb565b601154600f54610c5891906119e7565b4211610cb25760405162461bcd60e51b8152602060048201526024808201527f6d696e206c6f74746572792070726570206475726174696f6e206e6f742070616044820152631cdcd95960e21b6064820152608401610757565b6012805461ff0019169055600060045542600e5560018055565b610cd4610f4e565b6001601254610100900460ff166002811115610cf257610cf26117d9565b14610d0f5760405162461bcd60e51b81526004016107579061199a565b6001601254610100900460ff166002811115610d2d57610d2d6117d9565b14610d4a5760405162461bcd60e51b81526004016107579061199a565b606481610d5784866119e7565b610d6191906119e7565b1115610da25760405162461bcd60e51b815260206004820152601060248201526f063616e206e6f74206f766572203130360841b6044820152606401610757565b60328310610de45760405162461bcd60e51b815260206004820152600f60248201526e063616e206e6f74206c65737320353608c1b6044820152606401610757565b600992909255600a55600b55565b610dfa610f4e565b6001600160a01b038116610e5f5760405162461bcd60e51b815260206004820152602660248201527f4f776e61626c653a206e6577206f776e657220697320746865207a65726f206160448201526564647265737360d01b6064820152608401610757565b610971816112f3565b60028181548110610e7857600080fd5b6000918252602090912001546001600160a01b0316905081565b6040516370a0823160e01b815230600482015260009081906001600160a01b038416906370a0823190602401602060405180830381865afa158015610edb573d6000803e3d6000fd5b505050506040513d601f19601f82011682018060405250810190610eff9190611849565b9392505050565b610f0e610f4e565b6001601254610100900460ff166002811115610f2c57610f2c6117d9565b14610f495760405162461bcd60e51b81526004016107579061199a565b600755565b6000546001600160a01b031633146109a45760405162461bcd60e51b815260206004820181905260248201527f4f776e61626c653a2063616c6c6572206973206e6f7420746865206f776e65726044820152606401610757565b606081600003610fcf5750506040805180820190915260018152600360fc1b602082015290565b8160005b8115610ff95780610fe3816119ff565b9150610ff29050600a83611a2e565b9150610fd3565b60008167ffffffffffffffff81111561101457611014611a42565b6040519080825280601f01601f19166020018201604052801561103e576020820181803683370190505b5090505b84156110a957611053600183611a58565b9150611060600a86611a6f565b61106b9060306119e7565b60f81b81838151811061108057611080611a83565b60200101906001600160f81b031916908160001a9053506110a2600a86611a2e565b9450611042565b949350505050565b60006002601254610100900460ff1660028111156110d1576110d16117d9565b1461111e5760405162461bcd60e51b815260206004820152601760248201527f2073656e64207072697a652077726f6e672073746174650000000000000000006044820152606401610757565b601254479060ff1661122f5760008061113f6000546001600160a01b031690565b6001600160a01b03166064600a54856111589190611a99565b6111629190611a2e565b604051600081818185875af1925050503d806000811461119e576040519150601f19603f3d011682016040523d82523d6000602084013e6111a3565b606091505b506012805460ff1916831515908117909155919350915060ff1661122c576000546001600160a01b03166001600160a01b03167f7a4c4fdf5d3172470d96d64c965b30de694852175efc7a6b546fb3bdbf76d1786064600a54866112079190611a99565b6112119190611a2e565b60405190815260200160405180910390a26001935050505090565b50505b60035460095460009182916001600160a01b03909116906064906112539086611a99565b61125d9190611a2e565b604051600081818185875af1925050503d8060008114611299576040519150601f19603f3d011682016040523d82523d6000602084013e61129e565b606091505b5091509150816112e9576003546009546001600160a01b03909116907f977e2c32be07c8aa27bfe58f2bf200e11eca859b94d36e76e645fcaf1d4cc946906064906112079087611a99565b6000935050505090565b600080546001600160a01b038381166001600160a01b0319831681178455604051919092169283917f8be0079c531659141344cd1fd0a4f28419497f9722a3daafe3b4186f6b6457e09190a35050565b60005b60025460ff8216101561149b5760008060028360ff168154811061136c5761136c611a83565b60009182526020822001546007546040516001600160a01b039092169290919081818185875af1925050503d80600081146113c3576040519150601f19603f3d011682016040523d82523d6000602084013e6113c8565b606091505b509150915060006008600060028660ff16815481106113e9576113e9611a83565b6000918252602080832091909101546001600160a01b031683528201929092526040019020805460ff1916911515919091179055816114865760028360ff168154811061143857611438611a83565b600091825260209182902001546007546040519081526001600160a01b03909116917f1198b3902400a4722f08a21eb834e8f872109a5dab83213639d3670a10d8d40a910160405180910390a25b5050808061149390611ab8565b915050611346565b506109a4611590565b60026000815481106114b8576114b8611a83565b600091825260209091200154600280546001600160a01b039092169160019081106114e5576114e5611a83565b600091825260209091200154600280546001600160a01b039092169161150d90600190611a58565b8154811061151d5761151d611a83565b600091825260209182902001546040516bffffffffffffffffffffffff19606095861b81169382019390935292841b8216603484015290921b909116604882015244605c82015242607c820152609c0160408051601f1981840301815291905280516020909101206004556109a461163b565b60005b60025460ff821610156116025760006008600060028460ff16815481106115bc576115bc611a83565b6000918252602080832091909101546001600160a01b031683528201929092526040019020805460ff1916911515919091179055806115fa81611ab8565b915050611593565b5060408051600081526020810191829052516116209160029161171d565b50601280546000600d5561ffff191661010017905542600f55565b60006004546000036116865760405162461bcd60e51b815260206004820152601460248201527363616e742066696e642072616e646f6d6e65737360601b6044820152606401610757565b60025460045460009161169891611a6f565b9050600281815481106116ad576116ad611a83565b600091825260209091200154600380546001600160a01b0319166001600160a01b039092169190911790556116e06110b1565b9150816000036116f6576116f2611590565b5050565b600d546117049060016119e7565b600d8190556003036116f2576000600d556116f26114a4565b828054828255906000526020600020908101928215611772579160200282015b8281111561177257825182546001600160a01b0319166001600160a01b0390911617825560209092019160019091019061173d565b5061177e929150611782565b5090565b5b8082111561177e5760008155600101611783565b6000602082840312156117a957600080fd5b81356001600160a01b0381168114610eff57600080fd5b6000602082840312156117d257600080fd5b5035919050565b634e487b7160e01b600052602160045260246000fd5b6020810160038310611803576118036117d9565b91905290565b6020810160028310611803576118036117d9565b60008060006060848603121561183257600080fd5b505081359360208301359350604090920135919050565b60006020828403121561185b57600080fd5b5051919050565b60006020828403121561187457600080fd5b81518015158114610eff57600080fd5b6020808252601f908201527f5265656e7472616e637947756172643a207265656e7472616e742063616c6c00604082015260600190565b6020808252600f908201526e131bdd1d195c9e4814dd1bdc1c1959608a1b604082015260600190565b60005b838110156118ff5781810151838201526020016118e7565b8381111561190e576000848401525b50505050565b7f456e74727920666565206d75737420626520657175616c20746f3a200000000081526000825161194c81601c8501602087016118e4565b630408ae8d60e31b601c939091019283015250602001919050565b60208152600082518060208401526119868160408501602087016118e4565b601f01601f19169190910160400192915050565b6020808252601d908201527f43616e204e6f74207768696c65206c6f7474657279206f6e676f696e67000000604082015260600190565b634e487b7160e01b600052601160045260246000fd5b600082198211156119fa576119fa6119d1565b500190565b600060018201611a1157611a116119d1565b5060010190565b634e487b7160e01b600052601260045260246000fd5b600082611a3d57611a3d611a18565b500490565b634e487b7160e01b600052604160045260246000fd5b600082821015611a6a57611a6a6119d1565b500390565b600082611a7e57611a7e611a18565b500690565b634e487b7160e01b600052603260045260246000fd5b6000816000190483118215151615611ab357611ab36119d1565b500290565b600060ff821660ff8103611ace57611ace6119d1565b6001019291505056fea2646970667358221220444e215edf440e4f75b3e856005a6d5e6e38d06b7030ae404343e89b00e2d39864736f6c634300080e0033","bytecodeSha1":"fa973030f88c25f0799b47a8b043981f28ac073e","compiler":{"evm_version":"istanbul","optimizer":{"enabled":true,"runs":200},"version":"0.8.14+commit.80d49f37"},"contractName":"MyLottery","language":"Solidity","natspec":{"kind":"dev","methods":{"owner()":{"details":"Returns the address of the current owner."},"renounceOwnership()":{"details":"Leaves the contract without owner. It will not be possible to call `onlyOwner` functions anymore. Can only be called by the current owner. NOTE: Renouncing ownership will leave the contract without an owner, thereby removing any functionality that is only available to the owner."},"transferOwnership(address)":{"details":"Transfers ownership of the contract to a new account (`newOwner`). Can only be called by the current owner."}},"version":1},"opcodes":"PUSH1 0x80 PUSH1 0x40 MSTORE PUSH1 0x4 CALLDATASIZE LT PUSH2 0x21A JUMPI PUSH1 0x0 CALLDATALOAD PUSH1 0xE0 SHR DUP1 PUSH4 0x95D12000 GT PUSH2 0x123 JUMPI DUP1 PUSH4 0xD70FA7DE GT PUSH2 0xAB JUMPI DUP1 PUSH4 0xF2FDE38B GT PUSH2 0x6F JUMPI DUP1 PUSH4 0xF2FDE38B EQ PUSH2 0x5A2 JUMPI DUP1 PUSH4 0xF71D96CB EQ PUSH2 0x5C2 JUMPI DUP1 PUSH4 0xF8B2CB4F EQ PUSH2 0x5E2 JUMPI DUP1 PUSH4 0xFAEA18C6 EQ PUSH2 0x602 JUMPI DUP1 PUSH4 0xFE56F5A0 EQ PUSH2 0x618 JUMPI PUSH1 0x0 DUP1 REVERT JUMPDEST DUP1 PUSH4 0xD70FA7DE EQ PUSH2 0x52C JUMPI DUP1 PUSH4 0xD718AEA9 EQ PUSH2 0x542 JUMPI DUP1 PUSH4 0xDDCA3F43 EQ PUSH2 0x557 JUMPI DUP1 PUSH4 0xEE44ABB2 EQ PUSH2 0x56D JUMPI DUP1 PUSH4 0xF2640E10 EQ PUSH2 0x582 JUMPI PUSH1 0x0 DUP1 REVERT JUMPDEST DUP1 PUSH4 0xBCDB446B GT PUSH2 0xF2 JUMPI DUP1 PUSH4 0xBCDB446B EQ PUSH2 0x48E JUMPI DUP1 PUSH4 0xBE55C9C9 EQ PUSH2 0x4A3 JUMPI DUP1 PUSH4 0xCAA6FEA4 EQ PUSH2 0x4D3 JUMPI DUP1 PUSH4 0xCD8CC844 EQ PUSH2 0x500 JUMPI DUP1 PUSH4 0xCF23AA38 EQ PUSH2 0x516 JUMPI PUSH1 0x0 DUP1 REVERT JUMPDEST DUP1 PUSH4 0x95D12000 EQ PUSH2 0x42C JUMPI DUP1 PUSH4 0x9BB57718 EQ PUSH2 0x442 JUMPI DUP1 PUSH4 0xA6D811EA EQ PUSH2 0x458 JUMPI DUP1 PUSH4 0xB4989917 EQ PUSH2 0x46E JUMPI PUSH1 0x0 DUP1 REVERT JUMPDEST DUP1 PUSH4 0x4FB2E45D GT PUSH2 0x1A6 JUMPI DUP1 PUSH4 0x69EBE78E GT PUSH2 0x175 JUMPI DUP1 PUSH4 0x69EBE78E EQ PUSH2 0x3A1 JUMPI DUP1 PUSH4 0x715018A6 EQ PUSH2 0x3B7 JUMPI DUP1 PUSH4 0x81447999 EQ PUSH2 0x3CC JUMPI DUP1 PUSH4 0x81FB84FB EQ PUSH2 0x3F8 JUMPI DUP1 PUSH4 0x8DA5CB5B EQ PUSH2 0x40E JUMPI PUSH1 0x0 DUP1 REVERT JUMPDEST DUP1 PUSH4 0x4FB2E45D EQ PUSH2 0x335 JUMPI DUP1 PUSH4 0x501D0780 EQ PUSH2 0x355 JUMPI DUP1 PUSH4 0x56923710 EQ PUSH2 0x36B JUMPI DUP1 PUSH4 0x59FE8C84 EQ PUSH2 0x38B JUMPI PUSH1 0x0 DUP1 REVERT JUMPDEST DUP1 PUSH4 0x2D97902F GT PUSH2 0x1ED JUMPI DUP1 PUSH4 0x2D97902F EQ PUSH2 0x2B4 JUMPI DUP1 PUSH4 0x36013189 EQ PUSH2 0x2CA JUMPI DUP1 PUSH4 0x382E5E7A EQ PUSH2 0x2E0 JUMPI DUP1 PUSH4 0x4A8466E9 EQ PUSH2 0x2E8 JUMPI DUP1 PUSH4 0x4F8C70CF EQ PUSH2 0x2FD JUMPI PUSH1 0x0 DUP1 REVERT JUMPDEST DUP1 PUSH4 0x4283412 EQ PUSH2 0x21F JUMPI DUP1 PUSH4 0xB3FF280 EQ PUSH2 0x248 JUMPI DUP1 PUSH4 0x16114ACD EQ PUSH2 0x272 JUMPI DUP1 PUSH4 0x2B58150B EQ PUSH2 0x294 JUMPI JUMPDEST PUSH1 0x0 DUP1 REVERT JUMPDEST CALLVALUE DUP1 ISZERO PUSH2 0x22B JUMPI PUSH1 0x0 DUP1 REVERT JUMPDEST POP PUSH2 0x235 PUSH1 0x6 SLOAD DUP2 JUMP JUMPDEST PUSH1 0x40 MLOAD SWAP1 DUP2 MSTORE PUSH1 0x20 ADD JUMPDEST PUSH1 0x40 MLOAD DUP1 SWAP2 SUB SWAP1 RETURN JUMPDEST CALLVALUE DUP1 ISZERO PUSH2 0x254 JUMPI PUSH1 0x0 DUP1 REVERT JUMPDEST POP PUSH1 0x12 SLOAD PUSH2 0x262 SWAP1 PUSH1 0xFF AND DUP2 JUMP JUMPDEST PUSH1 0x40 MLOAD SWAP1 ISZERO ISZERO DUP2 MSTORE PUSH1 0x20 ADD PUSH2 0x23F JUMP JUMPDEST CALLVALUE DUP1 ISZERO PUSH2 0x27E JUMPI PUSH1 0x0 DUP1 REVERT JUMPDEST POP PUSH2 0x292 PUSH2 0x28D CALLDATASIZE PUSH1 0x4 PUSH2 0x1797 JUMP JUMPDEST PUSH2 0x638 JUMP JUMPDEST STOP JUMPDEST CALLVALUE DUP1 ISZERO PUSH2 0x2A0 JUMPI PUSH1 0x0 DUP1 REVERT JUMPDEST POP PUSH2 0x292 PUSH2 0x2AF CALLDATASIZE PUSH1 0x4 PUSH2 0x17C0 JUMP JUMPDEST PUSH2 0x728 JUMP JUMPDEST CALLVALUE DUP1 ISZERO PUSH2 0x2C0 JUMPI PUSH1 0x0 DUP1 REVERT JUMPDEST POP PUSH2 0x235 PUSH1 0x10 SLOAD DUP2 JUMP JUMPDEST CALLVALUE DUP1 ISZERO PUSH2 0x2D6 JUMPI PUSH1 0x0 DUP1 REVERT JUMPDEST POP PUSH2 0x235 PUSH1 0x4 SLOAD DUP2 JUMP JUMPDEST PUSH2 0x292 PUSH2 0x735 JUMP JUMPDEST CALLVALUE DUP1 ISZERO PUSH2 0x2F4 JUMPI PUSH1 0x0 DUP1 REVERT JUMPDEST POP PUSH2 0x292 PUSH2 0x961 JUMP JUMPDEST CALLVALUE DUP1 ISZERO PUSH2 0x309 JUMPI PUSH1 0x0 DUP1 REVERT JUMPDEST POP PUSH1 0x3 SLOAD PUSH2 0x31D SWAP1 PUSH1 0x1 PUSH1 0x1 PUSH1 0xA0 SHL SUB AND DUP2 JUMP JUMPDEST PUSH1 0x40 MLOAD PUSH1 0x1 PUSH1 0x1 PUSH1 0xA0 SHL SUB SWAP1 SWAP2 AND DUP2 MSTORE PUSH1 0x20 ADD PUSH2 0x23F JUMP JUMPDEST CALLVALUE DUP1 ISZERO PUSH2 0x341 JUMPI PUSH1 0x0 DUP1 REVERT JUMPDEST POP PUSH2 0x292 PUSH2 0x350 CALLDATASIZE PUSH1 0x4 PUSH2 0x1797 JUMP JUMPDEST PUSH2 0x974 JUMP JUMPDEST CALLVALUE DUP1 ISZERO PUSH2 0x361 JUMPI PUSH1 0x0 DUP1 REVERT JUMPDEST POP PUSH2 0x235 PUSH1 0xC SLOAD DUP2 JUMP JUMPDEST CALLVALUE DUP1 ISZERO PUSH2 0x377 JUMPI PUSH1 0x0 DUP1 REVERT JUMPDEST POP PUSH2 0x292 PUSH2 0x386 CALLDATASIZE PUSH1 0x4 PUSH2 0x17C0 JUMP JUMPDEST PUSH2 0x985 JUMP JUMPDEST CALLVALUE DUP1 ISZERO PUSH2 0x397 JUMPI PUSH1 0x0 DUP1 REVERT JUMPDEST POP PUSH2 0x235 PUSH1 0x7 SLOAD DUP2 JUMP JUMPDEST CALLVALUE DUP1 ISZERO PUSH2 0x3AD JUMPI PUSH1 0x0 DUP1 REVERT JUMPDEST POP PUSH2 0x235 PUSH1 0x14 SLOAD DUP2 JUMP JUMPDEST CALLVALUE DUP1 ISZERO PUSH2 0x3C3 JUMPI PUSH1 0x0 DUP1 REVERT JUMPDEST POP PUSH2 0x292 PUSH2 0x992 JUMP JUMPDEST CALLVALUE DUP1 ISZERO PUSH2 0x3D8 JUMPI PUSH1 0x0 DUP1 REVERT JUMPDEST POP PUSH1 0x12 SLOAD PUSH2 0x3EB SWAP1 PUSH2 0x100 SWAP1 DIV PUSH1 0xFF AND DUP2 JUMP JUMPDEST PUSH1 0x40 MLOAD PUSH2 0x23F SWAP2 SWAP1 PUSH2 0x17EF JUMP JUMPDEST CALLVALUE DUP1 ISZERO PUSH2 0x404 JUMPI PUSH1 0x0 DUP1 REVERT JUMPDEST POP PUSH2 0x235 PUSH1 0x9 SLOAD DUP2 JUMP JUMPDEST CALLVALUE DUP1 ISZERO PUSH2 0x41A JUMPI PUSH1 0x0 DUP1 REVERT JUMPDEST POP PUSH1 0x0 SLOAD PUSH1 0x1 PUSH1 0x1 PUSH1 0xA0 SHL SUB AND PUSH2 0x31D JUMP JUMPDEST CALLVALUE DUP1 ISZERO PUSH2 0x438 JUMPI PUSH1 0x0 DUP1 REVERT JUMPDEST POP PUSH2 0x235 PUSH1 0xA SLOAD DUP2 JUMP JUMPDEST CALLVALUE DUP1 ISZERO PUSH2 0x44E JUMPI PUSH1 0x0 DUP1 REVERT JUMPDEST POP PUSH2 0x235 PUSH1 0xB SLOAD DUP2 JUMP JUMPDEST CALLVALUE DUP1 ISZERO PUSH2 0x464 JUMPI PUSH1 0x0 DUP1 REVERT JUMPDEST POP PUSH2 0x235 PUSH1 0x5 SLOAD DUP2 JUMP JUMPDEST CALLVALUE DUP1 ISZERO PUSH2 0x47A JUMPI PUSH1 0x0 DUP1 REVERT JUMPDEST POP PUSH2 0x292 PUSH2 0x489 CALLDATASIZE PUSH1 0x4 PUSH2 0x17C0 JUMP JUMPDEST PUSH2 0x9A6 JUMP JUMPDEST CALLVALUE DUP1 ISZERO PUSH2 0x49A JUMPI PUSH1 0x0 DUP1 REVERT JUMPDEST POP PUSH2 0x292 PUSH2 0x9B3 JUMP JUMPDEST CALLVALUE DUP1 ISZERO PUSH2 0x4AF JUMPI PUSH1 0x0 DUP1 REVERT JUMPDEST POP PUSH2 0x262 PUSH2 0x4BE CALLDATASIZE PUSH1 0x4 PUSH2 0x1797 JUMP JUMPDEST PUSH1 0x8 PUSH1 0x20 MSTORE PUSH1 0x0 SWAP1 DUP2 MSTORE PUSH1 0x40 SWAP1 KECCAK256 SLOAD PUSH1 0xFF AND DUP2 JUMP JUMPDEST CALLVALUE DUP1 ISZERO PUSH2 0x4DF JUMPI PUSH1 0x0 DUP1 REVERT JUMPDEST POP PUSH1 0x12 SLOAD PUSH2 0x4F3 SWAP1 PUSH3 0x10000 SWAP1 DIV PUSH1 0xFF AND DUP2 JUMP JUMPDEST PUSH1 0x40 MLOAD PUSH2 0x23F SWAP2 SWAP1 PUSH2 0x1809 JUMP JUMPDEST CALLVALUE DUP1 ISZERO PUSH2 0x50C JUMPI PUSH1 0x0 DUP1 REVERT JUMPDEST POP PUSH2 0x235 PUSH1 0xE SLOAD DUP2 JUMP JUMPDEST CALLVALUE DUP1 ISZERO PUSH2 0x522 JUMPI PUSH1 0x0 DUP1 REVERT JUMPDEST POP PUSH2 0x235 PUSH1 0x11 SLOAD DUP2 JUMP JUMPDEST CALLVALUE DUP1 ISZERO PUSH2 0x538 JUMPI PUSH1 0x0 DUP1 REVERT JUMPDEST POP PUSH2 0x235 PUSH1 0xF SLOAD DUP2 JUMP JUMPDEST CALLVALUE DUP1 ISZERO PUSH2 0x54E JUMPI PUSH1 0x0 DUP1 REVERT JUMPDEST POP PUSH2 0x292 PUSH2 0xA22 JUMP JUMPDEST CALLVALUE DUP1 ISZERO PUSH2 0x563 JUMPI PUSH1 0x0 DUP1 REVERT JUMPDEST POP PUSH2 0x235 PUSH1 0x13 SLOAD DUP2 JUMP JUMPDEST CALLVALUE DUP1 ISZERO PUSH2 0x579 JUMPI PUSH1 0x0 DUP1 REVERT JUMPDEST POP PUSH2 0x292 PUSH2 0xB7A JUMP JUMPDEST CALLVALUE DUP1 ISZERO PUSH2 0x58E JUMPI PUSH1 0x0 DUP1 REVERT JUMPDEST POP PUSH2 0x292 PUSH2 0x59D CALLDATASIZE PUSH1 0x4 PUSH2 0x181D JUMP JUMPDEST PUSH2 0xCCC JUMP JUMPDEST CALLVALUE DUP1 ISZERO PUSH2 0x5AE JUMPI PUSH1 0x0 DUP1 REVERT JUMPDEST POP PUSH2 0x292 PUSH2 0x5BD CALLDATASIZE PUSH1 0x4 PUSH2 0x1797 JUMP JUMPDEST PUSH2 0xDF2 JUMP JUMPDEST CALLVALUE DUP1 ISZERO PUSH2 0x5CE JUMPI PUSH1 0x0 DUP1 REVERT JUMPDEST POP PUSH2 0x31D PUSH2 0x5DD CALLDATASIZE PUSH1 0x4 PUSH2 0x17C0 JUMP JUMPDEST PUSH2 0xE68 JUMP JUMPDEST CALLVALUE DUP1 ISZERO PUSH2 0x5EE JUMPI PUSH1 0x0 DUP1 REVERT JUMPDEST POP PUSH2 0x235 PUSH2 0x5FD CALLDATASIZE PUSH1 0x4 PUSH2 0x1797 JUMP JUMPDEST PUSH2 0xE92 JUMP JUMPDEST CALLVALUE DUP1 ISZERO PUSH2 0x60E JUMPI PUSH1 0x0 DUP1 REVERT JUMPDEST POP PUSH2 0x235 PUSH1 0xD SLOAD DUP2 JUMP JUMPDEST CALLVALUE DUP1 ISZERO PUSH2 0x624 JUMPI PUSH1 0x0 DUP1 REVERT JUMPDEST POP PUSH2 0x292 PUSH2 0x633 CALLDATASIZE PUSH1 0x4 PUSH2 0x17C0 JUMP JUMPDEST PUSH2 0xF06 JUMP JUMPDEST PUSH2 0x640 PUSH2 0xF4E JUMP JUMPDEST PUSH1 0x40 MLOAD PUSH4 0x70A08231 PUSH1 0xE0 SHL DUP2 MSTORE ADDRESS PUSH1 0x4 DUP3 ADD MSTORE DUP2 SWAP1 PUSH1 0x1 PUSH1 0x1 PUSH1 0xA0 SHL SUB DUP3 AND SWAP1 PUSH4 0xA9059CBB SWAP1 CALLER SWAP1 DUP4 SWAP1 PUSH4 0x70A08231 SWAP1 PUSH1 0x24 ADD PUSH1 0x20 PUSH1 0x40 MLOAD DUP1 DUP4 SUB DUP2 DUP7 GAS STATICCALL ISZERO DUP1 ISZERO PUSH2 0x690 JUMPI RETURNDATASIZE PUSH1 0x0 DUP1 RETURNDATACOPY RETURNDATASIZE PUSH1 0x0 REVERT JUMPDEST POP POP POP POP PUSH1 0x40 MLOAD RETURNDATASIZE PUSH1 0x1F NOT PUSH1 0x1F DUP3 ADD AND DUP3 ADD DUP1 PUSH1 0x40 MSTORE POP DUP2 ADD SWAP1 PUSH2 0x6B4 SWAP2 SWAP1 PUSH2 0x1849 JUMP JUMPDEST PUSH1 0x40 MLOAD PUSH1 0x1 PUSH1 0x1 PUSH1 0xE0 SHL SUB NOT PUSH1 0xE0 DUP6 SWAP1 SHL AND DUP2 MSTORE PUSH1 0x1 PUSH1 0x1 PUSH1 0xA0 SHL SUB SWAP1 SWAP3 AND PUSH1 0x4 DUP4 ADD MSTORE PUSH1 0x24 DUP3 ADD MSTORE PUSH1 0x44 ADD PUSH1 0x20 PUSH1 0x40 MLOAD DUP1 DUP4 SUB DUP2 PUSH1 0x0 DUP8 GAS CALL ISZERO DUP1 ISZERO PUSH2 0x6FF JUMPI RETURNDATASIZE PUSH1 0x0 DUP1 RETURNDATACOPY RETURNDATASIZE PUSH1 0x0 REVERT JUMPDEST POP POP POP POP PUSH1 0x40 MLOAD RETURNDATASIZE PUSH1 0x1F NOT PUSH1 0x1F DUP3 ADD AND DUP3 ADD DUP1 PUSH1 0x40 MSTORE POP DUP2 ADD SWAP1 PUSH2 0x723 SWAP2 SWAP1 PUSH2 0x1862 JUMP JUMPDEST POP POP POP JUMP JUMPDEST PUSH2 0x730 PUSH2 0xF4E JUMP JUMPDEST PUSH1 0x10 SSTORE JUMP JUMPDEST PUSH1 0x2 PUSH1 0x1 SLOAD SUB PUSH2 0x760 JUMPI PUSH1 0x40 MLOAD PUSH3 0x461BCD PUSH1 0xE5 SHL DUP2 MSTORE PUSH1 0x4 ADD PUSH2 0x757 SWAP1 PUSH2 0x1884 JUMP JUMPDEST PUSH1 0x40 MLOAD DUP1 SWAP2 SUB SWAP1 REVERT JUMPDEST PUSH1 0x2 PUSH1 0x1 SSTORE CALLER PUSH1 0x0 SWAP1 DUP2 MSTORE PUSH1 0x8 PUSH1 0x20 MSTORE PUSH1 0x40 SWAP1 KECCAK256 SLOAD PUSH1 0xFF AND ISZERO PUSH2 0x7B7 JUMPI PUSH1 0x40 MLOAD PUSH3 0x461BCD PUSH1 0xE5 SHL DUP2 MSTORE PUSH1 0x20 PUSH1 0x4 DUP3 ADD MSTORE PUSH1 0xF PUSH1 0x24 DUP3 ADD MSTORE PUSH15 0x105B1C9958591E48195B9D195C9959 PUSH1 0x8A SHL PUSH1 0x44 DUP3 ADD MSTORE PUSH1 0x64 ADD PUSH2 0x757 JUMP JUMPDEST CALLER PUSH1 0x0 SWAP1 DUP2 MSTORE PUSH1 0x8 PUSH1 0x20 MSTORE PUSH1 0x40 DUP2 KECCAK256 DUP1 SLOAD PUSH1 0xFF NOT AND PUSH1 0x1 OR SWAP1 SSTORE PUSH1 0x12 SLOAD PUSH2 0x100 SWAP1 DIV PUSH1 0xFF AND PUSH1 0x2 DUP2 GT ISZERO PUSH2 0x7ED JUMPI PUSH2 0x7ED PUSH2 0x17D9 JUMP JUMPDEST EQ PUSH2 0x830 JUMPI PUSH1 0x40 MLOAD PUSH3 0x461BCD PUSH1 0xE5 SHL DUP2 MSTORE PUSH1 0x20 PUSH1 0x4 DUP3 ADD MSTORE PUSH1 0x13 PUSH1 0x24 DUP3 ADD MSTORE PUSH19 0x131BDD1D195C9E48139BDD081CDD185C9D1959 PUSH1 0x6A SHL PUSH1 0x44 DUP3 ADD MSTORE PUSH1 0x64 ADD PUSH2 0x757 JUMP JUMPDEST PUSH1 0x1 PUSH1 0x12 SLOAD PUSH3 0x10000 SWAP1 DIV PUSH1 0xFF AND PUSH1 0x1 DUP2 GT ISZERO PUSH2 0x84F JUMPI PUSH2 0x84F PUSH2 0x17D9 JUMP JUMPDEST EQ PUSH2 0x86C JUMPI PUSH1 0x40 MLOAD PUSH3 0x461BCD PUSH1 0xE5 SHL DUP2 MSTORE PUSH1 0x4 ADD PUSH2 0x757 SWAP1 PUSH2 0x18BB JUMP JUMPDEST PUSH1 0x7 SLOAD CALLVALUE EQ PUSH2 0x87C PUSH1 0x7 SLOAD PUSH2 0xFA8 JUMP JUMPDEST PUSH1 0x40 MLOAD PUSH1 0x20 ADD PUSH2 0x88C SWAP2 SWAP1 PUSH2 0x1914 JUMP JUMPDEST PUSH1 0x40 MLOAD PUSH1 0x20 DUP2 DUP4 SUB SUB DUP2 MSTORE SWAP1 PUSH1 0x40 MSTORE SWAP1 PUSH2 0x8B9 JUMPI PUSH1 0x40 MLOAD PUSH3 0x461BCD PUSH1 0xE5 SHL DUP2 MSTORE PUSH1 0x4 ADD PUSH2 0x757 SWAP2 SWAP1 PUSH2 0x1967 JUMP JUMPDEST POP PUSH1 0x6 SLOAD PUSH1 0x2 SLOAD GT ISZERO PUSH2 0x91A JUMPI PUSH1 0x40 MLOAD PUSH3 0x461BCD PUSH1 0xE5 SHL DUP2 MSTORE PUSH1 0x20 PUSH1 0x4 DUP3 ADD MSTORE PUSH1 0x23 PUSH1 0x24 DUP3 ADD MSTORE PUSH32 0x4D6178696D756D204E756D626572207265616368656420666F7220206C6F7474 PUSH1 0x44 DUP3 ADD MSTORE PUSH3 0x657279 PUSH1 0xE8 SHL PUSH1 0x64 DUP3 ADD MSTORE PUSH1 0x84 ADD PUSH2 0x757 JUMP JUMPDEST PUSH1 0x2 DUP1 SLOAD PUSH1 0x1 DUP2 DUP2 ADD DUP4 SSTORE PUSH1 0x0 SWAP3 SWAP1 SWAP3 MSTORE PUSH32 0x405787FA12A823E0F2B7631CC41B3BA8828B3321CA811111FA75CD3AA3BB5ACE ADD DUP1 SLOAD PUSH1 0x1 PUSH1 0x1 PUSH1 0xA0 SHL SUB NOT AND CALLER OR SWAP1 SSTORE DUP1 SSTORE JUMP JUMPDEST PUSH2 0x969 PUSH2 0xF4E JUMP JUMPDEST PUSH2 0x971 PUSH2 0x10B1 JUMP JUMPDEST POP JUMP JUMPDEST PUSH2 0x97C PUSH2 0xF4E JUMP JUMPDEST PUSH2 0x971 DUP2 PUSH2 0xDF2 JUMP JUMPDEST PUSH2 0x98D PUSH2 0xF4E JUMP JUMPDEST PUSH1 0x6 SSTORE JUMP JUMPDEST PUSH2 0x99A PUSH2 0xF4E JUMP JUMPDEST PUSH2 0x9A4 PUSH1 0x0 PUSH2 0x12F3 JUMP JUMPDEST JUMP JUMPDEST PUSH2 0x9AE PUSH2 0xF4E JUMP JUMPDEST PUSH1 0x5 SSTORE JUMP JUMPDEST PUSH2 0x9BB PUSH2 0xF4E JUMP JUMPDEST PUSH1 0x1 PUSH1 0x12 SLOAD PUSH2 0x100 SWAP1 DIV PUSH1 0xFF AND PUSH1 0x2 DUP2 GT ISZERO PUSH2 0x9D9 JUMPI PUSH2 0x9D9 PUSH2 0x17D9 JUMP JUMPDEST EQ PUSH2 0x9F6 JUMPI PUSH1 0x40 MLOAD PUSH3 0x461BCD PUSH1 0xE5 SHL DUP2 MSTORE PUSH1 0x4 ADD PUSH2 0x757 SWAP1 PUSH2 0x199A JUMP JUMPDEST PUSH1 0x40 MLOAD CALLER SWAP1 SELFBALANCE DUP1 ISZERO PUSH2 0x8FC MUL SWAP2 PUSH1 0x0 DUP2 DUP2 DUP2 DUP6 DUP9 DUP9 CALL SWAP4 POP POP POP POP ISZERO DUP1 ISZERO PUSH2 0x971 JUMPI RETURNDATASIZE PUSH1 0x0 DUP1 RETURNDATACOPY RETURNDATASIZE PUSH1 0x0 REVERT JUMPDEST PUSH1 0x2 PUSH1 0x1 SLOAD SUB PUSH2 0xA44 JUMPI PUSH1 0x40 MLOAD PUSH3 0x461BCD PUSH1 0xE5 SHL DUP2 MSTORE PUSH1 0x4 ADD PUSH2 0x757 SWAP1 PUSH2 0x1884 JUMP JUMPDEST PUSH1 0x2 PUSH1 0x1 SSTORE PUSH1 0x0 PUSH1 0x12 SLOAD PUSH2 0x100 SWAP1 DIV PUSH1 0xFF AND PUSH1 0x2 DUP2 GT ISZERO PUSH2 0xA67 JUMPI PUSH2 0xA67 PUSH2 0x17D9 JUMP JUMPDEST EQ PUSH2 0xAAA JUMPI PUSH1 0x40 MLOAD PUSH3 0x461BCD PUSH1 0xE5 SHL DUP2 MSTORE PUSH1 0x20 PUSH1 0x4 DUP3 ADD MSTORE PUSH1 0x13 PUSH1 0x24 DUP3 ADD MSTORE PUSH19 0x131BDD1D195C9E48139BDD081CDD185C9D1959 PUSH1 0x6A SHL PUSH1 0x44 DUP3 ADD MSTORE PUSH1 0x64 ADD PUSH2 0x757 JUMP JUMPDEST PUSH1 0x1 PUSH1 0x12 SLOAD PUSH3 0x10000 SWAP1 DIV PUSH1 0xFF AND PUSH1 0x1 DUP2 GT ISZERO PUSH2 0xAC9 JUMPI PUSH2 0xAC9 PUSH2 0x17D9 JUMP JUMPDEST EQ PUSH2 0xAE6 JUMPI PUSH1 0x40 MLOAD PUSH3 0x461BCD PUSH1 0xE5 SHL DUP2 MSTORE PUSH1 0x4 ADD PUSH2 0x757 SWAP1 PUSH2 0x18BB JUMP JUMPDEST PUSH1 0x10 SLOAD PUSH1 0xE SLOAD PUSH2 0xAF6 SWAP2 SWAP1 PUSH2 0x19E7 JUMP JUMPDEST TIMESTAMP GT PUSH2 0xB44 JUMPI PUSH1 0x40 MLOAD PUSH3 0x461BCD PUSH1 0xE5 SHL DUP2 MSTORE PUSH1 0x20 PUSH1 0x4 DUP3 ADD MSTORE PUSH1 0x1F PUSH1 0x24 DUP3 ADD MSTORE PUSH32 0x6D696E206C6F7474657279206475726174696F6E206E6F742070617373656400 PUSH1 0x44 DUP3 ADD MSTORE PUSH1 0x64 ADD PUSH2 0x757 JUMP JUMPDEST PUSH1 0x5 SLOAD PUSH1 0x2 SLOAD LT ISZERO PUSH2 0xB5D JUMPI PUSH2 0xB58 PUSH2 0x1343 JUMP JUMPDEST PUSH2 0xB74 JUMP JUMPDEST PUSH1 0x12 DUP1 SLOAD PUSH2 0xFF00 NOT AND PUSH2 0x200 OR SWAP1 SSTORE PUSH2 0xB74 PUSH2 0x14A4 JUMP JUMPDEST PUSH1 0x1 DUP1 SSTORE JUMP JUMPDEST PUSH1 0x2 PUSH1 0x1 SLOAD SUB PUSH2 0xB9C JUMPI PUSH1 0x40 MLOAD PUSH3 0x461BCD PUSH1 0xE5 SHL DUP2 MSTORE PUSH1 0x4 ADD PUSH2 0x757 SWAP1 PUSH2 0x1884 JUMP JUMPDEST PUSH1 0x2 PUSH1 0x1 SWAP1 DUP2 SSTORE PUSH1 0x12 SLOAD PUSH2 0x100 SWAP1 DIV PUSH1 0xFF AND PUSH1 0x2 DUP2 GT ISZERO PUSH2 0xBBF JUMPI PUSH2 0xBBF PUSH2 0x17D9 JUMP JUMPDEST EQ PUSH2 0xC0C JUMPI PUSH1 0x40 MLOAD PUSH3 0x461BCD PUSH1 0xE5 SHL DUP2 MSTORE PUSH1 0x20 PUSH1 0x4 DUP3 ADD MSTORE PUSH1 0x17 PUSH1 0x24 DUP3 ADD MSTORE PUSH32 0x4C6F747465727920416C72656164792073746172746564000000000000000000 PUSH1 0x44 DUP3 ADD MSTORE PUSH1 0x64 ADD PUSH2 0x757 JUMP JUMPDEST PUSH1 0x1 PUSH1 0x12 SLOAD PUSH3 0x10000 SWAP1 DIV PUSH1 0xFF AND PUSH1 0x1 DUP2 GT ISZERO PUSH2 0xC2B JUMPI PUSH2 0xC2B PUSH2 0x17D9 JUMP JUMPDEST EQ PUSH2 0xC48 JUMPI PUSH1 0x40 MLOAD PUSH3 0x461BCD PUSH1 0xE5 SHL DUP2 MSTORE PUSH1 0x4 ADD PUSH2 0x757 SWAP1 PUSH2 0x18BB JUMP JUMPDEST PUSH1 0x11 SLOAD PUSH1 0xF SLOAD PUSH2 0xC58 SWAP2 SWAP1 PUSH2 0x19E7 JUMP JUMPDEST TIMESTAMP GT PUSH2 0xCB2 JUMPI PUSH1 0x40 MLOAD PUSH3 0x461BCD PUSH1 0xE5 SHL DUP2 MSTORE PUSH1 0x20 PUSH1 0x4 DUP3 ADD MSTORE PUSH1 0x24 DUP1 DUP3 ADD MSTORE PUSH32 0x6D696E206C6F74746572792070726570206475726174696F6E206E6F74207061 PUSH1 0x44 DUP3 ADD MSTORE PUSH4 0x1CDCD959 PUSH1 0xE2 SHL PUSH1 0x64 DUP3 ADD MSTORE PUSH1 0x84 ADD PUSH2 0x757 JUMP JUMPDEST PUSH1 0x12 DUP1 SLOAD PUSH2 0xFF00 NOT AND SWAP1 SSTORE PUSH1 0x0 PUSH1 0x4 SSTORE TIMESTAMP PUSH1 0xE SSTORE PUSH1 0x1 DUP1 SSTORE JUMP JUMPDEST PUSH2 0xCD4 PUSH2 0xF4E JUMP JUMPDEST PUSH1 0x1 PUSH1 0x12 SLOAD PUSH2 0x100 SWAP1 DIV PUSH1 0xFF AND PUSH1 0x2 DUP2 GT ISZERO PUSH2 0xCF2 JUMPI PUSH2 0xCF2 PUSH2 0x17D9 JUMP JUMPDEST EQ PUSH2 0xD0F JUMPI PUSH1 0x40 MLOAD PUSH3 0x461BCD PUSH1 0xE5 SHL DUP2 MSTORE PUSH1 0x4 ADD PUSH2 0x757 SWAP1 PUSH2 0x199A JUMP JUMPDEST PUSH1 0x1 PUSH1 0x12 SLOAD PUSH2 0x100 SWAP1 DIV PUSH1 0xFF AND PUSH1 0x2 DUP2 GT ISZERO PUSH2 0xD2D JUMPI PUSH2 0xD2D PUSH2 0x17D9 JUMP JUMPDEST EQ PUSH2 0xD4A JUMPI PUSH1 0x40 MLOAD PUSH3 0x461BCD PUSH1 0xE5 SHL DUP2 MSTORE PUSH1 0x4 ADD PUSH2 0x757 SWAP1 PUSH2 0x199A JUMP JUMPDEST PUSH1 0x64 DUP2 PUSH2 0xD57 DUP5 DUP7 PUSH2 0x19E7 JUMP JUMPDEST PUSH2 0xD61 SWAP2 SWAP1 PUSH2 0x19E7 JUMP JUMPDEST GT ISZERO PUSH2 0xDA2 JUMPI PUSH1 0x40 MLOAD PUSH3 0x461BCD PUSH1 0xE5 SHL DUP2 MSTORE PUSH1 0x20 PUSH1 0x4 DUP3 ADD MSTORE PUSH1 0x10 PUSH1 0x24 DUP3 ADD MSTORE PUSH16 0x63616E206E6F74206F7665722031303 PUSH1 0x84 SHL PUSH1 0x44 DUP3 ADD MSTORE PUSH1 0x64 ADD PUSH2 0x757 JUMP JUMPDEST PUSH1 0x32 DUP4 LT PUSH2 0xDE4 JUMPI PUSH1 0x40 MLOAD PUSH3 0x461BCD PUSH1 0xE5 SHL DUP2 MSTORE PUSH1 0x20 PUSH1 0x4 DUP3 ADD MSTORE PUSH1 0xF PUSH1 0x24 DUP3 ADD MSTORE PUSH15 0x63616E206E6F74206C65737320353 PUSH1 0x8C SHL PUSH1 0x44 DUP3 ADD MSTORE PUSH1 0x64 ADD PUSH2 0x757 JUMP JUMPDEST PUSH1 0x9 SWAP3 SWAP1 SWAP3 SSTORE PUSH1 0xA SSTORE PUSH1 0xB SSTORE JUMP JUMPDEST PUSH2 0xDFA PUSH2 0xF4E JUMP JUMPDEST PUSH1 0x1 PUSH1 0x1 PUSH1 0xA0 SHL SUB DUP2 AND PUSH2 0xE5F JUMPI PUSH1 0x40 MLOAD PUSH3 0x461BCD PUSH1 0xE5 SHL DUP2 MSTORE PUSH1 0x20 PUSH1 0x4 DUP3 ADD MSTORE PUSH1 0x26 PUSH1 0x24 DUP3 ADD MSTORE PUSH32 0x4F776E61626C653A206E6577206F776E657220697320746865207A65726F2061 PUSH1 0x44 DUP3 ADD MSTORE PUSH6 0x646472657373 PUSH1 0xD0 SHL PUSH1 0x64 DUP3 ADD MSTORE PUSH1 0x84 ADD PUSH2 0x757 JUMP JUMPDEST PUSH2 0x971 DUP2 PUSH2 0x12F3 JUMP JUMPDEST PUSH1 0x2 DUP2 DUP2 SLOAD DUP2 LT PUSH2 0xE78 JUMPI PUSH1 0x0 DUP1 REVERT JUMPDEST PUSH1 0x0 SWAP2 DUP3 MSTORE PUSH1 0x20 SWAP1 SWAP2 KECCAK256 ADD SLOAD PUSH1 0x1 PUSH1 0x1 PUSH1 0xA0 SHL SUB AND SWAP1 POP DUP2 JUMP JUMPDEST PUSH1 0x40 MLOAD PUSH4 0x70A08231 PUSH1 0xE0 SHL DUP2 MSTORE ADDRESS PUSH1 0x4 DUP3 ADD MSTORE PUSH1 0x0 SWAP1 DUP2 SWAP1 PUSH1 0x1 PUSH1 0x1 PUSH1 0xA0 SHL SUB DUP5 AND SWAP1 PUSH4 0x70A08231 SWAP1 PUSH1 0x24 ADD PUSH1 0x20 PUSH1 0x40 MLOAD DUP1 DUP4 SUB DUP2 DUP7 GAS STATICCALL ISZERO DUP1 ISZERO PUSH2 0xEDB JUMPI RETURNDATASIZE PUSH1 0x0 DUP1 RETURNDATACOPY RETURNDATASIZE PUSH1 0x0 REVERT JUMPDEST POP POP POP POP PUSH1 0x40 MLOAD RETURNDATASIZE PUSH1 0x1F NOT PUSH1 0x1F DUP3 ADD AND DUP3 ADD DUP1 PUSH1 0x40 MSTORE POP DUP2 ADD SWAP1 PUSH2 0xEFF SWAP2 SWAP1 PUSH2 0x1849 JUMP JUMPDEST SWAP4 SWAP3 POP POP POP JUMP JUMPDEST PUSH2 0xF0E PUSH2 0xF4E JUMP JUMPDEST PUSH1 0x1 PUSH1 0x12 SLOAD PUSH2 0x100 SWAP1 DIV PUSH1 0xFF AND PUSH1 0x2 DUP2 GT ISZERO PUSH2 0xF2C JUMPI PUSH2 0xF2C PUSH2 0x17D9 JUMP JUMPDEST EQ PUSH2 0xF49 JUMPI PUSH1 0x40 MLOAD PUSH3 0x461BCD PUSH1 0xE5 SHL DUP2 MSTORE PUSH1 0x4 ADD PUSH2 0x757 SWAP1 PUSH2 0x199A JUMP JUMPDEST PUSH1 0x7 SSTORE JUMP JUMPDEST PUSH1 0x0 SLOAD PUSH1 0x1 PUSH1 0x1 PUSH1 0xA0 SHL SUB AND CALLER EQ PUSH2 0x9A4 JUMPI PUSH1 0x40 MLOAD PUSH3 0x461BCD PUSH1 0xE5 SHL DUP2 MSTORE PUSH1 0x20 PUSH1 0x4 DUP3 ADD DUP2 SWAP1 MSTORE PUSH1 0x24 DUP3 ADD MSTORE PUSH32 0x4F776E61626C653A2063616C6C6572206973206E6F7420746865206F776E6572 PUSH1 0x44 DUP3 ADD MSTORE PUSH1 0x64 ADD PUSH2 0x757 JUMP JUMPDEST PUSH1 0x60 DUP2 PUSH1 0x0 SUB PUSH2 0xFCF JUMPI POP POP PUSH1 0x40 DUP1 MLOAD DUP1 DUP3 ADD SWAP1 SWAP2 MSTORE PUSH1 0x1 DUP2 MSTORE PUSH1 0x3 PUSH1 0xFC SHL PUSH1 0x20 DUP3 ADD MSTORE SWAP1 JUMP JUMPDEST DUP2 PUSH1 0x0 JUMPDEST DUP2 ISZERO PUSH2 0xFF9 JUMPI DUP1 PUSH2 0xFE3 DUP2 PUSH2 0x19FF JUMP JUMPDEST SWAP2 POP PUSH2 0xFF2 SWAP1 POP PUSH1 0xA DUP4 PUSH2 0x1A2E JUMP JUMPDEST SWAP2 POP PUSH2 0xFD3 JUMP JUMPDEST PUSH1 0x0 DUP2 PUSH8 0xFFFFFFFFFFFFFFFF DUP2 GT ISZERO PUSH2 0x1014 JUMPI PUSH2 0x1014 PUSH2 0x1A42 JUMP JUMPDEST PUSH1 0x40 MLOAD SWAP1 DUP1 DUP3 MSTORE DUP1 PUSH1 0x1F ADD PUSH1 0x1F NOT AND PUSH1 0x20 ADD DUP3 ADD PUSH1 0x40 MSTORE DUP1 ISZERO PUSH2 0x103E JUMPI PUSH1 0x20 DUP3 ADD DUP2 DUP1 CALLDATASIZE DUP4 CALLDATACOPY ADD SWAP1 POP JUMPDEST POP SWAP1 POP JUMPDEST DUP5 ISZERO PUSH2 0x10A9 JUMPI PUSH2 0x1053 PUSH1 0x1 DUP4 PUSH2 0x1A58 JUMP JUMPDEST SWAP2 POP PUSH2 0x1060 PUSH1 0xA DUP7 PUSH2 0x1A6F JUMP JUMPDEST PUSH2 0x106B SWAP1 PUSH1 0x30 PUSH2 0x19E7 JUMP JUMPDEST PUSH1 0xF8 SHL DUP2 DUP4 DUP2 MLOAD DUP2 LT PUSH2 0x1080 JUMPI PUSH2 0x1080 PUSH2 0x1A83 JUMP JUMPDEST PUSH1 0x20 ADD ADD SWAP1 PUSH1 0x1 PUSH1 0x1 PUSH1 0xF8 SHL SUB NOT AND SWAP1 DUP2 PUSH1 0x0 BYTE SWAP1 MSTORE8 POP PUSH2 0x10A2 PUSH1 0xA DUP7 PUSH2 0x1A2E JUMP JUMPDEST SWAP5 POP PUSH2 0x1042 JUMP JUMPDEST SWAP5 SWAP4 POP POP POP POP JUMP JUMPDEST PUSH1 0x0 PUSH1 0x2 PUSH1 0x12 SLOAD PUSH2 0x100 SWAP1 DIV PUSH1 0xFF AND PUSH1 0x2 DUP2 GT ISZERO PUSH2 0x10D1 JUMPI PUSH2 0x10D1 PUSH2 0x17D9 JUMP JUMPDEST EQ PUSH2 0x111E JUMPI PUSH1 0x40 MLOAD PUSH3 0x461BCD PUSH1 0xE5 SHL DUP2 MSTORE PUSH1 0x20 PUSH1 0x4 DUP3 ADD MSTORE PUSH1 0x17 PUSH1 0x24 DUP3 ADD MSTORE PUSH32 0x2073656E64207072697A652077726F6E67207374617465000000000000000000 PUSH1 0x44 DUP3 ADD MSTORE PUSH1 0x64 ADD PUSH2 0x757 JUMP JUMPDEST PUSH1 0x12 SLOAD SELFBALANCE SWAP1 PUSH1 0xFF AND PUSH2 0x122F JUMPI PUSH1 0x0 DUP1 PUSH2 0x113F PUSH1 0x0 SLOAD PUSH1 0x1 PUSH1 0x1 PUSH1 0xA0 SHL SUB AND SWAP1 JUMP JUMPDEST PUSH1 0x1 PUSH1 0x1 PUSH1 0xA0 SHL SUB AND PUSH1 0x64 PUSH1 0xA SLOAD DUP6 PUSH2 0x1158 SWAP2 SWAP1 PUSH2 0x1A99 JUMP JUMPDEST PUSH2 0x1162 SWAP2 SWAP1 PUSH2 0x1A2E JUMP JUMPDEST PUSH1 0x40 MLOAD PUSH1 0x0 DUP2 DUP2 DUP2 DUP6 DUP8 GAS CALL SWAP3 POP POP POP RETURNDATASIZE DUP1 PUSH1 0x0 DUP2 EQ PUSH2 0x119E JUMPI PUSH1 0x40 MLOAD SWAP2 POP PUSH1 0x1F NOT PUSH1 0x3F RETURNDATASIZE ADD AND DUP3 ADD PUSH1 0x40 MSTORE RETURNDATASIZE DUP3 MSTORE RETURNDATASIZE PUSH1 0x0 PUSH1 0x20 DUP5 ADD RETURNDATACOPY PUSH2 0x11A3 JUMP JUMPDEST PUSH1 0x60 SWAP2 POP JUMPDEST POP PUSH1 0x12 DUP1 SLOAD PUSH1 0xFF NOT AND DUP4 ISZERO ISZERO SWAP1 DUP2 OR SWAP1 SWAP2 SSTORE SWAP2 SWAP4 POP SWAP2 POP PUSH1 0xFF AND PUSH2 0x122C JUMPI PUSH1 0x0 SLOAD PUSH1 0x1 PUSH1 0x1 PUSH1 0xA0 SHL SUB AND PUSH1 0x1 PUSH1 0x1 PUSH1 0xA0 SHL SUB AND PUSH32 0x7A4C4FDF5D3172470D96D64C965B30DE694852175EFC7A6B546FB3BDBF76D178 PUSH1 0x64 PUSH1 0xA SLOAD DUP7 PUSH2 0x1207 SWAP2 SWAP1 PUSH2 0x1A99 JUMP JUMPDEST PUSH2 0x1211 SWAP2 SWAP1 PUSH2 0x1A2E JUMP JUMPDEST PUSH1 0x40 MLOAD SWAP1 DUP2 MSTORE PUSH1 0x20 ADD PUSH1 0x40 MLOAD DUP1 SWAP2 SUB SWAP1 LOG2 PUSH1 0x1 SWAP4 POP POP POP POP SWAP1 JUMP JUMPDEST POP POP JUMPDEST PUSH1 0x3 SLOAD PUSH1 0x9 SLOAD PUSH1 0x0 SWAP2 DUP3 SWAP2 PUSH1 0x1 PUSH1 0x1 PUSH1 0xA0 SHL SUB SWAP1 SWAP2 AND SWAP1 PUSH1 0x64 SWAP1 PUSH2 0x1253 SWAP1 DUP7 PUSH2 0x1A99 JUMP JUMPDEST PUSH2 0x125D SWAP2 SWAP1 PUSH2 0x1A2E JUMP JUMPDEST PUSH1 0x40 MLOAD PUSH1 0x0 DUP2 DUP2 DUP2 DUP6 DUP8 GAS CALL SWAP3 POP POP POP RETURNDATASIZE DUP1 PUSH1 0x0 DUP2 EQ PUSH2 0x1299 JUMPI PUSH1 0x40 MLOAD SWAP2 POP PUSH1 0x1F NOT PUSH1 0x3F RETURNDATASIZE ADD AND DUP3 ADD PUSH1 0x40 MSTORE RETURNDATASIZE DUP3 MSTORE RETURNDATASIZE PUSH1 0x0 PUSH1 0x20 DUP5 ADD RETURNDATACOPY PUSH2 0x129E JUMP JUMPDEST PUSH1 0x60 SWAP2 POP JUMPDEST POP SWAP2 POP SWAP2 POP DUP2 PUSH2 0x12E9 JUMPI PUSH1 0x3 SLOAD PUSH1 0x9 SLOAD PUSH1 0x1 PUSH1 0x1 PUSH1 0xA0 SHL SUB SWAP1 SWAP2 AND SWAP1 PUSH32 0x977E2C32BE07C8AA27BFE58F2BF200E11ECA859B94D36E76E645FCAF1D4CC946 SWAP1 PUSH1 0x64 SWAP1 PUSH2 0x1207 SWAP1 DUP8 PUSH2 0x1A99 JUMP JUMPDEST PUSH1 0x0 SWAP4 POP POP POP POP SWAP1 JUMP JUMPDEST PUSH1 0x0 DUP1 SLOAD PUSH1 0x1 PUSH1 0x1 PUSH1 0xA0 SHL SUB DUP4 DUP2 AND PUSH1 0x1 PUSH1 0x1 PUSH1 0xA0 SHL SUB NOT DUP4 AND DUP2 OR DUP5 SSTORE PUSH1 0x40 MLOAD SWAP2 SWAP1 SWAP3 AND SWAP3 DUP4 SWAP2 PUSH32 0x8BE0079C531659141344CD1FD0A4F28419497F9722A3DAAFE3B4186F6B6457E0 SWAP2 SWAP1 LOG3 POP POP JUMP JUMPDEST PUSH1 0x0 JUMPDEST PUSH1 0x2 SLOAD PUSH1 0xFF DUP3 AND LT ISZERO PUSH2 0x149B JUMPI PUSH1 0x0 DUP1 PUSH1 0x2 DUP4 PUSH1 0xFF AND DUP2 SLOAD DUP2 LT PUSH2 0x136C JUMPI PUSH2 0x136C PUSH2 0x1A83 JUMP JUMPDEST PUSH1 0x0 SWAP2 DUP3 MSTORE PUSH1 0x20 DUP3 KECCAK256 ADD SLOAD PUSH1 0x7 SLOAD PUSH1 0x40 MLOAD PUSH1 0x1 PUSH1 0x1 PUSH1 0xA0 SHL SUB SWAP1 SWAP3 AND SWAP3 SWAP1 SWAP2 SWAP1 DUP2 DUP2 DUP2 DUP6 DUP8 GAS CALL SWAP3 POP POP POP RETURNDATASIZE DUP1 PUSH1 0x0 DUP2 EQ PUSH2 0x13C3 JUMPI PUSH1 0x40 MLOAD SWAP2 POP PUSH1 0x1F NOT PUSH1 0x3F RETURNDATASIZE ADD AND DUP3 ADD PUSH1 0x40 MSTORE RETURNDATASIZE DUP3 MSTORE RETURNDATASIZE PUSH1 0x0 PUSH1 0x20 DUP5 ADD RETURNDATACOPY PUSH2 0x13C8 JUMP JUMPDEST PUSH1 0x60 SWAP2 POP JUMPDEST POP SWAP2 POP SWAP2 POP PUSH1 0x0 PUSH1 0x8 PUSH1 0x0 PUSH1 0x2 DUP7 PUSH1 0xFF AND DUP2 SLOAD DUP2 LT PUSH2 0x13E9 JUMPI PUSH2 0x13E9 PUSH2 0x1A83 JUMP JUMPDEST PUSH1 0x0 SWAP2 DUP3 MSTORE PUSH1 0x20 DUP1 DUP4 KECCAK256 SWAP2 SWAP1 SWAP2 ADD SLOAD PUSH1 0x1 PUSH1 0x1 PUSH1 0xA0 SHL SUB AND DUP4 MSTORE DUP3 ADD SWAP3 SWAP1 SWAP3 MSTORE PUSH1 0x40 ADD SWAP1 KECCAK256 DUP1 SLOAD PUSH1 0xFF NOT AND SWAP2 ISZERO ISZERO SWAP2 SWAP1 SWAP2 OR SWAP1 SSTORE DUP2 PUSH2 0x1486 JUMPI PUSH1 0x2 DUP4 PUSH1 0xFF AND DUP2 SLOAD DUP2 LT PUSH2 0x1438 JUMPI PUSH2 0x1438 PUSH2 0x1A83 JUMP JUMPDEST PUSH1 0x0 SWAP2 DUP3 MSTORE PUSH1 0x20 SWAP2 DUP3 SWAP1 KECCAK256 ADD SLOAD PUSH1 0x7 SLOAD PUSH1 0x40 MLOAD SWAP1 DUP2 MSTORE PUSH1 0x1 PUSH1 0x1 PUSH1 0xA0 SHL SUB SWAP1 SWAP2 AND SWAP2 PUSH32 0x1198B3902400A4722F08A21EB834E8F872109A5DAB83213639D3670A10D8D40A SWAP2 ADD PUSH1 0x40 MLOAD DUP1 SWAP2 SUB SWAP1 LOG2 JUMPDEST POP POP DUP1 DUP1 PUSH2 0x1493 SWAP1 PUSH2 0x1AB8 JUMP JUMPDEST SWAP2 POP POP PUSH2 0x1346 JUMP JUMPDEST POP PUSH2 0x9A4 PUSH2 0x1590 JUMP JUMPDEST PUSH1 0x2 PUSH1 0x0 DUP2 SLOAD DUP2 LT PUSH2 0x14B8 JUMPI PUSH2 0x14B8 PUSH2 0x1A83 JUMP JUMPDEST PUSH1 0x0 SWAP2 DUP3 MSTORE PUSH1 0x20 SWAP1 SWAP2 KECCAK256 ADD SLOAD PUSH1 0x2 DUP1 SLOAD PUSH1 0x1 PUSH1 0x1 PUSH1 0xA0 SHL SUB SWAP1 SWAP3 AND SWAP2 PUSH1 0x1 SWAP1 DUP2 LT PUSH2 0x14E5 JUMPI PUSH2 0x14E5 PUSH2 0x1A83 JUMP JUMPDEST PUSH1 0x0 SWAP2 DUP3 MSTORE PUSH1 0x20 SWAP1 SWAP2 KECCAK256 ADD SLOAD PUSH1 0x2 DUP1 SLOAD PUSH1 0x1 PUSH1 0x1 PUSH1 0xA0 SHL SUB SWAP1 SWAP3 AND SWAP2 PUSH2 0x150D SWAP1 PUSH1 0x1 SWAP1 PUSH2 0x1A58 JUMP JUMPDEST DUP2 SLOAD DUP2 LT PUSH2 0x151D JUMPI PUSH2 0x151D PUSH2 0x1A83 JUMP JUMPDEST PUSH1 0x0 SWAP2 DUP3 MSTORE PUSH1 0x20 SWAP2 DUP3 SWAP1 KECCAK256 ADD SLOAD PUSH1 0x40 MLOAD PUSH12 0xFFFFFFFFFFFFFFFFFFFFFFFF NOT PUSH1 0x60 SWAP6 DUP7 SHL DUP2 AND SWAP4 DUP3 ADD SWAP4 SWAP1 SWAP4 MSTORE SWAP3 DUP5 SHL DUP3 AND PUSH1 0x34 DUP5 ADD MSTORE SWAP1 SWAP3 SHL SWAP1 SWAP2 AND PUSH1 0x48 DUP3 ADD MSTORE DIFFICULTY PUSH1 0x5C DUP3 ADD MSTORE TIMESTAMP PUSH1 0x7C DUP3 ADD MSTORE PUSH1 0x9C ADD PUSH1 0x40 DUP1 MLOAD PUSH1 0x1F NOT DUP2 DUP5 SUB ADD DUP2 MSTORE SWAP2 SWAP1 MSTORE DUP1 MLOAD PUSH1 0x20 SWAP1 SWAP2 ADD KECCAK256 PUSH1 0x4 SSTORE PUSH2 0x9A4 PUSH2 0x163B JUMP JUMPDEST PUSH1 0x0 JUMPDEST PUSH1 0x2 SLOAD PUSH1 0xFF DUP3 AND LT ISZERO PUSH2 0x1602 JUMPI PUSH1 0x0 PUSH1 0x8 PUSH1 0x0 PUSH1 0x2 DUP5 PUSH1 0xFF AND DUP2 SLOAD DUP2 LT PUSH2 0x15BC JUMPI PUSH2 0x15BC PUSH2 0x1A83 JUMP JUMPDEST PUSH1 0x0 SWAP2 DUP3 MSTORE PUSH1 0x20 DUP1 DUP4 KECCAK256 SWAP2 SWAP1 SWAP2 ADD SLOAD PUSH1 0x1 PUSH1 0x1 PUSH1 0xA0 SHL SUB AND DUP4 MSTORE DUP3 ADD SWAP3 SWAP1 SWAP3 MSTORE PUSH1 0x40 ADD SWAP1 KECCAK256 DUP1 SLOAD PUSH1 0xFF NOT AND SWAP2 ISZERO ISZERO SWAP2 SWAP1 SWAP2 OR SWAP1 SSTORE DUP1 PUSH2 0x15FA DUP2 PUSH2 0x1AB8 JUMP JUMPDEST SWAP2 POP POP PUSH2 0x1593 JUMP JUMPDEST POP PUSH1 0x40 DUP1 MLOAD PUSH1 0x0 DUP2 MSTORE PUSH1 0x20 DUP2 ADD SWAP2 DUP3 SWAP1 MSTORE MLOAD PUSH2 0x1620 SWAP2 PUSH1 0x2 SWAP2 PUSH2 0x171D JUMP JUMPDEST POP PUSH1 0x12 DUP1 SLOAD PUSH1 0x0 PUSH1 0xD SSTORE PUSH2 0xFFFF NOT AND PUSH2 0x100 OR SWAP1 SSTORE TIMESTAMP PUSH1 0xF SSTORE JUMP JUMPDEST PUSH1 0x0 PUSH1 0x4 SLOAD PUSH1 0x0 SUB PUSH2 0x1686 JUMPI PUSH1 0x40 MLOAD PUSH3 0x461BCD PUSH1 0xE5 SHL DUP2 MSTORE PUSH1 0x20 PUSH1 0x4 DUP3 ADD MSTORE PUSH1 0x14 PUSH1 0x24 DUP3 ADD MSTORE PUSH20 0x63616E742066696E642072616E646F6D6E657373 PUSH1 0x60 SHL PUSH1 0x44 DUP3 ADD MSTORE PUSH1 0x64 ADD PUSH2 0x757 JUMP JUMPDEST PUSH1 0x2 SLOAD PUSH1 0x4 SLOAD PUSH1 0x0 SWAP2 PUSH2 0x1698 SWAP2 PUSH2 0x1A6F JUMP JUMPDEST SWAP1 POP PUSH1 0x2 DUP2 DUP2 SLOAD DUP2 LT PUSH2 0x16AD JUMPI PUSH2 0x16AD PUSH2 0x1A83 JUMP JUMPDEST PUSH1 0x0 SWAP2 DUP3 MSTORE PUSH1 0x20 SWAP1 SWAP2 KECCAK256 ADD SLOAD PUSH1 0x3 DUP1 SLOAD PUSH1 0x1 PUSH1 0x1 PUSH1 0xA0 SHL SUB NOT AND PUSH1 0x1 PUSH1 0x1 PUSH1 0xA0 SHL SUB SWAP1 SWAP3 AND SWAP2 SWAP1 SWAP2 OR SWAP1 SSTORE PUSH2 0x16E0 PUSH2 0x10B1 JUMP JUMPDEST SWAP2 POP DUP2 PUSH1 0x0 SUB PUSH2 0x16F6 JUMPI PUSH2 0x16F2 PUSH2 0x1590 JUMP JUMPDEST POP POP JUMP JUMPDEST PUSH1 0xD SLOAD PUSH2 0x1704 SWAP1 PUSH1 0x1 PUSH2 0x19E7 JUMP JUMPDEST PUSH1 0xD DUP2 SWAP1 SSTORE PUSH1 0x3 SUB PUSH2 0x16F2 JUMPI PUSH1 0x0 PUSH1 0xD SSTORE PUSH2 0x16F2 PUSH2 0x14A4 JUMP JUMPDEST DUP3 DUP1 SLOAD DUP3 DUP3 SSTORE SWAP1 PUSH1 0x0 MSTORE PUSH1 0x20 PUSH1 0x0 KECCAK256 SWAP1 DUP2 ADD SWAP3 DUP3 ISZERO PUSH2 0x1772 JUMPI SWAP2 PUSH1 0x20 MUL DUP3 ADD JUMPDEST DUP3 DUP2 GT ISZERO PUSH2 0x1772 JUMPI DUP3 MLOAD DUP3 SLOAD PUSH1 0x1 PUSH1 0x1 PUSH1 0xA0 SHL SUB NOT AND PUSH1 0x1 PUSH1 0x1 PUSH1 0xA0 SHL SUB SWAP1 SWAP2 AND OR DUP3 SSTORE PUSH1 0x20 SWAP1 SWAP3 ADD SWAP2 PUSH1 0x1 SWAP1 SWAP2 ADD SWAP1 PUSH2 0x173D JUMP JUMPDEST POP PUSH2 0x177E SWAP3 SWAP2 POP PUSH2 0x1782 JUMP JUMPDEST POP SWAP1 JUMP JUMPDEST JUMPDEST DUP1 DUP3 GT ISZERO PUSH2 0x177E JUMPI PUSH1 0x0 DUP2 SSTORE PUSH1 0x1 ADD PUSH2 0x1783 JUMP JUMPDEST PUSH1 0x0 PUSH1 0x20 DUP3 DUP5 SUB SLT ISZERO PUSH2 0x17A9 JUMPI PUSH1 0x0 DUP1 REVERT JUMPDEST DUP2 CALLDATALOAD PUSH1 0x1 PUSH1 0x1 PUSH1 0xA0 SHL SUB DUP2 AND DUP2 EQ PUSH2 0xEFF JUMPI PUSH1 0x0 DUP1 REVERT JUMPDEST PUSH1 0x0 PUSH1 0x20 DUP3 DUP5 SUB SLT ISZERO PUSH2 0x17D2 JUMPI PUSH1 0x0 DUP1 REVERT JUMPDEST POP CALLDATALOAD SWAP2 SWAP1 POP JUMP JUMPDEST PUSH4 0x4E487B71 PUSH1 0xE0 SHL PUSH1 0x0 MSTORE PUSH1 0x21 PUSH1 0x4 MSTORE PUSH1 0x24 PUSH1 0x0 REVERT JUMPDEST PUSH1 0x20 DUP2 ADD PUSH1 0x3 DUP4 LT PUSH2 0x1803 JUMPI PUSH2 0x1803 PUSH2 0x17D9 JUMP JUMPDEST SWAP2 SWAP1 MSTORE SWAP1 JUMP JUMPDEST PUSH1 0x20 DUP2 ADD PUSH1 0x2 DUP4 LT PUSH2 0x1803 JUMPI PUSH2 0x1803 PUSH2 0x17D9 JUMP JUMPDEST PUSH1 0x0 DUP1 PUSH1 0x0 PUSH1 0x60 DUP5 DUP7 SUB SLT ISZERO PUSH2 0x1832 JUMPI PUSH1 0x0 DUP1 REVERT JUMPDEST POP POP DUP2 CALLDATALOAD SWAP4 PUSH1 0x20 DUP4 ADD CALLDATALOAD SWAP4 POP PUSH1 0x40 SWAP1 SWAP3 ADD CALLDATALOAD SWAP2 SWAP1 POP JUMP JUMPDEST PUSH1 0x0 PUSH1 0x20 DUP3 DUP5 SUB SLT ISZERO PUSH2 0x185B JUMPI PUSH1 0x0 DUP1 REVERT JUMPDEST POP MLOAD SWAP2 SWAP1 POP JUMP JUMPDEST PUSH1 0x0 PUSH1 0x20 DUP3 DUP5 SUB SLT ISZERO PUSH2 0x1874 JUMPI PUSH1 0x0 DUP1 REVERT JUMPDEST DUP2 MLOAD DUP1 ISZERO ISZERO DUP2 EQ PUSH2 0xEFF JUMPI PUSH1 0x0 DUP1 REVERT JUMPDEST PUSH1 0x20 DUP1 DUP3 MSTORE PUSH1 0x1F SWAP1 DUP3 ADD MSTORE PUSH32 0x5265656E7472616E637947756172643A207265656E7472616E742063616C6C00 PUSH1 0x40 DUP3 ADD MSTORE PUSH1 0x60 ADD SWAP1 JUMP JUMPDEST PUSH1 0x20 DUP1 DUP3 MSTORE PUSH1 0xF SWAP1 DUP3 ADD MSTORE PUSH15 0x131BDD1D195C9E4814DD1BDC1C1959 PUSH1 0x8A SHL PUSH1 0x40 DUP3 ADD MSTORE PUSH1 0x60 ADD SWAP1 JUMP JUMPDEST PUSH1 0x0 JUMPDEST DUP4 DUP2 LT ISZERO PUSH2 0x18FF JUMPI DUP2 DUP2 ADD MLOAD DUP4 DUP3 ADD MSTORE PUSH1 0x20 ADD PUSH2 0x18E7 JUMP JUMPDEST DUP4 DUP2 GT ISZERO PUSH2 0x190E JUMPI PUSH1 0x0 DUP5 DUP5 ADD MSTORE JUMPDEST POP POP POP POP JUMP JUMPDEST PUSH32 0x456E74727920666565206D75737420626520657175616C20746F3A2000000000 DUP2 MSTORE PUSH1 0x0 DUP3 MLOAD PUSH2 0x194C DUP2 PUSH1 0x1C DUP6 ADD PUSH1 0x20 DUP8 ADD PUSH2 0x18E4 JUMP JUMPDEST PUSH4 0x408AE8D PUSH1 0xE3 SHL PUSH1 0x1C SWAP4 SWAP1 SWAP2 ADD SWAP3 DUP4 ADD MSTORE POP PUSH1 0x20 ADD SWAP2 SWAP1 POP JUMP JUMPDEST PUSH1 0x20 DUP2 MSTORE PUSH1 0x0 DUP3 MLOAD DUP1 PUSH1 0x20 DUP5 ADD MSTORE PUSH2 0x1986 DUP2 PUSH1 0x40 DUP6 ADD PUSH1 0x20 DUP8 ADD PUSH2 0x18E4 JUMP JUMPDEST PUSH1 0x1F ADD PUSH1 0x1F NOT AND SWAP2 SWAP1 SWAP2 ADD PUSH1 0x40 ADD SWAP3 SWAP2 POP POP JUMP JUMPDEST PUSH1 0x20 DUP1 DUP3 MSTORE PUSH1 0x1D SWAP1 DUP3 ADD MSTORE PUSH32 0x43616E204E6F74207768696C65206C6F7474657279206F6E676F696E67000000 PUSH1 0x40 DUP3 ADD MSTORE PUSH1 0x60 ADD SWAP1 JUMP JUMPDEST PUSH4 0x4E487B71 PUSH1 0xE0 SHL PUSH1 0x0 MSTORE PUSH1 0x11 PUSH1 0x4 MSTORE PUSH1 0x24 PUSH1 0x0 REVERT JUMPDEST PUSH1 0x0 DUP3 NOT DUP3 GT ISZERO PUSH2 0x19FA JUMPI PUSH2 0x19FA PUSH2 0x19D1 JUMP JUMPDEST POP ADD SWAP1 JUMP JUMPDEST PUSH1 0x0 PUSH1 0x1 DUP3 ADD PUSH2 0x1A11 JUMPI PUSH2 0x1A11 PUSH2 0x19D1 JUMP JUMPDEST POP PUSH1 0x1 ADD SWAP1 JUMP JUMPDEST PUSH4 0x4E487B71 PUSH1 0xE0 SHL PUSH1 0x0 MSTORE PUSH1 0x12 PUSH1 0x4 MSTORE PUSH1 0x24 PUSH1 0x0 REVERT JUMPDEST PUSH1 0x0 DUP3 PUSH2 0x1A3D JUMPI PUSH2 0x1A3D PUSH2 0x1A18 JUMP JUMPDEST POP DIV SWAP1 JUMP JUMPDEST PUSH4 0x4E487B71 PUSH1 0xE0 SHL PUSH1 0x0 MSTORE PUSH1 0x41 PUSH1 0x4 MSTORE PUSH1 0x24 PUSH1 0x0 REVERT JUMPDEST PUSH1 0x0 DUP3 DUP3 LT ISZERO PUSH2 0x1A6A JUMPI PUSH2 0x1A6A PUSH2 0x19D1 JUMP JUMPDEST POP SUB SWAP1 JUMP JUMPDEST PUSH1 0x0 DUP3 PUSH2 0x1A7E JUMPI PUSH2 0x1A7E PUSH2 0x1A18 JUMP JUMPDEST POP MOD SWAP1 JUMP JUMPDEST PUSH4 0x4E487B71 PUSH1 0xE0 SHL PUSH1 0x0 MSTORE PUSH1 0x32 PUSH1 0x4 MSTORE PUSH1 0x24 PUSH1 0x0 REVERT JUMPDEST PUSH1 0x0 DUP2 PUSH1 0x0 NOT DIV DUP4 GT DUP3 ISZERO ISZERO AND ISZERO PUSH2 0x1AB3 JUMPI PUSH2 0x1AB3 PUSH2 0x19D1 JUMP JUMPDEST POP MUL SWAP1 JUMP JUMPDEST PUSH1 0x0 PUSH1 0xFF DUP3 AND PUSH1 0xFF DUP2 SUB PUSH2 0x1ACE JUMPI PUSH2 0x1ACE PUSH2 0x19D1 JUMP JUMPDEST PUSH1 0x1 ADD SWAP3 SWAP2 POP POP JUMP INVALID LOG2 PUSH5 0x6970667358 0x22 SLT KECCAK256 DIFFICULTY 0x4E 0x21 0x5E 0xDF DIFFICULTY 0xE 0x4F PUSH22 0xB3E856005A6D5E6E38D06B7030AE404343E89B00E2D3 SWAP9 PUSH5 0x736F6C6343 STOP ADDMOD 0xE STOP CALLER ","sha1":"6065e70a0dabe2863e3ba7518e97f1e079dc24db","source":"pragma solidity ^0.8.13;\n\n//import \"@openzeppelin/contracts/token/ERC20/ERC20.sol\";\nimport \"@openzeppelin/contracts/access/Ownable.sol\";\nimport \"@openzeppelin/contracts/security/ReentrancyGuard.sol\";\n//import \"@chainlink/contracts/src/v0.8/interfaces/AggregatorV3Interface.sol\";\nimport \"@chainlink/contracts/src/v0.8/VRFConsumerBase.sol\";\nimport \"@openzeppelin/contracts/utils/Strings.sol\";\n\ninterface IERC20 {\n    function totalSupply() external view returns (uint256);\n\n    function balanceOf(address account) external view returns (uint256);\n\n    function transfer(address recipient, uint256 amount)\n        external\n        returns (bool);\n\n    function allowance(address owner, address spender)\n        external\n        view\n        returns (uint256);\n\n    function approve(address spender, uint256 amount) external returns (bool);\n\n    function transferFrom(\n        address sender,\n        address recipient,\n        uint256 amount\n    ) external returns (bool);\n\n    event Transfer(address indexed from, address indexed to, uint256 value);\n    event Approval(\n        address indexed owner,\n        address indexed spender,\n        uint256 value\n    );\n}\n\ncontract MyLottery is Ownable, ReentrancyGuard {\n    address payable[] public players;\n    address payable public recentWinner;\n    //address public link;\n    uint256 public randomness;\n    uint256 public minumumParticipants;\n    uint256 public maximumParticipants;\n    uint256 public EntryFee;\n    mapping(address => bool) public isUserEntered;\n    //AggregatorV3Interface internal ethUsdPriceFeed;\n    uint256 public pricePercent;\n    uint256 public ownerPercent;\n    uint256 public contractPercent;\n    uint256 public maxTryCounter;\n    uint256 public errorFlag;\n    uint256 public lotteryStart;\n    uint256 public lotteryEnd;\n    uint256 public lotteryDuration;\n    uint256 public lotteryPrepDuration;\n    bool public ownerSent;\n    //bool public winnerSent;\n\n    //timestamp ekliyip closeda required bilmem kac saat geçmeden bitemez\n\n    //maxTryCounter  end lottery icin calismali\n    //CALCULATING_WINNER da takilabilir\n    //lottery no id filan belki 1 le başlıyıp artırıp\n    // kazanan için emit event tutar filan\n    //hiç kimse katılmamışsa end lotterye gerek yok ilerde python schedule event lazım olucak\n\n    enum LOTTERY_STATE {\n        OPEN,\n        CLOSED,\n        CALCULATING_WINNER\n    }\n    LOTTERY_STATE public lottery_state;\n\n    enum EMERGENCY {\n        STOPPED,\n        NOT_STOPPED\n    }\n    EMERGENCY public emergency;\n    uint256 public fee;\n    bytes32 public keyhash;\n    event RequestedRandomness(bytes32 requestId);\n    //event ethSendError(address cannotEthSend);\n    event cantSendEthOwner(address indexed to, uint256 value);\n    event cantSendEthWinner(address indexed to, uint256 value);\n    event cantSendEthParticipants(address indexed to, uint256 value);\n\n    // 0\n    // 1\n    // 2\n\n    constructor() public {\n        EntryFee = 0.05 * (10**18); //bura deiscek\n        lottery_state = LOTTERY_STATE.CLOSED;\n        emergency = EMERGENCY.NOT_STOPPED;\n        minumumParticipants = 3;\n        maximumParticipants = 100;\n        pricePercent = 65;\n        ownerPercent = 20;\n        contractPercent = 15;\n        maxTryCounter = 3;\n        lotteryDuration = 300; //28800 saniye 8 saat\n        lotteryPrepDuration = 300; //7200 saniye 2 saat\n    }\n\n    /*nonReentrant*/\n    function enter_lottery() public payable nonReentrant {\n        require(isUserEntered[msg.sender] == false, \"Already entered\");\n        isUserEntered[msg.sender] = true;\n        require(lottery_state == LOTTERY_STATE.OPEN, \"Lottery Not started\");\n        require((emergency == EMERGENCY.NOT_STOPPED), \"Lottery Stopped\");\n        require(\n            msg.value == EntryFee,\n            string.concat(\n                \"Entry fee must be equal to: \",\n                Strings.toString(EntryFee),\n                \" Eth\"\n            )\n        );\n        require(\n            players.length <= maximumParticipants,\n            \"Maximum Number reached for  lottery\"\n        );\n\n        players.push(payable(msg.sender));\n    }\n\n    function start_lottery() public nonReentrant {\n        require(\n            lottery_state == LOTTERY_STATE.CLOSED,\n            \"Lottery Already started\"\n        );\n        require(emergency == EMERGENCY.NOT_STOPPED, \"Lottery Stopped\");\n        require(\n            block.timestamp > (lotteryEnd + lotteryPrepDuration),\n            \"min lottery prep duration not passed\"\n        );\n        lottery_state = LOTTERY_STATE.OPEN;\n        randomness = 0;\n        lotteryStart = block.timestamp;\n    }\n\n    function end_lottery() public nonReentrant {\n        require(lottery_state == LOTTERY_STATE.OPEN, \"Lottery Not started\");\n        require(emergency == EMERGENCY.NOT_STOPPED, \"Lottery Stopped\");\n        require(\n            block.timestamp > (lotteryStart + lotteryDuration),\n            \"min lottery duration not passed\"\n        );\n        //some\n        //timestamp requirede gerekiyor\n        if (players.length < minumumParticipants) {\n            not_enough_participant();\n        } else {\n            lottery_state = LOTTERY_STATE.CALCULATING_WINNER;\n            calculate_winner();\n        }\n\n        //ERC20 yeterli link var mı diye kontrol et\n    }\n\n    //if cant find winner something happens buna gerek kalmadi sanki\n    /*function retry_winner() public onlyOwner {\n        require(\n            lottery_state == LOTTERY_STATE.CALCULATING_WINNER,\n            \"wrong state\"\n        );\n        require(randomness == 0, \"not random\");\n        calculate_winner();\n    }*/\n\n    function calculate_winner() internal {\n        //if players.length>\n\n        //another random not very very random\n\n        randomness = uint256(\n            keccak256(\n                abi.encodePacked(\n                    players[0], //  seenable\n                    players[1],\n                    players[players.length - 1],\n                    block.difficulty, // can actually be manipulated by the miners!\n                    block.timestamp // timestamp is predictable\n                )\n            )\n        );\n        afterFinish();\n    }\n\n    function setPrizePercents(\n        uint256 _pricePercent,\n        uint256 _ownerPercent,\n        uint256 _contractPercent\n    ) external onlyOwner {\n        require(\n            lottery_state == LOTTERY_STATE.CLOSED,\n            \"Can Not while lottery ongoing\"\n        );\n        require(\n            lottery_state == LOTTERY_STATE.CLOSED,\n            \"Can Not while lottery ongoing\"\n        );\n        require(\n            _pricePercent + _ownerPercent + _contractPercent <= 100,\n            \"can not over 100\"\n        );\n        require(_pricePercent < 50, \"can not less 50\");\n        pricePercent = _pricePercent;\n        ownerPercent = _ownerPercent;\n        contractPercent = _contractPercent;\n    }\n\n    function setMinumumParticipants(uint256 _minumumParticipants)\n        external\n        onlyOwner\n    {\n        minumumParticipants = _minumumParticipants;\n    }\n\n    function setLotteryDuration(uint256 _duration) external onlyOwner {\n        lotteryDuration = _duration;\n    }\n\n    function setEntranceFee(uint256 _entryFee) external onlyOwner {\n        require(\n            lottery_state == LOTTERY_STATE.CLOSED,\n            \"Can Not while lottery ongoing\"\n        );\n        EntryFee = _entryFee;\n    }\n\n    function setMaximumParticipants(uint256 _maximumParticipants)\n        external\n        onlyOwner\n    {\n        maximumParticipants = _maximumParticipants;\n    }\n\n    function getBalance(address _tokenContractAddress)\n        public\n        view\n        returns (uint256)\n    {\n        uint256 balance = IERC20(_tokenContractAddress).balanceOf(\n            address(this)\n        );\n        return balance;\n    }\n\n    function recoverEth() external onlyOwner {\n        require(\n            lottery_state == LOTTERY_STATE.CLOSED,\n            \"Can Not while lottery ongoing\"\n        );\n        payable(msg.sender).transfer(address(this).balance);\n    }\n\n    function recoverTokens(address tokenAddress) external onlyOwner {\n        IERC20 token = IERC20(tokenAddress);\n        token.transfer(msg.sender, token.balanceOf(address(this)));\n    }\n\n    function afterFinish() internal {\n        //mapping clear unutma\n        uint256 sentFlag = 0;\n        require(randomness != 0, \"cant find randomness\");\n        uint256 indexOfWinner = randomness % players.length;\n        recentWinner = players[indexOfWinner];\n\n        sentFlag = sendPrizes();\n\n        if (sentFlag == 0) {\n            clearPlayers();\n        } else {\n            errorFlag = errorFlag + 1;\n            if (errorFlag == 3) {\n                errorFlag = 0;\n                calculate_winner(); //yeni winner secicez\n            }\n        }\n\n        //require(sent, \"Failed to send Ether\");\n    }\n\n    function retrySendPrizes() external onlyOwner {\n        sendPrizes();\n    }\n\n    function sendPrizes() internal returns (uint256) {\n        require(\n            lottery_state == LOTTERY_STATE.CALCULATING_WINNER,\n            \" send prize wrong state\"\n        );\n        uint256 total_prize = address(this).balance;\n        if (\n            !ownerSent\n        ) //recentWinner.transfer(total_prize * (pricePercent / 100));\n        {\n            (bool sent, bytes memory data) = owner().call{\n                value: (total_prize * ownerPercent) / 100\n            }(\"\");\n            ownerSent = sent;\n            if (!ownerSent) {\n                emit cantSendEthOwner(\n                    owner(),\n                    (total_prize * ownerPercent) / 100\n                );\n                return 1;\n            }\n        }\n\n        (bool sent, bytes memory data) = recentWinner.call{\n            value: (total_prize * pricePercent) / 100\n        }(\"\");\n        if (!sent) {\n            emit cantSendEthWinner(\n                recentWinner,\n                (total_prize * pricePercent) / 100\n            );\n            return 1;\n        }\n        return 0;\n    }\n\n    /*function test(address sender)\n        external\n        returns (\n            uint256,\n            uint256,\n            uint256\n        )\n    {\n        uint256 total_prize = address(this).balance;\n        (bool sent, bytes memory data) = sender.call{\n            value: ((total_prize * pricePercent) / 100)\n        }(\"\");\n        require(sent, \"Failed to send Ether\");\n        uint256 calc_prize = total_prize * (pricePercent / 100);\n        return (calc_prize, total_prize, pricePercent);\n    }*/\n\n    function not_enough_participant() internal {\n        for (uint8 i = 0; i < players.length; i++) {\n            //players[i].transfer(EntryFee);\n            // burasi değişecek\n            (bool sent, bytes memory data) = players[i].call{value: EntryFee}(\n                \"\"\n            );\n            isUserEntered[players[i]] = false;\n            //require(sent, \"Failed to send Ether\");\n            if (!sent) {\n                emit cantSendEthParticipants(players[i], EntryFee);\n            }\n        }\n        clearPlayers();\n    }\n\n    function transferOwner(address newOwner) external onlyOwner {\n        transferOwnership(newOwner);\n    }\n\n    function clearPlayers() internal {\n        for (uint8 i = 0; i < players.length; i++) {\n            isUserEntered[players[i]] = false;\n        }\n        players = new address payable[](0);\n        lottery_state = LOTTERY_STATE.CLOSED;\n        errorFlag = 0;\n        ownerSent = false;\n        lotteryEnd = block.timestamp;\n        //randomness = 0;\n    }\n}\n","sourcePath":"contracts/MyLottery.sol","type":"contract","deployment":{"address":"0xd1f5c62387f43a167D6f87863f1dDa1073320928","chainid":"97","blockHeight":24787598}}